{
	"ToDoList/taskFactort.sol": {
		"TaskFactory": {
			"abi": [
				{
					"inputs": [
						{
							"internalType": "string",
							"name": "taskDescription",
							"type": "string"
						},
						{
							"internalType": "string",
							"name": "taskCategory",
							"type": "string"
						},
						{
							"internalType": "uint8",
							"name": "taskPriority",
							"type": "uint8"
						},
						{
							"internalType": "uint32",
							"name": "taskDeadline",
							"type": "uint32"
						},
						{
							"internalType": "bool",
							"name": "taskStatus",
							"type": "bool"
						}
					],
					"name": "_newTask",
					"outputs": [],
					"stateMutability": "nonpayable",
					"type": "function"
				},
				{
					"inputs": [
						{
							"internalType": "uint256",
							"name": "",
							"type": "uint256"
						}
					],
					"name": "taskList",
					"outputs": [
						{
							"internalType": "string",
							"name": "taskDescription",
							"type": "string"
						},
						{
							"internalType": "string",
							"name": "taskCategory",
							"type": "string"
						},
						{
							"internalType": "uint8",
							"name": "taskPriority",
							"type": "uint8"
						},
						{
							"internalType": "uint32",
							"name": "taskDeadline",
							"type": "uint32"
						},
						{
							"internalType": "bool",
							"name": "taskStatus",
							"type": "bool"
						}
					],
					"stateMutability": "view",
					"type": "function"
				}
			],
			"devdoc": {
				"kind": "dev",
				"methods": {},
				"version": 1
			},
			"evm": {
				"assembly": "    /* \"ToDoList/taskFactort.sol\":61:629  contract TaskFactory {... */\n  mstore(0x40, 0x80)\n  callvalue\n  dup1\n  iszero\n  tag_1\n  jumpi\n  revert(0x00, 0x00)\ntag_1:\n  pop\n  dataSize(sub_0)\n  dup1\n  dataOffset(sub_0)\n  0x00\n  codecopy\n  0x00\n  return\nstop\n\nsub_0: assembly {\n        /* \"ToDoList/taskFactort.sol\":61:629  contract TaskFactory {... */\n      mstore(0x40, 0x80)\n      callvalue\n      dup1\n      iszero\n      tag_1\n      jumpi\n      revert(0x00, 0x00)\n    tag_1:\n      pop\n      jumpi(tag_2, lt(calldatasize, 0x04))\n      shr(0xe0, calldataload(0x00))\n      dup1\n      0x211042b8\n      eq\n      tag_3\n      jumpi\n      dup1\n      0x2a1c52a5\n      eq\n      tag_4\n      jumpi\n    tag_2:\n      revert(0x00, 0x00)\n        /* \"ToDoList/taskFactort.sol\":325:620  function _newTask(string memory taskDescription, string memory taskCategory, uint8 taskPriority, uint32 taskDeadline, bool taskStatus) public {... */\n    tag_3:\n      tag_5\n      0x04\n      dup1\n      calldatasize\n      sub\n      dup2\n      add\n      swap1\n      tag_6\n      swap2\n      swap1\n      tag_7\n      jump\t// in\n    tag_6:\n      tag_8\n      jump\t// in\n    tag_5:\n      stop\n        /* \"ToDoList/taskFactort.sol\":294:316  Task[] public taskList */\n    tag_4:\n      tag_9\n      0x04\n      dup1\n      calldatasize\n      sub\n      dup2\n      add\n      swap1\n      tag_10\n      swap2\n      swap1\n      tag_11\n      jump\t// in\n    tag_10:\n      tag_12\n      jump\t// in\n    tag_9:\n      mload(0x40)\n      tag_13\n      swap6\n      swap5\n      swap4\n      swap3\n      swap2\n      swap1\n      tag_14\n      jump\t// in\n    tag_13:\n      mload(0x40)\n      dup1\n      swap2\n      sub\n      swap1\n      return\n        /* \"ToDoList/taskFactort.sol\":325:620  function _newTask(string memory taskDescription, string memory taskCategory, uint8 taskPriority, uint32 taskDeadline, bool taskStatus) public {... */\n    tag_8:\n        /* \"ToDoList/taskFactort.sol\":478:486  taskList */\n      0x00\n        /* \"ToDoList/taskFactort.sol\":492:567  Task(taskDescription, taskCategory, taskPriority, taskDeadline, taskStatus) */\n      mload(0x40)\n      dup1\n      0xa0\n      add\n      0x40\n      mstore\n      dup1\n        /* \"ToDoList/taskFactort.sol\":497:512  taskDescription */\n      dup8\n        /* \"ToDoList/taskFactort.sol\":492:567  Task(taskDescription, taskCategory, taskPriority, taskDeadline, taskStatus) */\n      dup2\n      mstore\n      0x20\n      add\n        /* \"ToDoList/taskFactort.sol\":514:526  taskCategory */\n      dup7\n        /* \"ToDoList/taskFactort.sol\":492:567  Task(taskDescription, taskCategory, taskPriority, taskDeadline, taskStatus) */\n      dup2\n      mstore\n      0x20\n      add\n        /* \"ToDoList/taskFactort.sol\":528:540  taskPriority */\n      dup6\n        /* \"ToDoList/taskFactort.sol\":492:567  Task(taskDescription, taskCategory, taskPriority, taskDeadline, taskStatus) */\n      0xff\n      and\n      dup2\n      mstore\n      0x20\n      add\n        /* \"ToDoList/taskFactort.sol\":542:554  taskDeadline */\n      dup5\n        /* \"ToDoList/taskFactort.sol\":492:567  Task(taskDescription, taskCategory, taskPriority, taskDeadline, taskStatus) */\n      0xffffffff\n      and\n      dup2\n      mstore\n      0x20\n      add\n        /* \"ToDoList/taskFactort.sol\":556:566  taskStatus */\n      dup4\n        /* \"ToDoList/taskFactort.sol\":492:567  Task(taskDescription, taskCategory, taskPriority, taskDeadline, taskStatus) */\n      iszero\n      iszero\n      dup2\n      mstore\n      pop\n        /* \"ToDoList/taskFactort.sol\":478:568  taskList.push(Task(taskDescription, taskCategory, taskPriority, taskDeadline, taskStatus)) */\n      swap1\n      dup1\n      0x01\n      dup2\n      sload\n      add\n      dup1\n      dup3\n      sstore\n      dup1\n      swap2\n      pop\n      pop\n      0x01\n      swap1\n      sub\n      swap1\n      0x00\n      mstore\n      keccak256(0x00, 0x20)\n      swap1\n      0x03\n      mul\n      add\n      0x00\n      swap1\n      swap2\n      swap1\n      swap2\n      swap1\n      swap2\n      pop\n      0x00\n      dup3\n      add\n      mload\n      dup2\n      0x00\n      add\n      swap1\n      dup2\n      tag_17\n      swap2\n      swap1\n      tag_18\n      jump\t// in\n    tag_17:\n      pop\n      0x20\n      dup3\n      add\n      mload\n      dup2\n      0x01\n      add\n      swap1\n      dup2\n      tag_19\n      swap2\n      swap1\n      tag_18\n      jump\t// in\n    tag_19:\n      pop\n      0x40\n      dup3\n      add\n      mload\n      dup2\n      0x02\n      add\n      exp(0x0100, 0x00)\n      dup2\n      sload\n      dup2\n      0xff\n      mul\n      not\n      and\n      swap1\n      dup4\n      0xff\n      and\n      mul\n      or\n      swap1\n      sstore\n      pop\n      0x60\n      dup3\n      add\n      mload\n      dup2\n      0x02\n      add\n      exp(0x0100, 0x01)\n      dup2\n      sload\n      dup2\n      0xffffffff\n      mul\n      not\n      and\n      swap1\n      dup4\n      0xffffffff\n      and\n      mul\n      or\n      swap1\n      sstore\n      pop\n      0x80\n      dup3\n      add\n      mload\n      dup2\n      0x02\n      add\n      exp(0x0100, 0x05)\n      dup2\n      sload\n      dup2\n      0xff\n      mul\n      not\n      and\n      swap1\n      dup4\n      iszero\n      iszero\n      mul\n      or\n      swap1\n      sstore\n      pop\n      pop\n      pop\n        /* \"ToDoList/taskFactort.sol\":579:590  uint taskId */\n      0x00\n        /* \"ToDoList/taskFactort.sol\":611:612  1 */\n      0x01\n        /* \"ToDoList/taskFactort.sol\":593:601  taskList */\n      0x00\n        /* \"ToDoList/taskFactort.sol\":593:608  taskList.length */\n      dup1\n      sload\n      swap1\n      pop\n        /* \"ToDoList/taskFactort.sol\":593:612  taskList.length - 1 */\n      tag_20\n      swap2\n      swap1\n      tag_21\n      jump\t// in\n    tag_20:\n        /* \"ToDoList/taskFactort.sol\":579:612  uint taskId = taskList.length - 1 */\n      swap1\n      pop\n        /* \"ToDoList/taskFactort.sol\":467:620  {... */\n      pop\n        /* \"ToDoList/taskFactort.sol\":325:620  function _newTask(string memory taskDescription, string memory taskCategory, uint8 taskPriority, uint32 taskDeadline, bool taskStatus) public {... */\n      pop\n      pop\n      pop\n      pop\n      pop\n      jump\t// out\n        /* \"ToDoList/taskFactort.sol\":294:316  Task[] public taskList */\n    tag_12:\n      0x00\n      dup2\n      dup2\n      sload\n      dup2\n      lt\n      tag_22\n      jumpi\n      0x00\n      dup1\n      revert\n    tag_22:\n      swap1\n      0x00\n      mstore\n      keccak256(0x00, 0x20)\n      swap1\n      0x03\n      mul\n      add\n      0x00\n      swap2\n      pop\n      swap1\n      pop\n      dup1\n      0x00\n      add\n      dup1\n      sload\n      tag_24\n      swap1\n      tag_25\n      jump\t// in\n    tag_24:\n      dup1\n      0x1f\n      add\n      0x20\n      dup1\n      swap2\n      div\n      mul\n      0x20\n      add\n      mload(0x40)\n      swap1\n      dup2\n      add\n      0x40\n      mstore\n      dup1\n      swap3\n      swap2\n      swap1\n      dup2\n      dup2\n      mstore\n      0x20\n      add\n      dup3\n      dup1\n      sload\n      tag_26\n      swap1\n      tag_25\n      jump\t// in\n    tag_26:\n      dup1\n      iszero\n      tag_27\n      jumpi\n      dup1\n      0x1f\n      lt\n      tag_28\n      jumpi\n      0x0100\n      dup1\n      dup4\n      sload\n      div\n      mul\n      dup4\n      mstore\n      swap2\n      0x20\n      add\n      swap2\n      jump(tag_27)\n    tag_28:\n      dup3\n      add\n      swap2\n      swap1\n      0x00\n      mstore\n      keccak256(0x00, 0x20)\n      swap1\n    tag_29:\n      dup2\n      sload\n      dup2\n      mstore\n      swap1\n      0x01\n      add\n      swap1\n      0x20\n      add\n      dup1\n      dup4\n      gt\n      tag_29\n      jumpi\n      dup3\n      swap1\n      sub\n      0x1f\n      and\n      dup3\n      add\n      swap2\n    tag_27:\n      pop\n      pop\n      pop\n      pop\n      pop\n      swap1\n      dup1\n      0x01\n      add\n      dup1\n      sload\n      tag_30\n      swap1\n      tag_25\n      jump\t// in\n    tag_30:\n      dup1\n      0x1f\n      add\n      0x20\n      dup1\n      swap2\n      div\n      mul\n      0x20\n      add\n      mload(0x40)\n      swap1\n      dup2\n      add\n      0x40\n      mstore\n      dup1\n      swap3\n      swap2\n      swap1\n      dup2\n      dup2\n      mstore\n      0x20\n      add\n      dup3\n      dup1\n      sload\n      tag_31\n      swap1\n      tag_25\n      jump\t// in\n    tag_31:\n      dup1\n      iszero\n      tag_32\n      jumpi\n      dup1\n      0x1f\n      lt\n      tag_33\n      jumpi\n      0x0100\n      dup1\n      dup4\n      sload\n      div\n      mul\n      dup4\n      mstore\n      swap2\n      0x20\n      add\n      swap2\n      jump(tag_32)\n    tag_33:\n      dup3\n      add\n      swap2\n      swap1\n      0x00\n      mstore\n      keccak256(0x00, 0x20)\n      swap1\n    tag_34:\n      dup2\n      sload\n      dup2\n      mstore\n      swap1\n      0x01\n      add\n      swap1\n      0x20\n      add\n      dup1\n      dup4\n      gt\n      tag_34\n      jumpi\n      dup3\n      swap1\n      sub\n      0x1f\n      and\n      dup3\n      add\n      swap2\n    tag_32:\n      pop\n      pop\n      pop\n      pop\n      pop\n      swap1\n      dup1\n      0x02\n      add\n      0x00\n      swap1\n      sload\n      swap1\n      0x0100\n      exp\n      swap1\n      div\n      0xff\n      and\n      swap1\n      dup1\n      0x02\n      add\n      0x01\n      swap1\n      sload\n      swap1\n      0x0100\n      exp\n      swap1\n      div\n      0xffffffff\n      and\n      swap1\n      dup1\n      0x02\n      add\n      0x05\n      swap1\n      sload\n      swap1\n      0x0100\n      exp\n      swap1\n      div\n      0xff\n      and\n      swap1\n      pop\n      dup6\n      jump\t// out\n        /* \"#utility.yul\":7:82   */\n    tag_35:\n        /* \"#utility.yul\":40:46   */\n      0x00\n        /* \"#utility.yul\":73:75   */\n      0x40\n        /* \"#utility.yul\":67:76   */\n      mload\n        /* \"#utility.yul\":57:76   */\n      swap1\n      pop\n        /* \"#utility.yul\":7:82   */\n      swap1\n      jump\t// out\n        /* \"#utility.yul\":88:205   */\n    tag_36:\n        /* \"#utility.yul\":197:198   */\n      0x00\n        /* \"#utility.yul\":194:195   */\n      0x00\n        /* \"#utility.yul\":187:199   */\n      revert\n        /* \"#utility.yul\":211:328   */\n    tag_37:\n        /* \"#utility.yul\":320:321   */\n      0x00\n        /* \"#utility.yul\":317:318   */\n      0x00\n        /* \"#utility.yul\":310:322   */\n      revert\n        /* \"#utility.yul\":334:451   */\n    tag_38:\n        /* \"#utility.yul\":443:444   */\n      0x00\n        /* \"#utility.yul\":440:441   */\n      0x00\n        /* \"#utility.yul\":433:445   */\n      revert\n        /* \"#utility.yul\":457:574   */\n    tag_39:\n        /* \"#utility.yul\":566:567   */\n      0x00\n        /* \"#utility.yul\":563:564   */\n      0x00\n        /* \"#utility.yul\":556:568   */\n      revert\n        /* \"#utility.yul\":580:682   */\n    tag_40:\n        /* \"#utility.yul\":621:627   */\n      0x00\n        /* \"#utility.yul\":672:674   */\n      0x1f\n        /* \"#utility.yul\":668:675   */\n      not\n        /* \"#utility.yul\":663:665   */\n      0x1f\n        /* \"#utility.yul\":656:661   */\n      dup4\n        /* \"#utility.yul\":652:666   */\n      add\n        /* \"#utility.yul\":648:676   */\n      and\n        /* \"#utility.yul\":638:676   */\n      swap1\n      pop\n        /* \"#utility.yul\":580:682   */\n      swap2\n      swap1\n      pop\n      jump\t// out\n        /* \"#utility.yul\":688:868   */\n    tag_41:\n        /* \"#utility.yul\":736:813   */\n      0x4e487b7100000000000000000000000000000000000000000000000000000000\n        /* \"#utility.yul\":733:734   */\n      0x00\n        /* \"#utility.yul\":726:814   */\n      mstore\n        /* \"#utility.yul\":833:837   */\n      0x41\n        /* \"#utility.yul\":830:831   */\n      0x04\n        /* \"#utility.yul\":823:838   */\n      mstore\n        /* \"#utility.yul\":857:861   */\n      0x24\n        /* \"#utility.yul\":854:855   */\n      0x00\n        /* \"#utility.yul\":847:862   */\n      revert\n        /* \"#utility.yul\":874:1155   */\n    tag_42:\n        /* \"#utility.yul\":957:984   */\n      tag_93\n        /* \"#utility.yul\":979:983   */\n      dup3\n        /* \"#utility.yul\":957:984   */\n      tag_40\n      jump\t// in\n    tag_93:\n        /* \"#utility.yul\":949:955   */\n      dup2\n        /* \"#utility.yul\":945:985   */\n      add\n        /* \"#utility.yul\":1087:1093   */\n      dup2\n        /* \"#utility.yul\":1075:1085   */\n      dup2\n        /* \"#utility.yul\":1072:1094   */\n      lt\n        /* \"#utility.yul\":1051:1069   */\n      0xffffffffffffffff\n        /* \"#utility.yul\":1039:1049   */\n      dup3\n        /* \"#utility.yul\":1036:1070   */\n      gt\n        /* \"#utility.yul\":1033:1095   */\n      or\n        /* \"#utility.yul\":1030:1118   */\n      iszero\n      tag_94\n      jumpi\n        /* \"#utility.yul\":1098:1116   */\n      tag_95\n      tag_41\n      jump\t// in\n    tag_95:\n        /* \"#utility.yul\":1030:1118   */\n    tag_94:\n        /* \"#utility.yul\":1138:1148   */\n      dup1\n        /* \"#utility.yul\":1134:1136   */\n      0x40\n        /* \"#utility.yul\":1127:1149   */\n      mstore\n        /* \"#utility.yul\":917:1155   */\n      pop\n        /* \"#utility.yul\":874:1155   */\n      pop\n      pop\n      jump\t// out\n        /* \"#utility.yul\":1161:1290   */\n    tag_43:\n        /* \"#utility.yul\":1195:1201   */\n      0x00\n        /* \"#utility.yul\":1222:1242   */\n      tag_97\n      tag_35\n      jump\t// in\n    tag_97:\n        /* \"#utility.yul\":1212:1242   */\n      swap1\n      pop\n        /* \"#utility.yul\":1251:1284   */\n      tag_98\n        /* \"#utility.yul\":1279:1283   */\n      dup3\n        /* \"#utility.yul\":1271:1277   */\n      dup3\n        /* \"#utility.yul\":1251:1284   */\n      tag_42\n      jump\t// in\n    tag_98:\n        /* \"#utility.yul\":1161:1290   */\n      swap2\n      swap1\n      pop\n      jump\t// out\n        /* \"#utility.yul\":1296:1604   */\n    tag_44:\n        /* \"#utility.yul\":1358:1362   */\n      0x00\n        /* \"#utility.yul\":1448:1466   */\n      0xffffffffffffffff\n        /* \"#utility.yul\":1440:1446   */\n      dup3\n        /* \"#utility.yul\":1437:1467   */\n      gt\n        /* \"#utility.yul\":1434:1490   */\n      iszero\n      tag_100\n      jumpi\n        /* \"#utility.yul\":1470:1488   */\n      tag_101\n      tag_41\n      jump\t// in\n    tag_101:\n        /* \"#utility.yul\":1434:1490   */\n    tag_100:\n        /* \"#utility.yul\":1508:1537   */\n      tag_102\n        /* \"#utility.yul\":1530:1536   */\n      dup3\n        /* \"#utility.yul\":1508:1537   */\n      tag_40\n      jump\t// in\n    tag_102:\n        /* \"#utility.yul\":1500:1537   */\n      swap1\n      pop\n        /* \"#utility.yul\":1592:1596   */\n      0x20\n        /* \"#utility.yul\":1586:1590   */\n      dup2\n        /* \"#utility.yul\":1582:1597   */\n      add\n        /* \"#utility.yul\":1574:1597   */\n      swap1\n      pop\n        /* \"#utility.yul\":1296:1604   */\n      swap2\n      swap1\n      pop\n      jump\t// out\n        /* \"#utility.yul\":1610:1758   */\n    tag_45:\n        /* \"#utility.yul\":1708:1714   */\n      dup3\n        /* \"#utility.yul\":1703:1706   */\n      dup2\n        /* \"#utility.yul\":1698:1701   */\n      dup4\n        /* \"#utility.yul\":1685:1715   */\n      calldatacopy\n        /* \"#utility.yul\":1749:1750   */\n      0x00\n        /* \"#utility.yul\":1740:1746   */\n      dup4\n        /* \"#utility.yul\":1735:1738   */\n      dup4\n        /* \"#utility.yul\":1731:1747   */\n      add\n        /* \"#utility.yul\":1724:1751   */\n      mstore\n        /* \"#utility.yul\":1610:1758   */\n      pop\n      pop\n      pop\n      jump\t// out\n        /* \"#utility.yul\":1764:2189   */\n    tag_46:\n        /* \"#utility.yul\":1842:1847   */\n      0x00\n        /* \"#utility.yul\":1867:1933   */\n      tag_105\n        /* \"#utility.yul\":1883:1932   */\n      tag_106\n        /* \"#utility.yul\":1925:1931   */\n      dup5\n        /* \"#utility.yul\":1883:1932   */\n      tag_44\n      jump\t// in\n    tag_106:\n        /* \"#utility.yul\":1867:1933   */\n      tag_43\n      jump\t// in\n    tag_105:\n        /* \"#utility.yul\":1858:1933   */\n      swap1\n      pop\n        /* \"#utility.yul\":1956:1962   */\n      dup3\n        /* \"#utility.yul\":1949:1954   */\n      dup2\n        /* \"#utility.yul\":1942:1963   */\n      mstore\n        /* \"#utility.yul\":1994:1998   */\n      0x20\n        /* \"#utility.yul\":1987:1992   */\n      dup2\n        /* \"#utility.yul\":1983:1999   */\n      add\n        /* \"#utility.yul\":2032:2035   */\n      dup5\n        /* \"#utility.yul\":2023:2029   */\n      dup5\n        /* \"#utility.yul\":2018:2021   */\n      dup5\n        /* \"#utility.yul\":2014:2030   */\n      add\n        /* \"#utility.yul\":2011:2036   */\n      gt\n        /* \"#utility.yul\":2008:2120   */\n      iszero\n      tag_107\n      jumpi\n        /* \"#utility.yul\":2039:2118   */\n      tag_108\n      tag_39\n      jump\t// in\n    tag_108:\n        /* \"#utility.yul\":2008:2120   */\n    tag_107:\n        /* \"#utility.yul\":2129:2183   */\n      tag_109\n        /* \"#utility.yul\":2176:2182   */\n      dup5\n        /* \"#utility.yul\":2171:2174   */\n      dup3\n        /* \"#utility.yul\":2166:2169   */\n      dup6\n        /* \"#utility.yul\":2129:2183   */\n      tag_45\n      jump\t// in\n    tag_109:\n        /* \"#utility.yul\":1848:2189   */\n      pop\n        /* \"#utility.yul\":1764:2189   */\n      swap4\n      swap3\n      pop\n      pop\n      pop\n      jump\t// out\n        /* \"#utility.yul\":2209:2549   */\n    tag_47:\n        /* \"#utility.yul\":2265:2270   */\n      0x00\n        /* \"#utility.yul\":2314:2317   */\n      dup3\n        /* \"#utility.yul\":2307:2311   */\n      0x1f\n        /* \"#utility.yul\":2299:2305   */\n      dup4\n        /* \"#utility.yul\":2295:2312   */\n      add\n        /* \"#utility.yul\":2291:2318   */\n      slt\n        /* \"#utility.yul\":2281:2403   */\n      tag_111\n      jumpi\n        /* \"#utility.yul\":2322:2401   */\n      tag_112\n      tag_38\n      jump\t// in\n    tag_112:\n        /* \"#utility.yul\":2281:2403   */\n    tag_111:\n        /* \"#utility.yul\":2439:2445   */\n      dup2\n        /* \"#utility.yul\":2426:2446   */\n      calldataload\n        /* \"#utility.yul\":2464:2543   */\n      tag_113\n        /* \"#utility.yul\":2539:2542   */\n      dup5\n        /* \"#utility.yul\":2531:2537   */\n      dup3\n        /* \"#utility.yul\":2524:2528   */\n      0x20\n        /* \"#utility.yul\":2516:2522   */\n      dup7\n        /* \"#utility.yul\":2512:2529   */\n      add\n        /* \"#utility.yul\":2464:2543   */\n      tag_46\n      jump\t// in\n    tag_113:\n        /* \"#utility.yul\":2455:2543   */\n      swap2\n      pop\n        /* \"#utility.yul\":2271:2549   */\n      pop\n        /* \"#utility.yul\":2209:2549   */\n      swap3\n      swap2\n      pop\n      pop\n      jump\t// out\n        /* \"#utility.yul\":2555:2641   */\n    tag_48:\n        /* \"#utility.yul\":2590:2597   */\n      0x00\n        /* \"#utility.yul\":2630:2634   */\n      0xff\n        /* \"#utility.yul\":2623:2628   */\n      dup3\n        /* \"#utility.yul\":2619:2635   */\n      and\n        /* \"#utility.yul\":2608:2635   */\n      swap1\n      pop\n        /* \"#utility.yul\":2555:2641   */\n      swap2\n      swap1\n      pop\n      jump\t// out\n        /* \"#utility.yul\":2647:2765   */\n    tag_49:\n        /* \"#utility.yul\":2718:2740   */\n      tag_116\n        /* \"#utility.yul\":2734:2739   */\n      dup2\n        /* \"#utility.yul\":2718:2740   */\n      tag_48\n      jump\t// in\n    tag_116:\n        /* \"#utility.yul\":2711:2716   */\n      dup2\n        /* \"#utility.yul\":2708:2741   */\n      eq\n        /* \"#utility.yul\":2698:2759   */\n      tag_117\n      jumpi\n        /* \"#utility.yul\":2755:2756   */\n      0x00\n        /* \"#utility.yul\":2752:2753   */\n      0x00\n        /* \"#utility.yul\":2745:2757   */\n      revert\n        /* \"#utility.yul\":2698:2759   */\n    tag_117:\n        /* \"#utility.yul\":2647:2765   */\n      pop\n      jump\t// out\n        /* \"#utility.yul\":2771:2906   */\n    tag_50:\n        /* \"#utility.yul\":2815:2820   */\n      0x00\n        /* \"#utility.yul\":2853:2859   */\n      dup2\n        /* \"#utility.yul\":2840:2860   */\n      calldataload\n        /* \"#utility.yul\":2831:2860   */\n      swap1\n      pop\n        /* \"#utility.yul\":2869:2900   */\n      tag_119\n        /* \"#utility.yul\":2894:2899   */\n      dup2\n        /* \"#utility.yul\":2869:2900   */\n      tag_49\n      jump\t// in\n    tag_119:\n        /* \"#utility.yul\":2771:2906   */\n      swap3\n      swap2\n      pop\n      pop\n      jump\t// out\n        /* \"#utility.yul\":2912:3005   */\n    tag_51:\n        /* \"#utility.yul\":2948:2955   */\n      0x00\n        /* \"#utility.yul\":2988:2998   */\n      0xffffffff\n        /* \"#utility.yul\":2981:2986   */\n      dup3\n        /* \"#utility.yul\":2977:2999   */\n      and\n        /* \"#utility.yul\":2966:2999   */\n      swap1\n      pop\n        /* \"#utility.yul\":2912:3005   */\n      swap2\n      swap1\n      pop\n      jump\t// out\n        /* \"#utility.yul\":3011:3131   */\n    tag_52:\n        /* \"#utility.yul\":3083:3106   */\n      tag_122\n        /* \"#utility.yul\":3100:3105   */\n      dup2\n        /* \"#utility.yul\":3083:3106   */\n      tag_51\n      jump\t// in\n    tag_122:\n        /* \"#utility.yul\":3076:3081   */\n      dup2\n        /* \"#utility.yul\":3073:3107   */\n      eq\n        /* \"#utility.yul\":3063:3125   */\n      tag_123\n      jumpi\n        /* \"#utility.yul\":3121:3122   */\n      0x00\n        /* \"#utility.yul\":3118:3119   */\n      0x00\n        /* \"#utility.yul\":3111:3123   */\n      revert\n        /* \"#utility.yul\":3063:3125   */\n    tag_123:\n        /* \"#utility.yul\":3011:3131   */\n      pop\n      jump\t// out\n        /* \"#utility.yul\":3137:3274   */\n    tag_53:\n        /* \"#utility.yul\":3182:3187   */\n      0x00\n        /* \"#utility.yul\":3220:3226   */\n      dup2\n        /* \"#utility.yul\":3207:3227   */\n      calldataload\n        /* \"#utility.yul\":3198:3227   */\n      swap1\n      pop\n        /* \"#utility.yul\":3236:3268   */\n      tag_125\n        /* \"#utility.yul\":3262:3267   */\n      dup2\n        /* \"#utility.yul\":3236:3268   */\n      tag_52\n      jump\t// in\n    tag_125:\n        /* \"#utility.yul\":3137:3274   */\n      swap3\n      swap2\n      pop\n      pop\n      jump\t// out\n        /* \"#utility.yul\":3280:3370   */\n    tag_54:\n        /* \"#utility.yul\":3314:3321   */\n      0x00\n        /* \"#utility.yul\":3357:3362   */\n      dup2\n        /* \"#utility.yul\":3350:3363   */\n      iszero\n        /* \"#utility.yul\":3343:3364   */\n      iszero\n        /* \"#utility.yul\":3332:3364   */\n      swap1\n      pop\n        /* \"#utility.yul\":3280:3370   */\n      swap2\n      swap1\n      pop\n      jump\t// out\n        /* \"#utility.yul\":3376:3492   */\n    tag_55:\n        /* \"#utility.yul\":3446:3467   */\n      tag_128\n        /* \"#utility.yul\":3461:3466   */\n      dup2\n        /* \"#utility.yul\":3446:3467   */\n      tag_54\n      jump\t// in\n    tag_128:\n        /* \"#utility.yul\":3439:3444   */\n      dup2\n        /* \"#utility.yul\":3436:3468   */\n      eq\n        /* \"#utility.yul\":3426:3486   */\n      tag_129\n      jumpi\n        /* \"#utility.yul\":3482:3483   */\n      0x00\n        /* \"#utility.yul\":3479:3480   */\n      0x00\n        /* \"#utility.yul\":3472:3484   */\n      revert\n        /* \"#utility.yul\":3426:3486   */\n    tag_129:\n        /* \"#utility.yul\":3376:3492   */\n      pop\n      jump\t// out\n        /* \"#utility.yul\":3498:3631   */\n    tag_56:\n        /* \"#utility.yul\":3541:3546   */\n      0x00\n        /* \"#utility.yul\":3579:3585   */\n      dup2\n        /* \"#utility.yul\":3566:3586   */\n      calldataload\n        /* \"#utility.yul\":3557:3586   */\n      swap1\n      pop\n        /* \"#utility.yul\":3595:3625   */\n      tag_131\n        /* \"#utility.yul\":3619:3624   */\n      dup2\n        /* \"#utility.yul\":3595:3625   */\n      tag_55\n      jump\t// in\n    tag_131:\n        /* \"#utility.yul\":3498:3631   */\n      swap3\n      swap2\n      pop\n      pop\n      jump\t// out\n        /* \"#utility.yul\":3637:4896   */\n    tag_7:\n        /* \"#utility.yul\":3746:3752   */\n      0x00\n        /* \"#utility.yul\":3754:3760   */\n      0x00\n        /* \"#utility.yul\":3762:3768   */\n      0x00\n        /* \"#utility.yul\":3770:3776   */\n      0x00\n        /* \"#utility.yul\":3778:3784   */\n      0x00\n        /* \"#utility.yul\":3827:3830   */\n      0xa0\n        /* \"#utility.yul\":3815:3824   */\n      dup7\n        /* \"#utility.yul\":3806:3813   */\n      dup9\n        /* \"#utility.yul\":3802:3825   */\n      sub\n        /* \"#utility.yul\":3798:3831   */\n      slt\n        /* \"#utility.yul\":3795:3915   */\n      iszero\n      tag_133\n      jumpi\n        /* \"#utility.yul\":3834:3913   */\n      tag_134\n      tag_36\n      jump\t// in\n    tag_134:\n        /* \"#utility.yul\":3795:3915   */\n    tag_133:\n        /* \"#utility.yul\":3982:3983   */\n      0x00\n        /* \"#utility.yul\":3971:3980   */\n      dup7\n        /* \"#utility.yul\":3967:3984   */\n      add\n        /* \"#utility.yul\":3954:3985   */\n      calldataload\n        /* \"#utility.yul\":4012:4030   */\n      0xffffffffffffffff\n        /* \"#utility.yul\":4004:4010   */\n      dup2\n        /* \"#utility.yul\":4001:4031   */\n      gt\n        /* \"#utility.yul\":3998:4115   */\n      iszero\n      tag_135\n      jumpi\n        /* \"#utility.yul\":4034:4113   */\n      tag_136\n      tag_37\n      jump\t// in\n    tag_136:\n        /* \"#utility.yul\":3998:4115   */\n    tag_135:\n        /* \"#utility.yul\":4139:4202   */\n      tag_137\n        /* \"#utility.yul\":4194:4201   */\n      dup9\n        /* \"#utility.yul\":4185:4191   */\n      dup3\n        /* \"#utility.yul\":4174:4183   */\n      dup10\n        /* \"#utility.yul\":4170:4192   */\n      add\n        /* \"#utility.yul\":4139:4202   */\n      tag_47\n      jump\t// in\n    tag_137:\n        /* \"#utility.yul\":4129:4202   */\n      swap6\n      pop\n        /* \"#utility.yul\":3925:4212   */\n      pop\n        /* \"#utility.yul\":4279:4281   */\n      0x20\n        /* \"#utility.yul\":4268:4277   */\n      dup7\n        /* \"#utility.yul\":4264:4282   */\n      add\n        /* \"#utility.yul\":4251:4283   */\n      calldataload\n        /* \"#utility.yul\":4310:4328   */\n      0xffffffffffffffff\n        /* \"#utility.yul\":4302:4308   */\n      dup2\n        /* \"#utility.yul\":4299:4329   */\n      gt\n        /* \"#utility.yul\":4296:4413   */\n      iszero\n      tag_138\n      jumpi\n        /* \"#utility.yul\":4332:4411   */\n      tag_139\n      tag_37\n      jump\t// in\n    tag_139:\n        /* \"#utility.yul\":4296:4413   */\n    tag_138:\n        /* \"#utility.yul\":4437:4500   */\n      tag_140\n        /* \"#utility.yul\":4492:4499   */\n      dup9\n        /* \"#utility.yul\":4483:4489   */\n      dup3\n        /* \"#utility.yul\":4472:4481   */\n      dup10\n        /* \"#utility.yul\":4468:4490   */\n      add\n        /* \"#utility.yul\":4437:4500   */\n      tag_47\n      jump\t// in\n    tag_140:\n        /* \"#utility.yul\":4427:4500   */\n      swap5\n      pop\n        /* \"#utility.yul\":4222:4510   */\n      pop\n        /* \"#utility.yul\":4549:4551   */\n      0x40\n        /* \"#utility.yul\":4575:4626   */\n      tag_141\n        /* \"#utility.yul\":4618:4625   */\n      dup9\n        /* \"#utility.yul\":4609:4615   */\n      dup3\n        /* \"#utility.yul\":4598:4607   */\n      dup10\n        /* \"#utility.yul\":4594:4616   */\n      add\n        /* \"#utility.yul\":4575:4626   */\n      tag_50\n      jump\t// in\n    tag_141:\n        /* \"#utility.yul\":4565:4626   */\n      swap4\n      pop\n        /* \"#utility.yul\":4520:4636   */\n      pop\n        /* \"#utility.yul\":4675:4677   */\n      0x60\n        /* \"#utility.yul\":4701:4753   */\n      tag_142\n        /* \"#utility.yul\":4745:4752   */\n      dup9\n        /* \"#utility.yul\":4736:4742   */\n      dup3\n        /* \"#utility.yul\":4725:4734   */\n      dup10\n        /* \"#utility.yul\":4721:4743   */\n      add\n        /* \"#utility.yul\":4701:4753   */\n      tag_53\n      jump\t// in\n    tag_142:\n        /* \"#utility.yul\":4691:4753   */\n      swap3\n      pop\n        /* \"#utility.yul\":4646:4763   */\n      pop\n        /* \"#utility.yul\":4802:4805   */\n      0x80\n        /* \"#utility.yul\":4829:4879   */\n      tag_143\n        /* \"#utility.yul\":4871:4878   */\n      dup9\n        /* \"#utility.yul\":4862:4868   */\n      dup3\n        /* \"#utility.yul\":4851:4860   */\n      dup10\n        /* \"#utility.yul\":4847:4869   */\n      add\n        /* \"#utility.yul\":4829:4879   */\n      tag_56\n      jump\t// in\n    tag_143:\n        /* \"#utility.yul\":4819:4879   */\n      swap2\n      pop\n        /* \"#utility.yul\":4773:4889   */\n      pop\n        /* \"#utility.yul\":3637:4896   */\n      swap3\n      swap6\n      pop\n      swap3\n      swap6\n      swap1\n      swap4\n      pop\n      jump\t// out\n        /* \"#utility.yul\":4902:4979   */\n    tag_57:\n        /* \"#utility.yul\":4939:4946   */\n      0x00\n        /* \"#utility.yul\":4968:4973   */\n      dup2\n        /* \"#utility.yul\":4957:4973   */\n      swap1\n      pop\n        /* \"#utility.yul\":4902:4979   */\n      swap2\n      swap1\n      pop\n      jump\t// out\n        /* \"#utility.yul\":4985:5107   */\n    tag_58:\n        /* \"#utility.yul\":5058:5082   */\n      tag_146\n        /* \"#utility.yul\":5076:5081   */\n      dup2\n        /* \"#utility.yul\":5058:5082   */\n      tag_57\n      jump\t// in\n    tag_146:\n        /* \"#utility.yul\":5051:5056   */\n      dup2\n        /* \"#utility.yul\":5048:5083   */\n      eq\n        /* \"#utility.yul\":5038:5101   */\n      tag_147\n      jumpi\n        /* \"#utility.yul\":5097:5098   */\n      0x00\n        /* \"#utility.yul\":5094:5095   */\n      0x00\n        /* \"#utility.yul\":5087:5099   */\n      revert\n        /* \"#utility.yul\":5038:5101   */\n    tag_147:\n        /* \"#utility.yul\":4985:5107   */\n      pop\n      jump\t// out\n        /* \"#utility.yul\":5113:5252   */\n    tag_59:\n        /* \"#utility.yul\":5159:5164   */\n      0x00\n        /* \"#utility.yul\":5197:5203   */\n      dup2\n        /* \"#utility.yul\":5184:5204   */\n      calldataload\n        /* \"#utility.yul\":5175:5204   */\n      swap1\n      pop\n        /* \"#utility.yul\":5213:5246   */\n      tag_149\n        /* \"#utility.yul\":5240:5245   */\n      dup2\n        /* \"#utility.yul\":5213:5246   */\n      tag_58\n      jump\t// in\n    tag_149:\n        /* \"#utility.yul\":5113:5252   */\n      swap3\n      swap2\n      pop\n      pop\n      jump\t// out\n        /* \"#utility.yul\":5258:5587   */\n    tag_11:\n        /* \"#utility.yul\":5317:5323   */\n      0x00\n        /* \"#utility.yul\":5366:5368   */\n      0x20\n        /* \"#utility.yul\":5354:5363   */\n      dup3\n        /* \"#utility.yul\":5345:5352   */\n      dup5\n        /* \"#utility.yul\":5341:5364   */\n      sub\n        /* \"#utility.yul\":5337:5369   */\n      slt\n        /* \"#utility.yul\":5334:5453   */\n      iszero\n      tag_151\n      jumpi\n        /* \"#utility.yul\":5372:5451   */\n      tag_152\n      tag_36\n      jump\t// in\n    tag_152:\n        /* \"#utility.yul\":5334:5453   */\n    tag_151:\n        /* \"#utility.yul\":5492:5493   */\n      0x00\n        /* \"#utility.yul\":5517:5570   */\n      tag_153\n        /* \"#utility.yul\":5562:5569   */\n      dup5\n        /* \"#utility.yul\":5553:5559   */\n      dup3\n        /* \"#utility.yul\":5542:5551   */\n      dup6\n        /* \"#utility.yul\":5538:5560   */\n      add\n        /* \"#utility.yul\":5517:5570   */\n      tag_59\n      jump\t// in\n    tag_153:\n        /* \"#utility.yul\":5507:5570   */\n      swap2\n      pop\n        /* \"#utility.yul\":5463:5580   */\n      pop\n        /* \"#utility.yul\":5258:5587   */\n      swap3\n      swap2\n      pop\n      pop\n      jump\t// out\n        /* \"#utility.yul\":5593:5692   */\n    tag_60:\n        /* \"#utility.yul\":5645:5651   */\n      0x00\n        /* \"#utility.yul\":5679:5684   */\n      dup2\n        /* \"#utility.yul\":5673:5685   */\n      mload\n        /* \"#utility.yul\":5663:5685   */\n      swap1\n      pop\n        /* \"#utility.yul\":5593:5692   */\n      swap2\n      swap1\n      pop\n      jump\t// out\n        /* \"#utility.yul\":5698:5867   */\n    tag_61:\n        /* \"#utility.yul\":5782:5793   */\n      0x00\n        /* \"#utility.yul\":5816:5822   */\n      dup3\n        /* \"#utility.yul\":5811:5814   */\n      dup3\n        /* \"#utility.yul\":5804:5823   */\n      mstore\n        /* \"#utility.yul\":5856:5860   */\n      0x20\n        /* \"#utility.yul\":5851:5854   */\n      dup3\n        /* \"#utility.yul\":5847:5861   */\n      add\n        /* \"#utility.yul\":5832:5861   */\n      swap1\n      pop\n        /* \"#utility.yul\":5698:5867   */\n      swap3\n      swap2\n      pop\n      pop\n      jump\t// out\n        /* \"#utility.yul\":5873:6012   */\n    tag_62:\n        /* \"#utility.yul\":5962:5968   */\n      dup3\n        /* \"#utility.yul\":5957:5960   */\n      dup2\n        /* \"#utility.yul\":5952:5955   */\n      dup4\n        /* \"#utility.yul\":5946:5969   */\n      mcopy\n        /* \"#utility.yul\":6003:6004   */\n      0x00\n        /* \"#utility.yul\":5994:6000   */\n      dup4\n        /* \"#utility.yul\":5989:5992   */\n      dup4\n        /* \"#utility.yul\":5985:6001   */\n      add\n        /* \"#utility.yul\":5978:6005   */\n      mstore\n        /* \"#utility.yul\":5873:6012   */\n      pop\n      pop\n      pop\n      jump\t// out\n        /* \"#utility.yul\":6018:6395   */\n    tag_63:\n        /* \"#utility.yul\":6106:6109   */\n      0x00\n        /* \"#utility.yul\":6134:6173   */\n      tag_158\n        /* \"#utility.yul\":6167:6172   */\n      dup3\n        /* \"#utility.yul\":6134:6173   */\n      tag_60\n      jump\t// in\n    tag_158:\n        /* \"#utility.yul\":6189:6260   */\n      tag_159\n        /* \"#utility.yul\":6253:6259   */\n      dup2\n        /* \"#utility.yul\":6248:6251   */\n      dup6\n        /* \"#utility.yul\":6189:6260   */\n      tag_61\n      jump\t// in\n    tag_159:\n        /* \"#utility.yul\":6182:6260   */\n      swap4\n      pop\n        /* \"#utility.yul\":6269:6334   */\n      tag_160\n        /* \"#utility.yul\":6327:6333   */\n      dup2\n        /* \"#utility.yul\":6322:6325   */\n      dup6\n        /* \"#utility.yul\":6315:6319   */\n      0x20\n        /* \"#utility.yul\":6308:6313   */\n      dup7\n        /* \"#utility.yul\":6304:6320   */\n      add\n        /* \"#utility.yul\":6269:6334   */\n      tag_62\n      jump\t// in\n    tag_160:\n        /* \"#utility.yul\":6359:6388   */\n      tag_161\n        /* \"#utility.yul\":6381:6387   */\n      dup2\n        /* \"#utility.yul\":6359:6388   */\n      tag_40\n      jump\t// in\n    tag_161:\n        /* \"#utility.yul\":6354:6357   */\n      dup5\n        /* \"#utility.yul\":6350:6389   */\n      add\n        /* \"#utility.yul\":6343:6389   */\n      swap2\n      pop\n        /* \"#utility.yul\":6110:6395   */\n      pop\n        /* \"#utility.yul\":6018:6395   */\n      swap3\n      swap2\n      pop\n      pop\n      jump\t// out\n        /* \"#utility.yul\":6401:6513   */\n    tag_64:\n        /* \"#utility.yul\":6484:6506   */\n      tag_163\n        /* \"#utility.yul\":6500:6505   */\n      dup2\n        /* \"#utility.yul\":6484:6506   */\n      tag_48\n      jump\t// in\n    tag_163:\n        /* \"#utility.yul\":6479:6482   */\n      dup3\n        /* \"#utility.yul\":6472:6507   */\n      mstore\n        /* \"#utility.yul\":6401:6513   */\n      pop\n      pop\n      jump\t// out\n        /* \"#utility.yul\":6519:6634   */\n    tag_65:\n        /* \"#utility.yul\":6604:6627   */\n      tag_165\n        /* \"#utility.yul\":6621:6626   */\n      dup2\n        /* \"#utility.yul\":6604:6627   */\n      tag_51\n      jump\t// in\n    tag_165:\n        /* \"#utility.yul\":6599:6602   */\n      dup3\n        /* \"#utility.yul\":6592:6628   */\n      mstore\n        /* \"#utility.yul\":6519:6634   */\n      pop\n      pop\n      jump\t// out\n        /* \"#utility.yul\":6640:6749   */\n    tag_66:\n        /* \"#utility.yul\":6721:6742   */\n      tag_167\n        /* \"#utility.yul\":6736:6741   */\n      dup2\n        /* \"#utility.yul\":6721:6742   */\n      tag_54\n      jump\t// in\n    tag_167:\n        /* \"#utility.yul\":6716:6719   */\n      dup3\n        /* \"#utility.yul\":6709:6743   */\n      mstore\n        /* \"#utility.yul\":6640:6749   */\n      pop\n      pop\n      jump\t// out\n        /* \"#utility.yul\":6755:7577   */\n    tag_14:\n        /* \"#utility.yul\":6988:6992   */\n      0x00\n        /* \"#utility.yul\":7026:7029   */\n      0xa0\n        /* \"#utility.yul\":7015:7024   */\n      dup3\n        /* \"#utility.yul\":7011:7030   */\n      add\n        /* \"#utility.yul\":7003:7030   */\n      swap1\n      pop\n        /* \"#utility.yul\":7076:7085   */\n      dup2\n        /* \"#utility.yul\":7070:7074   */\n      dup2\n        /* \"#utility.yul\":7066:7086   */\n      sub\n        /* \"#utility.yul\":7062:7063   */\n      0x00\n        /* \"#utility.yul\":7051:7060   */\n      dup4\n        /* \"#utility.yul\":7047:7064   */\n      add\n        /* \"#utility.yul\":7040:7087   */\n      mstore\n        /* \"#utility.yul\":7104:7182   */\n      tag_169\n        /* \"#utility.yul\":7177:7181   */\n      dup2\n        /* \"#utility.yul\":7168:7174   */\n      dup9\n        /* \"#utility.yul\":7104:7182   */\n      tag_63\n      jump\t// in\n    tag_169:\n        /* \"#utility.yul\":7096:7182   */\n      swap1\n      pop\n        /* \"#utility.yul\":7229:7238   */\n      dup2\n        /* \"#utility.yul\":7223:7227   */\n      dup2\n        /* \"#utility.yul\":7219:7239   */\n      sub\n        /* \"#utility.yul\":7214:7216   */\n      0x20\n        /* \"#utility.yul\":7203:7212   */\n      dup4\n        /* \"#utility.yul\":7199:7217   */\n      add\n        /* \"#utility.yul\":7192:7240   */\n      mstore\n        /* \"#utility.yul\":7257:7335   */\n      tag_170\n        /* \"#utility.yul\":7330:7334   */\n      dup2\n        /* \"#utility.yul\":7321:7327   */\n      dup8\n        /* \"#utility.yul\":7257:7335   */\n      tag_63\n      jump\t// in\n    tag_170:\n        /* \"#utility.yul\":7249:7335   */\n      swap1\n      pop\n        /* \"#utility.yul\":7345:7413   */\n      tag_171\n        /* \"#utility.yul\":7409:7411   */\n      0x40\n        /* \"#utility.yul\":7398:7407   */\n      dup4\n        /* \"#utility.yul\":7394:7412   */\n      add\n        /* \"#utility.yul\":7385:7391   */\n      dup7\n        /* \"#utility.yul\":7345:7413   */\n      tag_64\n      jump\t// in\n    tag_171:\n        /* \"#utility.yul\":7423:7493   */\n      tag_172\n        /* \"#utility.yul\":7489:7491   */\n      0x60\n        /* \"#utility.yul\":7478:7487   */\n      dup4\n        /* \"#utility.yul\":7474:7492   */\n      add\n        /* \"#utility.yul\":7465:7471   */\n      dup6\n        /* \"#utility.yul\":7423:7493   */\n      tag_65\n      jump\t// in\n    tag_172:\n        /* \"#utility.yul\":7503:7570   */\n      tag_173\n        /* \"#utility.yul\":7565:7568   */\n      0x80\n        /* \"#utility.yul\":7554:7563   */\n      dup4\n        /* \"#utility.yul\":7550:7569   */\n      add\n        /* \"#utility.yul\":7541:7547   */\n      dup5\n        /* \"#utility.yul\":7503:7570   */\n      tag_66\n      jump\t// in\n    tag_173:\n        /* \"#utility.yul\":6755:7577   */\n      swap7\n      swap6\n      pop\n      pop\n      pop\n      pop\n      pop\n      pop\n      jump\t// out\n        /* \"#utility.yul\":7583:7763   */\n    tag_67:\n        /* \"#utility.yul\":7631:7708   */\n      0x4e487b7100000000000000000000000000000000000000000000000000000000\n        /* \"#utility.yul\":7628:7629   */\n      0x00\n        /* \"#utility.yul\":7621:7709   */\n      mstore\n        /* \"#utility.yul\":7728:7732   */\n      0x22\n        /* \"#utility.yul\":7725:7726   */\n      0x04\n        /* \"#utility.yul\":7718:7733   */\n      mstore\n        /* \"#utility.yul\":7752:7756   */\n      0x24\n        /* \"#utility.yul\":7749:7750   */\n      0x00\n        /* \"#utility.yul\":7742:7757   */\n      revert\n        /* \"#utility.yul\":7769:8089   */\n    tag_25:\n        /* \"#utility.yul\":7813:7819   */\n      0x00\n        /* \"#utility.yul\":7850:7851   */\n      0x02\n        /* \"#utility.yul\":7844:7848   */\n      dup3\n        /* \"#utility.yul\":7840:7852   */\n      div\n        /* \"#utility.yul\":7830:7852   */\n      swap1\n      pop\n        /* \"#utility.yul\":7897:7898   */\n      0x01\n        /* \"#utility.yul\":7891:7895   */\n      dup3\n        /* \"#utility.yul\":7887:7899   */\n      and\n        /* \"#utility.yul\":7918:7936   */\n      dup1\n        /* \"#utility.yul\":7908:7989   */\n      tag_176\n      jumpi\n        /* \"#utility.yul\":7974:7978   */\n      0x7f\n        /* \"#utility.yul\":7966:7972   */\n      dup3\n        /* \"#utility.yul\":7962:7979   */\n      and\n        /* \"#utility.yul\":7952:7979   */\n      swap2\n      pop\n        /* \"#utility.yul\":7908:7989   */\n    tag_176:\n        /* \"#utility.yul\":8036:8038   */\n      0x20\n        /* \"#utility.yul\":8028:8034   */\n      dup3\n        /* \"#utility.yul\":8025:8039   */\n      lt\n        /* \"#utility.yul\":8005:8023   */\n      dup2\n        /* \"#utility.yul\":8002:8040   */\n      sub\n        /* \"#utility.yul\":7999:8083   */\n      tag_177\n      jumpi\n        /* \"#utility.yul\":8055:8073   */\n      tag_178\n      tag_67\n      jump\t// in\n    tag_178:\n        /* \"#utility.yul\":7999:8083   */\n    tag_177:\n        /* \"#utility.yul\":7820:8089   */\n      pop\n        /* \"#utility.yul\":7769:8089   */\n      swap2\n      swap1\n      pop\n      jump\t// out\n        /* \"#utility.yul\":8095:8236   */\n    tag_68:\n        /* \"#utility.yul\":8144:8148   */\n      0x00\n        /* \"#utility.yul\":8167:8170   */\n      dup2\n        /* \"#utility.yul\":8159:8170   */\n      swap1\n      pop\n        /* \"#utility.yul\":8190:8193   */\n      dup2\n        /* \"#utility.yul\":8187:8188   */\n      0x00\n        /* \"#utility.yul\":8180:8194   */\n      mstore\n        /* \"#utility.yul\":8224:8228   */\n      0x20\n        /* \"#utility.yul\":8221:8222   */\n      0x00\n        /* \"#utility.yul\":8211:8229   */\n      keccak256\n        /* \"#utility.yul\":8203:8229   */\n      swap1\n      pop\n        /* \"#utility.yul\":8095:8236   */\n      swap2\n      swap1\n      pop\n      jump\t// out\n        /* \"#utility.yul\":8242:8335   */\n    tag_69:\n        /* \"#utility.yul\":8279:8285   */\n      0x00\n        /* \"#utility.yul\":8326:8328   */\n      0x20\n        /* \"#utility.yul\":8321:8323   */\n      0x1f\n        /* \"#utility.yul\":8314:8319   */\n      dup4\n        /* \"#utility.yul\":8310:8324   */\n      add\n        /* \"#utility.yul\":8306:8329   */\n      div\n        /* \"#utility.yul\":8296:8329   */\n      swap1\n      pop\n        /* \"#utility.yul\":8242:8335   */\n      swap2\n      swap1\n      pop\n      jump\t// out\n        /* \"#utility.yul\":8341:8448   */\n    tag_70:\n        /* \"#utility.yul\":8385:8393   */\n      0x00\n        /* \"#utility.yul\":8435:8440   */\n      dup3\n        /* \"#utility.yul\":8429:8433   */\n      dup3\n        /* \"#utility.yul\":8425:8441   */\n      shl\n        /* \"#utility.yul\":8404:8441   */\n      swap1\n      pop\n        /* \"#utility.yul\":8341:8448   */\n      swap3\n      swap2\n      pop\n      pop\n      jump\t// out\n        /* \"#utility.yul\":8454:8847   */\n    tag_71:\n        /* \"#utility.yul\":8523:8529   */\n      0x00\n        /* \"#utility.yul\":8573:8574   */\n      0x08\n        /* \"#utility.yul\":8561:8571   */\n      dup4\n        /* \"#utility.yul\":8557:8575   */\n      mul\n        /* \"#utility.yul\":8596:8693   */\n      tag_183\n        /* \"#utility.yul\":8626:8692   */\n      0xffffffffffffffffffffffffffffffffffffffffffffffffffffffffffffffff\n        /* \"#utility.yul\":8615:8624   */\n      dup3\n        /* \"#utility.yul\":8596:8693   */\n      tag_70\n      jump\t// in\n    tag_183:\n        /* \"#utility.yul\":8714:8753   */\n      tag_184\n        /* \"#utility.yul\":8744:8752   */\n      dup7\n        /* \"#utility.yul\":8733:8742   */\n      dup4\n        /* \"#utility.yul\":8714:8753   */\n      tag_70\n      jump\t// in\n    tag_184:\n        /* \"#utility.yul\":8702:8753   */\n      swap6\n      pop\n        /* \"#utility.yul\":8786:8790   */\n      dup1\n        /* \"#utility.yul\":8782:8791   */\n      not\n        /* \"#utility.yul\":8775:8780   */\n      dup5\n        /* \"#utility.yul\":8771:8792   */\n      and\n        /* \"#utility.yul\":8762:8792   */\n      swap4\n      pop\n        /* \"#utility.yul\":8835:8839   */\n      dup1\n        /* \"#utility.yul\":8825:8833   */\n      dup7\n        /* \"#utility.yul\":8821:8840   */\n      and\n        /* \"#utility.yul\":8814:8819   */\n      dup5\n        /* \"#utility.yul\":8811:8841   */\n      or\n        /* \"#utility.yul\":8801:8841   */\n      swap3\n      pop\n        /* \"#utility.yul\":8530:8847   */\n      pop\n      pop\n        /* \"#utility.yul\":8454:8847   */\n      swap4\n      swap3\n      pop\n      pop\n      pop\n      jump\t// out\n        /* \"#utility.yul\":8853:8913   */\n    tag_72:\n        /* \"#utility.yul\":8881:8884   */\n      0x00\n        /* \"#utility.yul\":8902:8907   */\n      dup2\n        /* \"#utility.yul\":8895:8907   */\n      swap1\n      pop\n        /* \"#utility.yul\":8853:8913   */\n      swap2\n      swap1\n      pop\n      jump\t// out\n        /* \"#utility.yul\":8919:9061   */\n    tag_73:\n        /* \"#utility.yul\":8969:8978   */\n      0x00\n        /* \"#utility.yul\":9002:9055   */\n      tag_187\n        /* \"#utility.yul\":9020:9054   */\n      tag_188\n        /* \"#utility.yul\":9029:9053   */\n      tag_189\n        /* \"#utility.yul\":9047:9052   */\n      dup5\n        /* \"#utility.yul\":9029:9053   */\n      tag_57\n      jump\t// in\n    tag_189:\n        /* \"#utility.yul\":9020:9054   */\n      tag_72\n      jump\t// in\n    tag_188:\n        /* \"#utility.yul\":9002:9055   */\n      tag_57\n      jump\t// in\n    tag_187:\n        /* \"#utility.yul\":8989:9055   */\n      swap1\n      pop\n        /* \"#utility.yul\":8919:9061   */\n      swap2\n      swap1\n      pop\n      jump\t// out\n        /* \"#utility.yul\":9067:9142   */\n    tag_74:\n        /* \"#utility.yul\":9110:9113   */\n      0x00\n        /* \"#utility.yul\":9131:9136   */\n      dup2\n        /* \"#utility.yul\":9124:9136   */\n      swap1\n      pop\n        /* \"#utility.yul\":9067:9142   */\n      swap2\n      swap1\n      pop\n      jump\t// out\n        /* \"#utility.yul\":9148:9417   */\n    tag_75:\n        /* \"#utility.yul\":9258:9297   */\n      tag_192\n        /* \"#utility.yul\":9289:9296   */\n      dup4\n        /* \"#utility.yul\":9258:9297   */\n      tag_73\n      jump\t// in\n    tag_192:\n        /* \"#utility.yul\":9319:9410   */\n      tag_193\n        /* \"#utility.yul\":9368:9409   */\n      tag_194\n        /* \"#utility.yul\":9392:9408   */\n      dup3\n        /* \"#utility.yul\":9368:9409   */\n      tag_74\n      jump\t// in\n    tag_194:\n        /* \"#utility.yul\":9360:9366   */\n      dup5\n        /* \"#utility.yul\":9353:9357   */\n      dup5\n        /* \"#utility.yul\":9347:9358   */\n      sload\n        /* \"#utility.yul\":9319:9410   */\n      tag_71\n      jump\t// in\n    tag_193:\n        /* \"#utility.yul\":9313:9317   */\n      dup3\n        /* \"#utility.yul\":9306:9411   */\n      sstore\n        /* \"#utility.yul\":9224:9417   */\n      pop\n        /* \"#utility.yul\":9148:9417   */\n      pop\n      pop\n      pop\n      jump\t// out\n        /* \"#utility.yul\":9423:9496   */\n    tag_76:\n        /* \"#utility.yul\":9468:9471   */\n      0x00\n        /* \"#utility.yul\":9489:9490   */\n      0x00\n        /* \"#utility.yul\":9482:9490   */\n      swap1\n      pop\n        /* \"#utility.yul\":9423:9496   */\n      swap1\n      jump\t// out\n        /* \"#utility.yul\":9502:9691   */\n    tag_77:\n        /* \"#utility.yul\":9579:9611   */\n      tag_197\n      tag_76\n      jump\t// in\n    tag_197:\n        /* \"#utility.yul\":9620:9685   */\n      tag_198\n        /* \"#utility.yul\":9678:9684   */\n      dup2\n        /* \"#utility.yul\":9670:9676   */\n      dup5\n        /* \"#utility.yul\":9664:9668   */\n      dup5\n        /* \"#utility.yul\":9620:9685   */\n      tag_75\n      jump\t// in\n    tag_198:\n        /* \"#utility.yul\":9555:9691   */\n      pop\n        /* \"#utility.yul\":9502:9691   */\n      pop\n      pop\n      jump\t// out\n        /* \"#utility.yul\":9697:9883   */\n    tag_78:\n        /* \"#utility.yul\":9757:9877   */\n    tag_200:\n        /* \"#utility.yul\":9774:9777   */\n      dup2\n        /* \"#utility.yul\":9767:9772   */\n      dup2\n        /* \"#utility.yul\":9764:9778   */\n      lt\n        /* \"#utility.yul\":9757:9877   */\n      iszero\n      tag_202\n      jumpi\n        /* \"#utility.yul\":9828:9867   */\n      tag_203\n        /* \"#utility.yul\":9865:9866   */\n      0x00\n        /* \"#utility.yul\":9858:9863   */\n      dup3\n        /* \"#utility.yul\":9828:9867   */\n      tag_77\n      jump\t// in\n    tag_203:\n        /* \"#utility.yul\":9801:9802   */\n      0x01\n        /* \"#utility.yul\":9794:9799   */\n      dup2\n        /* \"#utility.yul\":9790:9803   */\n      add\n        /* \"#utility.yul\":9781:9803   */\n      swap1\n      pop\n        /* \"#utility.yul\":9757:9877   */\n      jump(tag_200)\n    tag_202:\n        /* \"#utility.yul\":9697:9883   */\n      pop\n      pop\n      jump\t// out\n        /* \"#utility.yul\":9889:10432   */\n    tag_79:\n        /* \"#utility.yul\":9990:9992   */\n      0x1f\n        /* \"#utility.yul\":9985:9988   */\n      dup3\n        /* \"#utility.yul\":9982:9993   */\n      gt\n        /* \"#utility.yul\":9979:10425   */\n      iszero\n      tag_205\n      jumpi\n        /* \"#utility.yul\":10024:10062   */\n      tag_206\n        /* \"#utility.yul\":10056:10061   */\n      dup2\n        /* \"#utility.yul\":10024:10062   */\n      tag_68\n      jump\t// in\n    tag_206:\n        /* \"#utility.yul\":10108:10137   */\n      tag_207\n        /* \"#utility.yul\":10126:10136   */\n      dup5\n        /* \"#utility.yul\":10108:10137   */\n      tag_69\n      jump\t// in\n    tag_207:\n        /* \"#utility.yul\":10098:10106   */\n      dup2\n        /* \"#utility.yul\":10094:10138   */\n      add\n        /* \"#utility.yul\":10291:10293   */\n      0x20\n        /* \"#utility.yul\":10279:10289   */\n      dup6\n        /* \"#utility.yul\":10276:10294   */\n      lt\n        /* \"#utility.yul\":10273:10322   */\n      iszero\n      tag_208\n      jumpi\n        /* \"#utility.yul\":10312:10320   */\n      dup2\n        /* \"#utility.yul\":10297:10320   */\n      swap1\n      pop\n        /* \"#utility.yul\":10273:10322   */\n    tag_208:\n        /* \"#utility.yul\":10335:10415   */\n      tag_209\n        /* \"#utility.yul\":10391:10413   */\n      tag_210\n        /* \"#utility.yul\":10409:10412   */\n      dup6\n        /* \"#utility.yul\":10391:10413   */\n      tag_69\n      jump\t// in\n    tag_210:\n        /* \"#utility.yul\":10381:10389   */\n      dup4\n        /* \"#utility.yul\":10377:10414   */\n      add\n        /* \"#utility.yul\":10364:10375   */\n      dup3\n        /* \"#utility.yul\":10335:10415   */\n      tag_78\n      jump\t// in\n    tag_209:\n        /* \"#utility.yul\":9994:10425   */\n      pop\n      pop\n        /* \"#utility.yul\":9979:10425   */\n    tag_205:\n        /* \"#utility.yul\":9889:10432   */\n      pop\n      pop\n      pop\n      jump\t// out\n        /* \"#utility.yul\":10438:10555   */\n    tag_80:\n        /* \"#utility.yul\":10492:10500   */\n      0x00\n        /* \"#utility.yul\":10542:10547   */\n      dup3\n        /* \"#utility.yul\":10536:10540   */\n      dup3\n        /* \"#utility.yul\":10532:10548   */\n      shr\n        /* \"#utility.yul\":10511:10548   */\n      swap1\n      pop\n        /* \"#utility.yul\":10438:10555   */\n      swap3\n      swap2\n      pop\n      pop\n      jump\t// out\n        /* \"#utility.yul\":10561:10730   */\n    tag_81:\n        /* \"#utility.yul\":10605:10611   */\n      0x00\n        /* \"#utility.yul\":10638:10689   */\n      tag_213\n        /* \"#utility.yul\":10686:10687   */\n      0x00\n        /* \"#utility.yul\":10682:10688   */\n      not\n        /* \"#utility.yul\":10674:10679   */\n      dup5\n        /* \"#utility.yul\":10671:10672   */\n      0x08\n        /* \"#utility.yul\":10667:10680   */\n      mul\n        /* \"#utility.yul\":10638:10689   */\n      tag_80\n      jump\t// in\n    tag_213:\n        /* \"#utility.yul\":10634:10690   */\n      not\n        /* \"#utility.yul\":10719:10723   */\n      dup1\n        /* \"#utility.yul\":10713:10717   */\n      dup4\n        /* \"#utility.yul\":10709:10724   */\n      and\n        /* \"#utility.yul\":10699:10724   */\n      swap2\n      pop\n        /* \"#utility.yul\":10612:10730   */\n      pop\n        /* \"#utility.yul\":10561:10730   */\n      swap3\n      swap2\n      pop\n      pop\n      jump\t// out\n        /* \"#utility.yul\":10735:11030   */\n    tag_82:\n        /* \"#utility.yul\":10811:10815   */\n      0x00\n        /* \"#utility.yul\":10957:10986   */\n      tag_215\n        /* \"#utility.yul\":10982:10985   */\n      dup4\n        /* \"#utility.yul\":10976:10980   */\n      dup4\n        /* \"#utility.yul\":10957:10986   */\n      tag_81\n      jump\t// in\n    tag_215:\n        /* \"#utility.yul\":10949:10986   */\n      swap2\n      pop\n        /* \"#utility.yul\":11019:11022   */\n      dup3\n        /* \"#utility.yul\":11016:11017   */\n      0x02\n        /* \"#utility.yul\":11012:11023   */\n      mul\n        /* \"#utility.yul\":11006:11010   */\n      dup3\n        /* \"#utility.yul\":11003:11024   */\n      or\n        /* \"#utility.yul\":10995:11024   */\n      swap1\n      pop\n        /* \"#utility.yul\":10735:11030   */\n      swap3\n      swap2\n      pop\n      pop\n      jump\t// out\n        /* \"#utility.yul\":11035:12430   */\n    tag_18:\n        /* \"#utility.yul\":11152:11189   */\n      tag_217\n        /* \"#utility.yul\":11185:11188   */\n      dup3\n        /* \"#utility.yul\":11152:11189   */\n      tag_60\n      jump\t// in\n    tag_217:\n        /* \"#utility.yul\":11254:11272   */\n      0xffffffffffffffff\n        /* \"#utility.yul\":11246:11252   */\n      dup2\n        /* \"#utility.yul\":11243:11273   */\n      gt\n        /* \"#utility.yul\":11240:11296   */\n      iszero\n      tag_218\n      jumpi\n        /* \"#utility.yul\":11276:11294   */\n      tag_219\n      tag_41\n      jump\t// in\n    tag_219:\n        /* \"#utility.yul\":11240:11296   */\n    tag_218:\n        /* \"#utility.yul\":11320:11358   */\n      tag_220\n        /* \"#utility.yul\":11352:11356   */\n      dup3\n        /* \"#utility.yul\":11346:11357   */\n      sload\n        /* \"#utility.yul\":11320:11358   */\n      tag_25\n      jump\t// in\n    tag_220:\n        /* \"#utility.yul\":11405:11472   */\n      tag_221\n        /* \"#utility.yul\":11465:11471   */\n      dup3\n        /* \"#utility.yul\":11457:11463   */\n      dup3\n        /* \"#utility.yul\":11451:11455   */\n      dup6\n        /* \"#utility.yul\":11405:11472   */\n      tag_79\n      jump\t// in\n    tag_221:\n        /* \"#utility.yul\":11499:11500   */\n      0x00\n        /* \"#utility.yul\":11523:11527   */\n      0x20\n        /* \"#utility.yul\":11510:11527   */\n      swap1\n      pop\n        /* \"#utility.yul\":11555:11557   */\n      0x1f\n        /* \"#utility.yul\":11547:11553   */\n      dup4\n        /* \"#utility.yul\":11544:11558   */\n      gt\n        /* \"#utility.yul\":11572:11573   */\n      0x01\n        /* \"#utility.yul\":11567:12185   */\n      dup2\n      eq\n      tag_223\n      jumpi\n        /* \"#utility.yul\":12229:12230   */\n      0x00\n        /* \"#utility.yul\":12246:12252   */\n      dup5\n        /* \"#utility.yul\":12243:12320   */\n      iszero\n      tag_224\n      jumpi\n        /* \"#utility.yul\":12295:12304   */\n      dup3\n        /* \"#utility.yul\":12290:12293   */\n      dup8\n        /* \"#utility.yul\":12286:12305   */\n      add\n        /* \"#utility.yul\":12280:12306   */\n      mload\n        /* \"#utility.yul\":12271:12306   */\n      swap1\n      pop\n        /* \"#utility.yul\":12243:12320   */\n    tag_224:\n        /* \"#utility.yul\":12346:12413   */\n      tag_225\n        /* \"#utility.yul\":12406:12412   */\n      dup6\n        /* \"#utility.yul\":12399:12404   */\n      dup3\n        /* \"#utility.yul\":12346:12413   */\n      tag_82\n      jump\t// in\n    tag_225:\n        /* \"#utility.yul\":12340:12344   */\n      dup7\n        /* \"#utility.yul\":12333:12414   */\n      sstore\n        /* \"#utility.yul\":12202:12424   */\n      pop\n        /* \"#utility.yul\":11537:12424   */\n      jump(tag_222)\n        /* \"#utility.yul\":11567:12185   */\n    tag_223:\n        /* \"#utility.yul\":11619:11623   */\n      0x1f\n        /* \"#utility.yul\":11615:11624   */\n      not\n        /* \"#utility.yul\":11607:11613   */\n      dup5\n        /* \"#utility.yul\":11603:11625   */\n      and\n        /* \"#utility.yul\":11653:11690   */\n      tag_226\n        /* \"#utility.yul\":11685:11689   */\n      dup7\n        /* \"#utility.yul\":11653:11690   */\n      tag_68\n      jump\t// in\n    tag_226:\n        /* \"#utility.yul\":11712:11713   */\n      0x00\n        /* \"#utility.yul\":11726:11934   */\n    tag_227:\n        /* \"#utility.yul\":11740:11747   */\n      dup3\n        /* \"#utility.yul\":11737:11738   */\n      dup2\n        /* \"#utility.yul\":11734:11748   */\n      lt\n        /* \"#utility.yul\":11726:11934   */\n      iszero\n      tag_229\n      jumpi\n        /* \"#utility.yul\":11819:11828   */\n      dup5\n        /* \"#utility.yul\":11814:11817   */\n      dup10\n        /* \"#utility.yul\":11810:11829   */\n      add\n        /* \"#utility.yul\":11804:11830   */\n      mload\n        /* \"#utility.yul\":11796:11802   */\n      dup3\n        /* \"#utility.yul\":11789:11831   */\n      sstore\n        /* \"#utility.yul\":11870:11871   */\n      0x01\n        /* \"#utility.yul\":11862:11868   */\n      dup3\n        /* \"#utility.yul\":11858:11872   */\n      add\n        /* \"#utility.yul\":11848:11872   */\n      swap2\n      pop\n        /* \"#utility.yul\":11917:11919   */\n      0x20\n        /* \"#utility.yul\":11906:11915   */\n      dup6\n        /* \"#utility.yul\":11902:11920   */\n      add\n        /* \"#utility.yul\":11889:11920   */\n      swap5\n      pop\n        /* \"#utility.yul\":11763:11767   */\n      0x20\n        /* \"#utility.yul\":11760:11761   */\n      dup2\n        /* \"#utility.yul\":11756:11768   */\n      add\n        /* \"#utility.yul\":11751:11768   */\n      swap1\n      pop\n        /* \"#utility.yul\":11726:11934   */\n      jump(tag_227)\n    tag_229:\n        /* \"#utility.yul\":11962:11968   */\n      dup7\n        /* \"#utility.yul\":11953:11960   */\n      dup4\n        /* \"#utility.yul\":11950:11969   */\n      lt\n        /* \"#utility.yul\":11947:12126   */\n      iszero\n      tag_230\n      jumpi\n        /* \"#utility.yul\":12020:12029   */\n      dup5\n        /* \"#utility.yul\":12015:12018   */\n      dup10\n        /* \"#utility.yul\":12011:12030   */\n      add\n        /* \"#utility.yul\":12005:12031   */\n      mload\n        /* \"#utility.yul\":12063:12111   */\n      tag_231\n        /* \"#utility.yul\":12105:12109   */\n      0x1f\n        /* \"#utility.yul\":12097:12103   */\n      dup10\n        /* \"#utility.yul\":12093:12110   */\n      and\n        /* \"#utility.yul\":12082:12091   */\n      dup3\n        /* \"#utility.yul\":12063:12111   */\n      tag_81\n      jump\t// in\n    tag_231:\n        /* \"#utility.yul\":12055:12061   */\n      dup4\n        /* \"#utility.yul\":12048:12112   */\n      sstore\n        /* \"#utility.yul\":11970:12126   */\n      pop\n        /* \"#utility.yul\":11947:12126   */\n    tag_230:\n        /* \"#utility.yul\":12172:12173   */\n      0x01\n        /* \"#utility.yul\":12168:12169   */\n      0x02\n        /* \"#utility.yul\":12160:12166   */\n      dup9\n        /* \"#utility.yul\":12156:12170   */\n      mul\n        /* \"#utility.yul\":12152:12174   */\n      add\n        /* \"#utility.yul\":12146:12150   */\n      dup9\n        /* \"#utility.yul\":12139:12175   */\n      sstore\n        /* \"#utility.yul\":11574:12185   */\n      pop\n      pop\n      pop\n        /* \"#utility.yul\":11537:12424   */\n    tag_222:\n      pop\n        /* \"#utility.yul\":11127:12430   */\n      pop\n      pop\n      pop\n        /* \"#utility.yul\":11035:12430   */\n      pop\n      pop\n      jump\t// out\n        /* \"#utility.yul\":12436:12616   */\n    tag_83:\n        /* \"#utility.yul\":12484:12561   */\n      0x4e487b7100000000000000000000000000000000000000000000000000000000\n        /* \"#utility.yul\":12481:12482   */\n      0x00\n        /* \"#utility.yul\":12474:12562   */\n      mstore\n        /* \"#utility.yul\":12581:12585   */\n      0x11\n        /* \"#utility.yul\":12578:12579   */\n      0x04\n        /* \"#utility.yul\":12571:12586   */\n      mstore\n        /* \"#utility.yul\":12605:12609   */\n      0x24\n        /* \"#utility.yul\":12602:12603   */\n      0x00\n        /* \"#utility.yul\":12595:12610   */\n      revert\n        /* \"#utility.yul\":12622:12816   */\n    tag_21:\n        /* \"#utility.yul\":12662:12666   */\n      0x00\n        /* \"#utility.yul\":12682:12702   */\n      tag_234\n        /* \"#utility.yul\":12700:12701   */\n      dup3\n        /* \"#utility.yul\":12682:12702   */\n      tag_57\n      jump\t// in\n    tag_234:\n        /* \"#utility.yul\":12677:12702   */\n      swap2\n      pop\n        /* \"#utility.yul\":12716:12736   */\n      tag_235\n        /* \"#utility.yul\":12734:12735   */\n      dup4\n        /* \"#utility.yul\":12716:12736   */\n      tag_57\n      jump\t// in\n    tag_235:\n        /* \"#utility.yul\":12711:12736   */\n      swap3\n      pop\n        /* \"#utility.yul\":12760:12761   */\n      dup3\n        /* \"#utility.yul\":12757:12758   */\n      dup3\n        /* \"#utility.yul\":12753:12762   */\n      sub\n        /* \"#utility.yul\":12745:12762   */\n      swap1\n      pop\n        /* \"#utility.yul\":12784:12785   */\n      dup2\n        /* \"#utility.yul\":12778:12782   */\n      dup2\n        /* \"#utility.yul\":12775:12786   */\n      gt\n        /* \"#utility.yul\":12772:12809   */\n      iszero\n      tag_236\n      jumpi\n        /* \"#utility.yul\":12789:12807   */\n      tag_237\n      tag_83\n      jump\t// in\n    tag_237:\n        /* \"#utility.yul\":12772:12809   */\n    tag_236:\n        /* \"#utility.yul\":12622:12816   */\n      swap3\n      swap2\n      pop\n      pop\n      jump\t// out\n\n    auxdata: 0xa2646970667358221220eba411517cb76f02fccd62c4427bd55edc72f018d9d440f51f29f83d6be9831164736f6c634300081e0033\n}\n",
				"bytecode": {
					"linkReferences": {},
					"object": "6080604052348015600e575f5ffd5b50610a518061001c5f395ff3fe608060405234801561000f575f5ffd5b5060043610610034575f3560e01c8063211042b8146100385780632a1c52a514610054575b5f5ffd5b610052600480360381019061004d91906104f6565b610088565b005b61006e600480360381019061006991906105d8565b610190565b60405161007f959493929190610690565b60405180910390f35b5f6040518060a001604052808781526020018681526020018560ff1681526020018463ffffffff168152602001831515815250908060018154018082558091505060019003905f5260205f2090600302015f909190919091505f820151815f0190816100f491906108ec565b50602082015181600101908161010a91906108ec565b506040820151816002015f6101000a81548160ff021916908360ff16021790555060608201518160020160016101000a81548163ffffffff021916908363ffffffff16021790555060808201518160020160056101000a81548160ff02191690831515021790555050505f60015f8054905061018691906109e8565b9050505050505050565b5f818154811061019e575f80fd5b905f5260205f2090600302015f91509050805f0180546101bd9061071c565b80601f01602080910402602001604051908101604052809291908181526020018280546101e99061071c565b80156102345780601f1061020b57610100808354040283529160200191610234565b820191905f5260205f20905b81548152906001019060200180831161021757829003601f168201915b5050505050908060010180546102499061071c565b80601f01602080910402602001604051908101604052809291908181526020018280546102759061071c565b80156102c05780601f10610297576101008083540402835291602001916102c0565b820191905f5260205f20905b8154815290600101906020018083116102a357829003601f168201915b505050505090806002015f9054906101000a900460ff16908060020160019054906101000a900463ffffffff16908060020160059054906101000a900460ff16905085565b5f604051905090565b5f5ffd5b5f5ffd5b5f5ffd5b5f5ffd5b5f601f19601f8301169050919050565b7f4e487b71000000000000000000000000000000000000000000000000000000005f52604160045260245ffd5b6103648261031e565b810181811067ffffffffffffffff821117156103835761038261032e565b5b80604052505050565b5f610395610305565b90506103a1828261035b565b919050565b5f67ffffffffffffffff8211156103c0576103bf61032e565b5b6103c98261031e565b9050602081019050919050565b828183375f83830152505050565b5f6103f66103f1846103a6565b61038c565b9050828152602081018484840111156104125761041161031a565b5b61041d8482856103d6565b509392505050565b5f82601f83011261043957610438610316565b5b81356104498482602086016103e4565b91505092915050565b5f60ff82169050919050565b61046781610452565b8114610471575f5ffd5b50565b5f813590506104828161045e565b92915050565b5f63ffffffff82169050919050565b6104a081610488565b81146104aa575f5ffd5b50565b5f813590506104bb81610497565b92915050565b5f8115159050919050565b6104d5816104c1565b81146104df575f5ffd5b50565b5f813590506104f0816104cc565b92915050565b5f5f5f5f5f60a0868803121561050f5761050e61030e565b5b5f86013567ffffffffffffffff81111561052c5761052b610312565b5b61053888828901610425565b955050602086013567ffffffffffffffff81111561055957610558610312565b5b61056588828901610425565b945050604061057688828901610474565b9350506060610587888289016104ad565b9250506080610598888289016104e2565b9150509295509295909350565b5f819050919050565b6105b7816105a5565b81146105c1575f5ffd5b50565b5f813590506105d2816105ae565b92915050565b5f602082840312156105ed576105ec61030e565b5b5f6105fa848285016105c4565b91505092915050565b5f81519050919050565b5f82825260208201905092915050565b8281835e5f83830152505050565b5f61063582610603565b61063f818561060d565b935061064f81856020860161061d565b6106588161031e565b840191505092915050565b61066c81610452565b82525050565b61067b81610488565b82525050565b61068a816104c1565b82525050565b5f60a0820190508181035f8301526106a8818861062b565b905081810360208301526106bc818761062b565b90506106cb6040830186610663565b6106d86060830185610672565b6106e56080830184610681565b9695505050505050565b7f4e487b71000000000000000000000000000000000000000000000000000000005f52602260045260245ffd5b5f600282049050600182168061073357607f821691505b602082108103610746576107456106ef565b5b50919050565b5f819050815f5260205f209050919050565b5f6020601f8301049050919050565b5f82821b905092915050565b5f600883026107a87fffffffffffffffffffffffffffffffffffffffffffffffffffffffffffffffff8261076d565b6107b2868361076d565b95508019841693508086168417925050509392505050565b5f819050919050565b5f6107ed6107e86107e3846105a5565b6107ca565b6105a5565b9050919050565b5f819050919050565b610806836107d3565b61081a610812826107f4565b848454610779565b825550505050565b5f5f905090565b610831610822565b61083c8184846107fd565b505050565b5b8181101561085f576108545f82610829565b600181019050610842565b5050565b601f8211156108a4576108758161074c565b61087e8461075e565b8101602085101561088d578190505b6108a16108998561075e565b830182610841565b50505b505050565b5f82821c905092915050565b5f6108c45f19846008026108a9565b1980831691505092915050565b5f6108dc83836108b5565b9150826002028217905092915050565b6108f582610603565b67ffffffffffffffff81111561090e5761090d61032e565b5b610918825461071c565b610923828285610863565b5f60209050601f831160018114610954575f8415610942578287015190505b61094c85826108d1565b8655506109b3565b601f1984166109628661074c565b5f5b8281101561098957848901518255600182019150602085019450602081019050610964565b868310156109a657848901516109a2601f8916826108b5565b8355505b6001600288020188555050505b505050505050565b7f4e487b71000000000000000000000000000000000000000000000000000000005f52601160045260245ffd5b5f6109f2826105a5565b91506109fd836105a5565b9250828203905081811115610a1557610a146109bb565b5b9291505056fea2646970667358221220eba411517cb76f02fccd62c4427bd55edc72f018d9d440f51f29f83d6be9831164736f6c634300081e0033",
					"opcodes": "PUSH1 0x80 PUSH1 0x40 MSTORE CALLVALUE DUP1 ISZERO PUSH1 0xE JUMPI PUSH0 PUSH0 REVERT JUMPDEST POP PUSH2 0xA51 DUP1 PUSH2 0x1C PUSH0 CODECOPY PUSH0 RETURN INVALID PUSH1 0x80 PUSH1 0x40 MSTORE CALLVALUE DUP1 ISZERO PUSH2 0xF JUMPI PUSH0 PUSH0 REVERT JUMPDEST POP PUSH1 0x4 CALLDATASIZE LT PUSH2 0x34 JUMPI PUSH0 CALLDATALOAD PUSH1 0xE0 SHR DUP1 PUSH4 0x211042B8 EQ PUSH2 0x38 JUMPI DUP1 PUSH4 0x2A1C52A5 EQ PUSH2 0x54 JUMPI JUMPDEST PUSH0 PUSH0 REVERT JUMPDEST PUSH2 0x52 PUSH1 0x4 DUP1 CALLDATASIZE SUB DUP2 ADD SWAP1 PUSH2 0x4D SWAP2 SWAP1 PUSH2 0x4F6 JUMP JUMPDEST PUSH2 0x88 JUMP JUMPDEST STOP JUMPDEST PUSH2 0x6E PUSH1 0x4 DUP1 CALLDATASIZE SUB DUP2 ADD SWAP1 PUSH2 0x69 SWAP2 SWAP1 PUSH2 0x5D8 JUMP JUMPDEST PUSH2 0x190 JUMP JUMPDEST PUSH1 0x40 MLOAD PUSH2 0x7F SWAP6 SWAP5 SWAP4 SWAP3 SWAP2 SWAP1 PUSH2 0x690 JUMP JUMPDEST PUSH1 0x40 MLOAD DUP1 SWAP2 SUB SWAP1 RETURN JUMPDEST PUSH0 PUSH1 0x40 MLOAD DUP1 PUSH1 0xA0 ADD PUSH1 0x40 MSTORE DUP1 DUP8 DUP2 MSTORE PUSH1 0x20 ADD DUP7 DUP2 MSTORE PUSH1 0x20 ADD DUP6 PUSH1 0xFF AND DUP2 MSTORE PUSH1 0x20 ADD DUP5 PUSH4 0xFFFFFFFF AND DUP2 MSTORE PUSH1 0x20 ADD DUP4 ISZERO ISZERO DUP2 MSTORE POP SWAP1 DUP1 PUSH1 0x1 DUP2 SLOAD ADD DUP1 DUP3 SSTORE DUP1 SWAP2 POP POP PUSH1 0x1 SWAP1 SUB SWAP1 PUSH0 MSTORE PUSH1 0x20 PUSH0 KECCAK256 SWAP1 PUSH1 0x3 MUL ADD PUSH0 SWAP1 SWAP2 SWAP1 SWAP2 SWAP1 SWAP2 POP PUSH0 DUP3 ADD MLOAD DUP2 PUSH0 ADD SWAP1 DUP2 PUSH2 0xF4 SWAP2 SWAP1 PUSH2 0x8EC JUMP JUMPDEST POP PUSH1 0x20 DUP3 ADD MLOAD DUP2 PUSH1 0x1 ADD SWAP1 DUP2 PUSH2 0x10A SWAP2 SWAP1 PUSH2 0x8EC JUMP JUMPDEST POP PUSH1 0x40 DUP3 ADD MLOAD DUP2 PUSH1 0x2 ADD PUSH0 PUSH2 0x100 EXP DUP2 SLOAD DUP2 PUSH1 0xFF MUL NOT AND SWAP1 DUP4 PUSH1 0xFF AND MUL OR SWAP1 SSTORE POP PUSH1 0x60 DUP3 ADD MLOAD DUP2 PUSH1 0x2 ADD PUSH1 0x1 PUSH2 0x100 EXP DUP2 SLOAD DUP2 PUSH4 0xFFFFFFFF MUL NOT AND SWAP1 DUP4 PUSH4 0xFFFFFFFF AND MUL OR SWAP1 SSTORE POP PUSH1 0x80 DUP3 ADD MLOAD DUP2 PUSH1 0x2 ADD PUSH1 0x5 PUSH2 0x100 EXP DUP2 SLOAD DUP2 PUSH1 0xFF MUL NOT AND SWAP1 DUP4 ISZERO ISZERO MUL OR SWAP1 SSTORE POP POP POP PUSH0 PUSH1 0x1 PUSH0 DUP1 SLOAD SWAP1 POP PUSH2 0x186 SWAP2 SWAP1 PUSH2 0x9E8 JUMP JUMPDEST SWAP1 POP POP POP POP POP POP POP JUMP JUMPDEST PUSH0 DUP2 DUP2 SLOAD DUP2 LT PUSH2 0x19E JUMPI PUSH0 DUP1 REVERT JUMPDEST SWAP1 PUSH0 MSTORE PUSH1 0x20 PUSH0 KECCAK256 SWAP1 PUSH1 0x3 MUL ADD PUSH0 SWAP2 POP SWAP1 POP DUP1 PUSH0 ADD DUP1 SLOAD PUSH2 0x1BD SWAP1 PUSH2 0x71C JUMP JUMPDEST DUP1 PUSH1 0x1F ADD PUSH1 0x20 DUP1 SWAP2 DIV MUL PUSH1 0x20 ADD PUSH1 0x40 MLOAD SWAP1 DUP2 ADD PUSH1 0x40 MSTORE DUP1 SWAP3 SWAP2 SWAP1 DUP2 DUP2 MSTORE PUSH1 0x20 ADD DUP3 DUP1 SLOAD PUSH2 0x1E9 SWAP1 PUSH2 0x71C JUMP JUMPDEST DUP1 ISZERO PUSH2 0x234 JUMPI DUP1 PUSH1 0x1F LT PUSH2 0x20B JUMPI PUSH2 0x100 DUP1 DUP4 SLOAD DIV MUL DUP4 MSTORE SWAP2 PUSH1 0x20 ADD SWAP2 PUSH2 0x234 JUMP JUMPDEST DUP3 ADD SWAP2 SWAP1 PUSH0 MSTORE PUSH1 0x20 PUSH0 KECCAK256 SWAP1 JUMPDEST DUP2 SLOAD DUP2 MSTORE SWAP1 PUSH1 0x1 ADD SWAP1 PUSH1 0x20 ADD DUP1 DUP4 GT PUSH2 0x217 JUMPI DUP3 SWAP1 SUB PUSH1 0x1F AND DUP3 ADD SWAP2 JUMPDEST POP POP POP POP POP SWAP1 DUP1 PUSH1 0x1 ADD DUP1 SLOAD PUSH2 0x249 SWAP1 PUSH2 0x71C JUMP JUMPDEST DUP1 PUSH1 0x1F ADD PUSH1 0x20 DUP1 SWAP2 DIV MUL PUSH1 0x20 ADD PUSH1 0x40 MLOAD SWAP1 DUP2 ADD PUSH1 0x40 MSTORE DUP1 SWAP3 SWAP2 SWAP1 DUP2 DUP2 MSTORE PUSH1 0x20 ADD DUP3 DUP1 SLOAD PUSH2 0x275 SWAP1 PUSH2 0x71C JUMP JUMPDEST DUP1 ISZERO PUSH2 0x2C0 JUMPI DUP1 PUSH1 0x1F LT PUSH2 0x297 JUMPI PUSH2 0x100 DUP1 DUP4 SLOAD DIV MUL DUP4 MSTORE SWAP2 PUSH1 0x20 ADD SWAP2 PUSH2 0x2C0 JUMP JUMPDEST DUP3 ADD SWAP2 SWAP1 PUSH0 MSTORE PUSH1 0x20 PUSH0 KECCAK256 SWAP1 JUMPDEST DUP2 SLOAD DUP2 MSTORE SWAP1 PUSH1 0x1 ADD SWAP1 PUSH1 0x20 ADD DUP1 DUP4 GT PUSH2 0x2A3 JUMPI DUP3 SWAP1 SUB PUSH1 0x1F AND DUP3 ADD SWAP2 JUMPDEST POP POP POP POP POP SWAP1 DUP1 PUSH1 0x2 ADD PUSH0 SWAP1 SLOAD SWAP1 PUSH2 0x100 EXP SWAP1 DIV PUSH1 0xFF AND SWAP1 DUP1 PUSH1 0x2 ADD PUSH1 0x1 SWAP1 SLOAD SWAP1 PUSH2 0x100 EXP SWAP1 DIV PUSH4 0xFFFFFFFF AND SWAP1 DUP1 PUSH1 0x2 ADD PUSH1 0x5 SWAP1 SLOAD SWAP1 PUSH2 0x100 EXP SWAP1 DIV PUSH1 0xFF AND SWAP1 POP DUP6 JUMP JUMPDEST PUSH0 PUSH1 0x40 MLOAD SWAP1 POP SWAP1 JUMP JUMPDEST PUSH0 PUSH0 REVERT JUMPDEST PUSH0 PUSH0 REVERT JUMPDEST PUSH0 PUSH0 REVERT JUMPDEST PUSH0 PUSH0 REVERT JUMPDEST PUSH0 PUSH1 0x1F NOT PUSH1 0x1F DUP4 ADD AND SWAP1 POP SWAP2 SWAP1 POP JUMP JUMPDEST PUSH32 0x4E487B7100000000000000000000000000000000000000000000000000000000 PUSH0 MSTORE PUSH1 0x41 PUSH1 0x4 MSTORE PUSH1 0x24 PUSH0 REVERT JUMPDEST PUSH2 0x364 DUP3 PUSH2 0x31E JUMP JUMPDEST DUP2 ADD DUP2 DUP2 LT PUSH8 0xFFFFFFFFFFFFFFFF DUP3 GT OR ISZERO PUSH2 0x383 JUMPI PUSH2 0x382 PUSH2 0x32E JUMP JUMPDEST JUMPDEST DUP1 PUSH1 0x40 MSTORE POP POP POP JUMP JUMPDEST PUSH0 PUSH2 0x395 PUSH2 0x305 JUMP JUMPDEST SWAP1 POP PUSH2 0x3A1 DUP3 DUP3 PUSH2 0x35B JUMP JUMPDEST SWAP2 SWAP1 POP JUMP JUMPDEST PUSH0 PUSH8 0xFFFFFFFFFFFFFFFF DUP3 GT ISZERO PUSH2 0x3C0 JUMPI PUSH2 0x3BF PUSH2 0x32E JUMP JUMPDEST JUMPDEST PUSH2 0x3C9 DUP3 PUSH2 0x31E JUMP JUMPDEST SWAP1 POP PUSH1 0x20 DUP2 ADD SWAP1 POP SWAP2 SWAP1 POP JUMP JUMPDEST DUP3 DUP2 DUP4 CALLDATACOPY PUSH0 DUP4 DUP4 ADD MSTORE POP POP POP JUMP JUMPDEST PUSH0 PUSH2 0x3F6 PUSH2 0x3F1 DUP5 PUSH2 0x3A6 JUMP JUMPDEST PUSH2 0x38C JUMP JUMPDEST SWAP1 POP DUP3 DUP2 MSTORE PUSH1 0x20 DUP2 ADD DUP5 DUP5 DUP5 ADD GT ISZERO PUSH2 0x412 JUMPI PUSH2 0x411 PUSH2 0x31A JUMP JUMPDEST JUMPDEST PUSH2 0x41D DUP5 DUP3 DUP6 PUSH2 0x3D6 JUMP JUMPDEST POP SWAP4 SWAP3 POP POP POP JUMP JUMPDEST PUSH0 DUP3 PUSH1 0x1F DUP4 ADD SLT PUSH2 0x439 JUMPI PUSH2 0x438 PUSH2 0x316 JUMP JUMPDEST JUMPDEST DUP2 CALLDATALOAD PUSH2 0x449 DUP5 DUP3 PUSH1 0x20 DUP7 ADD PUSH2 0x3E4 JUMP JUMPDEST SWAP2 POP POP SWAP3 SWAP2 POP POP JUMP JUMPDEST PUSH0 PUSH1 0xFF DUP3 AND SWAP1 POP SWAP2 SWAP1 POP JUMP JUMPDEST PUSH2 0x467 DUP2 PUSH2 0x452 JUMP JUMPDEST DUP2 EQ PUSH2 0x471 JUMPI PUSH0 PUSH0 REVERT JUMPDEST POP JUMP JUMPDEST PUSH0 DUP2 CALLDATALOAD SWAP1 POP PUSH2 0x482 DUP2 PUSH2 0x45E JUMP JUMPDEST SWAP3 SWAP2 POP POP JUMP JUMPDEST PUSH0 PUSH4 0xFFFFFFFF DUP3 AND SWAP1 POP SWAP2 SWAP1 POP JUMP JUMPDEST PUSH2 0x4A0 DUP2 PUSH2 0x488 JUMP JUMPDEST DUP2 EQ PUSH2 0x4AA JUMPI PUSH0 PUSH0 REVERT JUMPDEST POP JUMP JUMPDEST PUSH0 DUP2 CALLDATALOAD SWAP1 POP PUSH2 0x4BB DUP2 PUSH2 0x497 JUMP JUMPDEST SWAP3 SWAP2 POP POP JUMP JUMPDEST PUSH0 DUP2 ISZERO ISZERO SWAP1 POP SWAP2 SWAP1 POP JUMP JUMPDEST PUSH2 0x4D5 DUP2 PUSH2 0x4C1 JUMP JUMPDEST DUP2 EQ PUSH2 0x4DF JUMPI PUSH0 PUSH0 REVERT JUMPDEST POP JUMP JUMPDEST PUSH0 DUP2 CALLDATALOAD SWAP1 POP PUSH2 0x4F0 DUP2 PUSH2 0x4CC JUMP JUMPDEST SWAP3 SWAP2 POP POP JUMP JUMPDEST PUSH0 PUSH0 PUSH0 PUSH0 PUSH0 PUSH1 0xA0 DUP7 DUP9 SUB SLT ISZERO PUSH2 0x50F JUMPI PUSH2 0x50E PUSH2 0x30E JUMP JUMPDEST JUMPDEST PUSH0 DUP7 ADD CALLDATALOAD PUSH8 0xFFFFFFFFFFFFFFFF DUP2 GT ISZERO PUSH2 0x52C JUMPI PUSH2 0x52B PUSH2 0x312 JUMP JUMPDEST JUMPDEST PUSH2 0x538 DUP9 DUP3 DUP10 ADD PUSH2 0x425 JUMP JUMPDEST SWAP6 POP POP PUSH1 0x20 DUP7 ADD CALLDATALOAD PUSH8 0xFFFFFFFFFFFFFFFF DUP2 GT ISZERO PUSH2 0x559 JUMPI PUSH2 0x558 PUSH2 0x312 JUMP JUMPDEST JUMPDEST PUSH2 0x565 DUP9 DUP3 DUP10 ADD PUSH2 0x425 JUMP JUMPDEST SWAP5 POP POP PUSH1 0x40 PUSH2 0x576 DUP9 DUP3 DUP10 ADD PUSH2 0x474 JUMP JUMPDEST SWAP4 POP POP PUSH1 0x60 PUSH2 0x587 DUP9 DUP3 DUP10 ADD PUSH2 0x4AD JUMP JUMPDEST SWAP3 POP POP PUSH1 0x80 PUSH2 0x598 DUP9 DUP3 DUP10 ADD PUSH2 0x4E2 JUMP JUMPDEST SWAP2 POP POP SWAP3 SWAP6 POP SWAP3 SWAP6 SWAP1 SWAP4 POP JUMP JUMPDEST PUSH0 DUP2 SWAP1 POP SWAP2 SWAP1 POP JUMP JUMPDEST PUSH2 0x5B7 DUP2 PUSH2 0x5A5 JUMP JUMPDEST DUP2 EQ PUSH2 0x5C1 JUMPI PUSH0 PUSH0 REVERT JUMPDEST POP JUMP JUMPDEST PUSH0 DUP2 CALLDATALOAD SWAP1 POP PUSH2 0x5D2 DUP2 PUSH2 0x5AE JUMP JUMPDEST SWAP3 SWAP2 POP POP JUMP JUMPDEST PUSH0 PUSH1 0x20 DUP3 DUP5 SUB SLT ISZERO PUSH2 0x5ED JUMPI PUSH2 0x5EC PUSH2 0x30E JUMP JUMPDEST JUMPDEST PUSH0 PUSH2 0x5FA DUP5 DUP3 DUP6 ADD PUSH2 0x5C4 JUMP JUMPDEST SWAP2 POP POP SWAP3 SWAP2 POP POP JUMP JUMPDEST PUSH0 DUP2 MLOAD SWAP1 POP SWAP2 SWAP1 POP JUMP JUMPDEST PUSH0 DUP3 DUP3 MSTORE PUSH1 0x20 DUP3 ADD SWAP1 POP SWAP3 SWAP2 POP POP JUMP JUMPDEST DUP3 DUP2 DUP4 MCOPY PUSH0 DUP4 DUP4 ADD MSTORE POP POP POP JUMP JUMPDEST PUSH0 PUSH2 0x635 DUP3 PUSH2 0x603 JUMP JUMPDEST PUSH2 0x63F DUP2 DUP6 PUSH2 0x60D JUMP JUMPDEST SWAP4 POP PUSH2 0x64F DUP2 DUP6 PUSH1 0x20 DUP7 ADD PUSH2 0x61D JUMP JUMPDEST PUSH2 0x658 DUP2 PUSH2 0x31E JUMP JUMPDEST DUP5 ADD SWAP2 POP POP SWAP3 SWAP2 POP POP JUMP JUMPDEST PUSH2 0x66C DUP2 PUSH2 0x452 JUMP JUMPDEST DUP3 MSTORE POP POP JUMP JUMPDEST PUSH2 0x67B DUP2 PUSH2 0x488 JUMP JUMPDEST DUP3 MSTORE POP POP JUMP JUMPDEST PUSH2 0x68A DUP2 PUSH2 0x4C1 JUMP JUMPDEST DUP3 MSTORE POP POP JUMP JUMPDEST PUSH0 PUSH1 0xA0 DUP3 ADD SWAP1 POP DUP2 DUP2 SUB PUSH0 DUP4 ADD MSTORE PUSH2 0x6A8 DUP2 DUP9 PUSH2 0x62B JUMP JUMPDEST SWAP1 POP DUP2 DUP2 SUB PUSH1 0x20 DUP4 ADD MSTORE PUSH2 0x6BC DUP2 DUP8 PUSH2 0x62B JUMP JUMPDEST SWAP1 POP PUSH2 0x6CB PUSH1 0x40 DUP4 ADD DUP7 PUSH2 0x663 JUMP JUMPDEST PUSH2 0x6D8 PUSH1 0x60 DUP4 ADD DUP6 PUSH2 0x672 JUMP JUMPDEST PUSH2 0x6E5 PUSH1 0x80 DUP4 ADD DUP5 PUSH2 0x681 JUMP JUMPDEST SWAP7 SWAP6 POP POP POP POP POP POP JUMP JUMPDEST PUSH32 0x4E487B7100000000000000000000000000000000000000000000000000000000 PUSH0 MSTORE PUSH1 0x22 PUSH1 0x4 MSTORE PUSH1 0x24 PUSH0 REVERT JUMPDEST PUSH0 PUSH1 0x2 DUP3 DIV SWAP1 POP PUSH1 0x1 DUP3 AND DUP1 PUSH2 0x733 JUMPI PUSH1 0x7F DUP3 AND SWAP2 POP JUMPDEST PUSH1 0x20 DUP3 LT DUP2 SUB PUSH2 0x746 JUMPI PUSH2 0x745 PUSH2 0x6EF JUMP JUMPDEST JUMPDEST POP SWAP2 SWAP1 POP JUMP JUMPDEST PUSH0 DUP2 SWAP1 POP DUP2 PUSH0 MSTORE PUSH1 0x20 PUSH0 KECCAK256 SWAP1 POP SWAP2 SWAP1 POP JUMP JUMPDEST PUSH0 PUSH1 0x20 PUSH1 0x1F DUP4 ADD DIV SWAP1 POP SWAP2 SWAP1 POP JUMP JUMPDEST PUSH0 DUP3 DUP3 SHL SWAP1 POP SWAP3 SWAP2 POP POP JUMP JUMPDEST PUSH0 PUSH1 0x8 DUP4 MUL PUSH2 0x7A8 PUSH32 0xFFFFFFFFFFFFFFFFFFFFFFFFFFFFFFFFFFFFFFFFFFFFFFFFFFFFFFFFFFFFFFFF DUP3 PUSH2 0x76D JUMP JUMPDEST PUSH2 0x7B2 DUP7 DUP4 PUSH2 0x76D JUMP JUMPDEST SWAP6 POP DUP1 NOT DUP5 AND SWAP4 POP DUP1 DUP7 AND DUP5 OR SWAP3 POP POP POP SWAP4 SWAP3 POP POP POP JUMP JUMPDEST PUSH0 DUP2 SWAP1 POP SWAP2 SWAP1 POP JUMP JUMPDEST PUSH0 PUSH2 0x7ED PUSH2 0x7E8 PUSH2 0x7E3 DUP5 PUSH2 0x5A5 JUMP JUMPDEST PUSH2 0x7CA JUMP JUMPDEST PUSH2 0x5A5 JUMP JUMPDEST SWAP1 POP SWAP2 SWAP1 POP JUMP JUMPDEST PUSH0 DUP2 SWAP1 POP SWAP2 SWAP1 POP JUMP JUMPDEST PUSH2 0x806 DUP4 PUSH2 0x7D3 JUMP JUMPDEST PUSH2 0x81A PUSH2 0x812 DUP3 PUSH2 0x7F4 JUMP JUMPDEST DUP5 DUP5 SLOAD PUSH2 0x779 JUMP JUMPDEST DUP3 SSTORE POP POP POP POP JUMP JUMPDEST PUSH0 PUSH0 SWAP1 POP SWAP1 JUMP JUMPDEST PUSH2 0x831 PUSH2 0x822 JUMP JUMPDEST PUSH2 0x83C DUP2 DUP5 DUP5 PUSH2 0x7FD JUMP JUMPDEST POP POP POP JUMP JUMPDEST JUMPDEST DUP2 DUP2 LT ISZERO PUSH2 0x85F JUMPI PUSH2 0x854 PUSH0 DUP3 PUSH2 0x829 JUMP JUMPDEST PUSH1 0x1 DUP2 ADD SWAP1 POP PUSH2 0x842 JUMP JUMPDEST POP POP JUMP JUMPDEST PUSH1 0x1F DUP3 GT ISZERO PUSH2 0x8A4 JUMPI PUSH2 0x875 DUP2 PUSH2 0x74C JUMP JUMPDEST PUSH2 0x87E DUP5 PUSH2 0x75E JUMP JUMPDEST DUP2 ADD PUSH1 0x20 DUP6 LT ISZERO PUSH2 0x88D JUMPI DUP2 SWAP1 POP JUMPDEST PUSH2 0x8A1 PUSH2 0x899 DUP6 PUSH2 0x75E JUMP JUMPDEST DUP4 ADD DUP3 PUSH2 0x841 JUMP JUMPDEST POP POP JUMPDEST POP POP POP JUMP JUMPDEST PUSH0 DUP3 DUP3 SHR SWAP1 POP SWAP3 SWAP2 POP POP JUMP JUMPDEST PUSH0 PUSH2 0x8C4 PUSH0 NOT DUP5 PUSH1 0x8 MUL PUSH2 0x8A9 JUMP JUMPDEST NOT DUP1 DUP4 AND SWAP2 POP POP SWAP3 SWAP2 POP POP JUMP JUMPDEST PUSH0 PUSH2 0x8DC DUP4 DUP4 PUSH2 0x8B5 JUMP JUMPDEST SWAP2 POP DUP3 PUSH1 0x2 MUL DUP3 OR SWAP1 POP SWAP3 SWAP2 POP POP JUMP JUMPDEST PUSH2 0x8F5 DUP3 PUSH2 0x603 JUMP JUMPDEST PUSH8 0xFFFFFFFFFFFFFFFF DUP2 GT ISZERO PUSH2 0x90E JUMPI PUSH2 0x90D PUSH2 0x32E JUMP JUMPDEST JUMPDEST PUSH2 0x918 DUP3 SLOAD PUSH2 0x71C JUMP JUMPDEST PUSH2 0x923 DUP3 DUP3 DUP6 PUSH2 0x863 JUMP JUMPDEST PUSH0 PUSH1 0x20 SWAP1 POP PUSH1 0x1F DUP4 GT PUSH1 0x1 DUP2 EQ PUSH2 0x954 JUMPI PUSH0 DUP5 ISZERO PUSH2 0x942 JUMPI DUP3 DUP8 ADD MLOAD SWAP1 POP JUMPDEST PUSH2 0x94C DUP6 DUP3 PUSH2 0x8D1 JUMP JUMPDEST DUP7 SSTORE POP PUSH2 0x9B3 JUMP JUMPDEST PUSH1 0x1F NOT DUP5 AND PUSH2 0x962 DUP7 PUSH2 0x74C JUMP JUMPDEST PUSH0 JUMPDEST DUP3 DUP2 LT ISZERO PUSH2 0x989 JUMPI DUP5 DUP10 ADD MLOAD DUP3 SSTORE PUSH1 0x1 DUP3 ADD SWAP2 POP PUSH1 0x20 DUP6 ADD SWAP5 POP PUSH1 0x20 DUP2 ADD SWAP1 POP PUSH2 0x964 JUMP JUMPDEST DUP7 DUP4 LT ISZERO PUSH2 0x9A6 JUMPI DUP5 DUP10 ADD MLOAD PUSH2 0x9A2 PUSH1 0x1F DUP10 AND DUP3 PUSH2 0x8B5 JUMP JUMPDEST DUP4 SSTORE POP JUMPDEST PUSH1 0x1 PUSH1 0x2 DUP9 MUL ADD DUP9 SSTORE POP POP POP JUMPDEST POP POP POP POP POP POP JUMP JUMPDEST PUSH32 0x4E487B7100000000000000000000000000000000000000000000000000000000 PUSH0 MSTORE PUSH1 0x11 PUSH1 0x4 MSTORE PUSH1 0x24 PUSH0 REVERT JUMPDEST PUSH0 PUSH2 0x9F2 DUP3 PUSH2 0x5A5 JUMP JUMPDEST SWAP2 POP PUSH2 0x9FD DUP4 PUSH2 0x5A5 JUMP JUMPDEST SWAP3 POP DUP3 DUP3 SUB SWAP1 POP DUP2 DUP2 GT ISZERO PUSH2 0xA15 JUMPI PUSH2 0xA14 PUSH2 0x9BB JUMP JUMPDEST JUMPDEST SWAP3 SWAP2 POP POP JUMP INVALID LOG2 PUSH5 0x6970667358 0x22 SLT KECCAK256 0xEB LOG4 GT MLOAD PUSH29 0xB76F02FCCD62C4427BD55EDC72F018D9D440F51F29F83D6BE983116473 PUSH16 0x6C634300081E00330000000000000000 "
				},
				"gasEstimates": {
					"creation": {
						"codeDepositCost": "528200",
						"executionCost": "560",
						"totalCost": "528760"
					},
					"external": {
						"_newTask(string,string,uint8,uint32,bool)": "infinite",
						"taskList(uint256)": "infinite"
					}
				},
				"methodIdentifiers": {
					"_newTask(string,string,uint8,uint32,bool)": "211042b8",
					"taskList(uint256)": "2a1c52a5"
				}
			},
			"storageLayout": {
				"storage": [
					{
						"astId": 16,
						"contract": "ToDoList/taskFactort.sol:TaskFactory",
						"label": "taskList",
						"offset": 0,
						"slot": "0",
						"type": "t_array(t_struct(Task)12_storage)dyn_storage"
					}
				],
				"types": {
					"t_array(t_struct(Task)12_storage)dyn_storage": {
						"base": "t_struct(Task)12_storage",
						"encoding": "dynamic_array",
						"label": "struct TaskFactory.Task[]",
						"numberOfBytes": "32"
					},
					"t_bool": {
						"encoding": "inplace",
						"label": "bool",
						"numberOfBytes": "1"
					},
					"t_string_storage": {
						"encoding": "bytes",
						"label": "string",
						"numberOfBytes": "32"
					},
					"t_struct(Task)12_storage": {
						"encoding": "inplace",
						"label": "struct TaskFactory.Task",
						"members": [
							{
								"astId": 3,
								"contract": "ToDoList/taskFactort.sol:TaskFactory",
								"label": "taskDescription",
								"offset": 0,
								"slot": "0",
								"type": "t_string_storage"
							},
							{
								"astId": 5,
								"contract": "ToDoList/taskFactort.sol:TaskFactory",
								"label": "taskCategory",
								"offset": 0,
								"slot": "1",
								"type": "t_string_storage"
							},
							{
								"astId": 7,
								"contract": "ToDoList/taskFactort.sol:TaskFactory",
								"label": "taskPriority",
								"offset": 0,
								"slot": "2",
								"type": "t_uint8"
							},
							{
								"astId": 9,
								"contract": "ToDoList/taskFactort.sol:TaskFactory",
								"label": "taskDeadline",
								"offset": 1,
								"slot": "2",
								"type": "t_uint32"
							},
							{
								"astId": 11,
								"contract": "ToDoList/taskFactort.sol:TaskFactory",
								"label": "taskStatus",
								"offset": 5,
								"slot": "2",
								"type": "t_bool"
							}
						],
						"numberOfBytes": "96"
					},
					"t_uint32": {
						"encoding": "inplace",
						"label": "uint32",
						"numberOfBytes": "4"
					},
					"t_uint8": {
						"encoding": "inplace",
						"label": "uint8",
						"numberOfBytes": "1"
					}
				}
			},
			"userdoc": {
				"kind": "user",
				"methods": {},
				"version": 1
			}
		}
	}
}