{
	"ToDoList/main.sol": {
		"ToDoList": {
			"abi": [
				{
					"inputs": [],
					"stateMutability": "nonpayable",
					"type": "constructor"
				},
				{
					"anonymous": false,
					"inputs": [
						{
							"indexed": false,
							"internalType": "uint256",
							"name": "id",
							"type": "uint256"
						},
						{
							"indexed": false,
							"internalType": "bool",
							"name": "completed",
							"type": "bool"
						}
					],
					"name": "TaskCompleted",
					"type": "event"
				},
				{
					"anonymous": false,
					"inputs": [
						{
							"indexed": false,
							"internalType": "uint256",
							"name": "id",
							"type": "uint256"
						},
						{
							"indexed": false,
							"internalType": "string",
							"name": "content",
							"type": "string"
						},
						{
							"indexed": false,
							"internalType": "bool",
							"name": "completed",
							"type": "bool"
						}
					],
					"name": "TaskCreated",
					"type": "event"
				},
				{
					"inputs": [
						{
							"internalType": "string",
							"name": "_content",
							"type": "string"
						}
					],
					"name": "createTask",
					"outputs": [],
					"stateMutability": "nonpayable",
					"type": "function"
				},
				{
					"inputs": [],
					"name": "taskCount",
					"outputs": [
						{
							"internalType": "uint256",
							"name": "",
							"type": "uint256"
						}
					],
					"stateMutability": "view",
					"type": "function"
				},
				{
					"inputs": [
						{
							"internalType": "uint256",
							"name": "",
							"type": "uint256"
						}
					],
					"name": "tasks",
					"outputs": [
						{
							"internalType": "uint256",
							"name": "id",
							"type": "uint256"
						},
						{
							"internalType": "string",
							"name": "content",
							"type": "string"
						},
						{
							"internalType": "bool",
							"name": "completed",
							"type": "bool"
						}
					],
					"stateMutability": "view",
					"type": "function"
				},
				{
					"inputs": [
						{
							"internalType": "uint256",
							"name": "_id",
							"type": "uint256"
						}
					],
					"name": "toggleTaskCompletion",
					"outputs": [],
					"stateMutability": "nonpayable",
					"type": "function"
				}
			],
			"devdoc": {
				"kind": "dev",
				"methods": {},
				"version": 1
			},
			"evm": {
				"assembly": "    /* \"ToDoList/main.sol\":61:872  contract ToDoList {... */\n  mstore(0x40, 0x80)\n    /* \"ToDoList/main.sol\":247:248  0 */\n  0x00\n    /* \"ToDoList/main.sol\":223:248  uint public taskCount = 0 */\n  0x01\n  sstore\n    /* \"ToDoList/main.sol\":375:434  constructor() {... */\n  callvalue\n  dup1\n  iszero\n  tag_1\n  jumpi\n  revert(0x00, 0x00)\ntag_1:\n  pop\n    /* \"ToDoList/main.sol\":400:426  createTask(\"Initial Task\") */\n  tag_4\n  mload(0x40)\n  dup1\n  0x40\n  add\n  0x40\n  mstore\n  dup1\n  0x0c\n  dup2\n  mstore\n  0x20\n  add\n  0x496e697469616c205461736b0000000000000000000000000000000000000000\n  dup2\n  mstore\n  pop\n    /* \"ToDoList/main.sol\":400:410  createTask */\n  shl(0x20, tag_5)\n    /* \"ToDoList/main.sol\":400:426  createTask(\"Initial Task\") */\n  0x20\n  shr\n  jump\t// in\ntag_4:\n    /* \"ToDoList/main.sol\":61:872  contract ToDoList {... */\n  jump(tag_6)\n    /* \"ToDoList/main.sol\":442:640  function createTask(string memory _content) public {... */\ntag_5:\n    /* \"ToDoList/main.sol\":504:513  taskCount */\n  0x01\n  0x00\n    /* \"ToDoList/main.sol\":504:515  taskCount++ */\n  dup2\n  sload\n  dup1\n  swap3\n  swap2\n  swap1\n  tag_8\n  swap1\n  tag_9\n  jump\t// in\ntag_8:\n  swap2\n  swap1\n  pop\n  sstore\n  pop\n    /* \"ToDoList/main.sol\":545:577  Task(taskCount, _content, false) */\n  mload(0x40)\n  dup1\n  0x60\n  add\n  0x40\n  mstore\n  dup1\n    /* \"ToDoList/main.sol\":550:559  taskCount */\n  sload(0x01)\n    /* \"ToDoList/main.sol\":545:577  Task(taskCount, _content, false) */\n  dup2\n  mstore\n  0x20\n  add\n    /* \"ToDoList/main.sol\":561:569  _content */\n  dup3\n    /* \"ToDoList/main.sol\":545:577  Task(taskCount, _content, false) */\n  dup2\n  mstore\n  0x20\n  add\n    /* \"ToDoList/main.sol\":571:576  false */\n  0x00\n    /* \"ToDoList/main.sol\":545:577  Task(taskCount, _content, false) */\n  iszero\n  iszero\n  dup2\n  mstore\n  pop\n    /* \"ToDoList/main.sol\":526:531  tasks */\n  0x00\n    /* \"ToDoList/main.sol\":526:542  tasks[taskCount] */\n  0x00\n    /* \"ToDoList/main.sol\":532:541  taskCount */\n  sload(0x01)\n    /* \"ToDoList/main.sol\":526:542  tasks[taskCount] */\n  dup2\n  mstore\n  0x20\n  add\n  swap1\n  dup2\n  mstore\n  0x20\n  add\n  0x00\n  keccak256\n    /* \"ToDoList/main.sol\":526:577  tasks[taskCount] = Task(taskCount, _content, false) */\n  0x00\n  dup3\n  add\n  mload\n  dup2\n  0x00\n  add\n  sstore\n  0x20\n  dup3\n  add\n  mload\n  dup2\n  0x01\n  add\n  swap1\n  dup2\n  tag_10\n  swap2\n  swap1\n  tag_11\n  jump\t// in\ntag_10:\n  pop\n  0x40\n  dup3\n  add\n  mload\n  dup2\n  0x02\n  add\n  exp(0x0100, 0x00)\n  dup2\n  sload\n  dup2\n  0xff\n  mul\n  not\n  and\n  swap1\n  dup4\n  iszero\n  iszero\n  mul\n  or\n  swap1\n  sstore\n  pop\n  swap1\n  pop\n  pop\n    /* \"ToDoList/main.sol\":593:632  TaskCreated(taskCount, _content, false) */\n  0x05d0fb833127fc08168556d0e7ca9554fc3f6bc843b3b7d2bf1c35aea6bab660\n    /* \"ToDoList/main.sol\":605:614  taskCount */\n  sload(0x01)\n    /* \"ToDoList/main.sol\":616:624  _content */\n  dup3\n    /* \"ToDoList/main.sol\":626:631  false */\n  0x00\n    /* \"ToDoList/main.sol\":593:632  TaskCreated(taskCount, _content, false) */\n  mload(0x40)\n  tag_12\n  swap4\n  swap3\n  swap2\n  swap1\n  tag_13\n  jump\t// in\ntag_12:\n  mload(0x40)\n  dup1\n  swap2\n  sub\n  swap1\n  log1\n    /* \"ToDoList/main.sol\":442:640  function createTask(string memory _content) public {... */\n  pop\n  jump\t// out\n    /* \"#utility.yul\":7:187   */\ntag_14:\n    /* \"#utility.yul\":55:132   */\n  0x4e487b7100000000000000000000000000000000000000000000000000000000\n    /* \"#utility.yul\":52:53   */\n  0x00\n    /* \"#utility.yul\":45:133   */\n  mstore\n    /* \"#utility.yul\":152:156   */\n  0x11\n    /* \"#utility.yul\":149:150   */\n  0x04\n    /* \"#utility.yul\":142:157   */\n  mstore\n    /* \"#utility.yul\":176:180   */\n  0x24\n    /* \"#utility.yul\":173:174   */\n  0x00\n    /* \"#utility.yul\":166:181   */\n  revert\n    /* \"#utility.yul\":193:270   */\ntag_15:\n    /* \"#utility.yul\":230:237   */\n  0x00\n    /* \"#utility.yul\":259:264   */\n  dup2\n    /* \"#utility.yul\":248:264   */\n  swap1\n  pop\n    /* \"#utility.yul\":193:270   */\n  swap2\n  swap1\n  pop\n  jump\t// out\n    /* \"#utility.yul\":276:509   */\ntag_9:\n    /* \"#utility.yul\":315:318   */\n  0x00\n    /* \"#utility.yul\":338:362   */\n  tag_46\n    /* \"#utility.yul\":356:361   */\n  dup3\n    /* \"#utility.yul\":338:362   */\n  tag_15\n  jump\t// in\ntag_46:\n    /* \"#utility.yul\":329:362   */\n  swap2\n  pop\n    /* \"#utility.yul\":384:450   */\n  0xffffffffffffffffffffffffffffffffffffffffffffffffffffffffffffffff\n    /* \"#utility.yul\":377:382   */\n  dup3\n    /* \"#utility.yul\":374:451   */\n  sub\n    /* \"#utility.yul\":371:474   */\n  tag_47\n  jumpi\n    /* \"#utility.yul\":454:472   */\n  tag_48\n  tag_14\n  jump\t// in\ntag_48:\n    /* \"#utility.yul\":371:474   */\ntag_47:\n    /* \"#utility.yul\":501:502   */\n  0x01\n    /* \"#utility.yul\":494:499   */\n  dup3\n    /* \"#utility.yul\":490:503   */\n  add\n    /* \"#utility.yul\":483:503   */\n  swap1\n  pop\n    /* \"#utility.yul\":276:509   */\n  swap2\n  swap1\n  pop\n  jump\t// out\n    /* \"#utility.yul\":515:614   */\ntag_16:\n    /* \"#utility.yul\":567:573   */\n  0x00\n    /* \"#utility.yul\":601:606   */\n  dup2\n    /* \"#utility.yul\":595:607   */\n  mload\n    /* \"#utility.yul\":585:607   */\n  swap1\n  pop\n    /* \"#utility.yul\":515:614   */\n  swap2\n  swap1\n  pop\n  jump\t// out\n    /* \"#utility.yul\":620:800   */\ntag_17:\n    /* \"#utility.yul\":668:745   */\n  0x4e487b7100000000000000000000000000000000000000000000000000000000\n    /* \"#utility.yul\":665:666   */\n  0x00\n    /* \"#utility.yul\":658:746   */\n  mstore\n    /* \"#utility.yul\":765:769   */\n  0x41\n    /* \"#utility.yul\":762:763   */\n  0x04\n    /* \"#utility.yul\":755:770   */\n  mstore\n    /* \"#utility.yul\":789:793   */\n  0x24\n    /* \"#utility.yul\":786:787   */\n  0x00\n    /* \"#utility.yul\":779:794   */\n  revert\n    /* \"#utility.yul\":806:986   */\ntag_18:\n    /* \"#utility.yul\":854:931   */\n  0x4e487b7100000000000000000000000000000000000000000000000000000000\n    /* \"#utility.yul\":851:852   */\n  0x00\n    /* \"#utility.yul\":844:932   */\n  mstore\n    /* \"#utility.yul\":951:955   */\n  0x22\n    /* \"#utility.yul\":948:949   */\n  0x04\n    /* \"#utility.yul\":941:956   */\n  mstore\n    /* \"#utility.yul\":975:979   */\n  0x24\n    /* \"#utility.yul\":972:973   */\n  0x00\n    /* \"#utility.yul\":965:980   */\n  revert\n    /* \"#utility.yul\":992:1312   */\ntag_19:\n    /* \"#utility.yul\":1036:1042   */\n  0x00\n    /* \"#utility.yul\":1073:1074   */\n  0x02\n    /* \"#utility.yul\":1067:1071   */\n  dup3\n    /* \"#utility.yul\":1063:1075   */\n  div\n    /* \"#utility.yul\":1053:1075   */\n  swap1\n  pop\n    /* \"#utility.yul\":1120:1121   */\n  0x01\n    /* \"#utility.yul\":1114:1118   */\n  dup3\n    /* \"#utility.yul\":1110:1122   */\n  and\n    /* \"#utility.yul\":1141:1159   */\n  dup1\n    /* \"#utility.yul\":1131:1212   */\n  tag_53\n  jumpi\n    /* \"#utility.yul\":1197:1201   */\n  0x7f\n    /* \"#utility.yul\":1189:1195   */\n  dup3\n    /* \"#utility.yul\":1185:1202   */\n  and\n    /* \"#utility.yul\":1175:1202   */\n  swap2\n  pop\n    /* \"#utility.yul\":1131:1212   */\ntag_53:\n    /* \"#utility.yul\":1259:1261   */\n  0x20\n    /* \"#utility.yul\":1251:1257   */\n  dup3\n    /* \"#utility.yul\":1248:1262   */\n  lt\n    /* \"#utility.yul\":1228:1246   */\n  dup2\n    /* \"#utility.yul\":1225:1263   */\n  sub\n    /* \"#utility.yul\":1222:1306   */\n  tag_54\n  jumpi\n    /* \"#utility.yul\":1278:1296   */\n  tag_55\n  tag_18\n  jump\t// in\ntag_55:\n    /* \"#utility.yul\":1222:1306   */\ntag_54:\n    /* \"#utility.yul\":1043:1312   */\n  pop\n    /* \"#utility.yul\":992:1312   */\n  swap2\n  swap1\n  pop\n  jump\t// out\n    /* \"#utility.yul\":1318:1459   */\ntag_20:\n    /* \"#utility.yul\":1367:1371   */\n  0x00\n    /* \"#utility.yul\":1390:1393   */\n  dup2\n    /* \"#utility.yul\":1382:1393   */\n  swap1\n  pop\n    /* \"#utility.yul\":1413:1416   */\n  dup2\n    /* \"#utility.yul\":1410:1411   */\n  0x00\n    /* \"#utility.yul\":1403:1417   */\n  mstore\n    /* \"#utility.yul\":1447:1451   */\n  0x20\n    /* \"#utility.yul\":1444:1445   */\n  0x00\n    /* \"#utility.yul\":1434:1452   */\n  keccak256\n    /* \"#utility.yul\":1426:1452   */\n  swap1\n  pop\n    /* \"#utility.yul\":1318:1459   */\n  swap2\n  swap1\n  pop\n  jump\t// out\n    /* \"#utility.yul\":1465:1558   */\ntag_21:\n    /* \"#utility.yul\":1502:1508   */\n  0x00\n    /* \"#utility.yul\":1549:1551   */\n  0x20\n    /* \"#utility.yul\":1544:1546   */\n  0x1f\n    /* \"#utility.yul\":1537:1542   */\n  dup4\n    /* \"#utility.yul\":1533:1547   */\n  add\n    /* \"#utility.yul\":1529:1552   */\n  div\n    /* \"#utility.yul\":1519:1552   */\n  swap1\n  pop\n    /* \"#utility.yul\":1465:1558   */\n  swap2\n  swap1\n  pop\n  jump\t// out\n    /* \"#utility.yul\":1564:1671   */\ntag_22:\n    /* \"#utility.yul\":1608:1616   */\n  0x00\n    /* \"#utility.yul\":1658:1663   */\n  dup3\n    /* \"#utility.yul\":1652:1656   */\n  dup3\n    /* \"#utility.yul\":1648:1664   */\n  shl\n    /* \"#utility.yul\":1627:1664   */\n  swap1\n  pop\n    /* \"#utility.yul\":1564:1671   */\n  swap3\n  swap2\n  pop\n  pop\n  jump\t// out\n    /* \"#utility.yul\":1677:2070   */\ntag_23:\n    /* \"#utility.yul\":1746:1752   */\n  0x00\n    /* \"#utility.yul\":1796:1797   */\n  0x08\n    /* \"#utility.yul\":1784:1794   */\n  dup4\n    /* \"#utility.yul\":1780:1798   */\n  mul\n    /* \"#utility.yul\":1819:1916   */\n  tag_60\n    /* \"#utility.yul\":1849:1915   */\n  0xffffffffffffffffffffffffffffffffffffffffffffffffffffffffffffffff\n    /* \"#utility.yul\":1838:1847   */\n  dup3\n    /* \"#utility.yul\":1819:1916   */\n  tag_22\n  jump\t// in\ntag_60:\n    /* \"#utility.yul\":1937:1976   */\n  tag_61\n    /* \"#utility.yul\":1967:1975   */\n  dup7\n    /* \"#utility.yul\":1956:1965   */\n  dup4\n    /* \"#utility.yul\":1937:1976   */\n  tag_22\n  jump\t// in\ntag_61:\n    /* \"#utility.yul\":1925:1976   */\n  swap6\n  pop\n    /* \"#utility.yul\":2009:2013   */\n  dup1\n    /* \"#utility.yul\":2005:2014   */\n  not\n    /* \"#utility.yul\":1998:2003   */\n  dup5\n    /* \"#utility.yul\":1994:2015   */\n  and\n    /* \"#utility.yul\":1985:2015   */\n  swap4\n  pop\n    /* \"#utility.yul\":2058:2062   */\n  dup1\n    /* \"#utility.yul\":2048:2056   */\n  dup7\n    /* \"#utility.yul\":2044:2063   */\n  and\n    /* \"#utility.yul\":2037:2042   */\n  dup5\n    /* \"#utility.yul\":2034:2064   */\n  or\n    /* \"#utility.yul\":2024:2064   */\n  swap3\n  pop\n    /* \"#utility.yul\":1753:2070   */\n  pop\n  pop\n    /* \"#utility.yul\":1677:2070   */\n  swap4\n  swap3\n  pop\n  pop\n  pop\n  jump\t// out\n    /* \"#utility.yul\":2076:2136   */\ntag_24:\n    /* \"#utility.yul\":2104:2107   */\n  0x00\n    /* \"#utility.yul\":2125:2130   */\n  dup2\n    /* \"#utility.yul\":2118:2130   */\n  swap1\n  pop\n    /* \"#utility.yul\":2076:2136   */\n  swap2\n  swap1\n  pop\n  jump\t// out\n    /* \"#utility.yul\":2142:2284   */\ntag_25:\n    /* \"#utility.yul\":2192:2201   */\n  0x00\n    /* \"#utility.yul\":2225:2278   */\n  tag_64\n    /* \"#utility.yul\":2243:2277   */\n  tag_65\n    /* \"#utility.yul\":2252:2276   */\n  tag_66\n    /* \"#utility.yul\":2270:2275   */\n  dup5\n    /* \"#utility.yul\":2252:2276   */\n  tag_15\n  jump\t// in\ntag_66:\n    /* \"#utility.yul\":2243:2277   */\n  tag_24\n  jump\t// in\ntag_65:\n    /* \"#utility.yul\":2225:2278   */\n  tag_15\n  jump\t// in\ntag_64:\n    /* \"#utility.yul\":2212:2278   */\n  swap1\n  pop\n    /* \"#utility.yul\":2142:2284   */\n  swap2\n  swap1\n  pop\n  jump\t// out\n    /* \"#utility.yul\":2290:2365   */\ntag_26:\n    /* \"#utility.yul\":2333:2336   */\n  0x00\n    /* \"#utility.yul\":2354:2359   */\n  dup2\n    /* \"#utility.yul\":2347:2359   */\n  swap1\n  pop\n    /* \"#utility.yul\":2290:2365   */\n  swap2\n  swap1\n  pop\n  jump\t// out\n    /* \"#utility.yul\":2371:2640   */\ntag_27:\n    /* \"#utility.yul\":2481:2520   */\n  tag_69\n    /* \"#utility.yul\":2512:2519   */\n  dup4\n    /* \"#utility.yul\":2481:2520   */\n  tag_25\n  jump\t// in\ntag_69:\n    /* \"#utility.yul\":2542:2633   */\n  tag_70\n    /* \"#utility.yul\":2591:2632   */\n  tag_71\n    /* \"#utility.yul\":2615:2631   */\n  dup3\n    /* \"#utility.yul\":2591:2632   */\n  tag_26\n  jump\t// in\ntag_71:\n    /* \"#utility.yul\":2583:2589   */\n  dup5\n    /* \"#utility.yul\":2576:2580   */\n  dup5\n    /* \"#utility.yul\":2570:2581   */\n  sload\n    /* \"#utility.yul\":2542:2633   */\n  tag_23\n  jump\t// in\ntag_70:\n    /* \"#utility.yul\":2536:2540   */\n  dup3\n    /* \"#utility.yul\":2529:2634   */\n  sstore\n    /* \"#utility.yul\":2447:2640   */\n  pop\n    /* \"#utility.yul\":2371:2640   */\n  pop\n  pop\n  pop\n  jump\t// out\n    /* \"#utility.yul\":2646:2719   */\ntag_28:\n    /* \"#utility.yul\":2691:2694   */\n  0x00\n    /* \"#utility.yul\":2712:2713   */\n  0x00\n    /* \"#utility.yul\":2705:2713   */\n  swap1\n  pop\n    /* \"#utility.yul\":2646:2719   */\n  swap1\n  jump\t// out\n    /* \"#utility.yul\":2725:2914   */\ntag_29:\n    /* \"#utility.yul\":2802:2834   */\n  tag_74\n  tag_28\n  jump\t// in\ntag_74:\n    /* \"#utility.yul\":2843:2908   */\n  tag_75\n    /* \"#utility.yul\":2901:2907   */\n  dup2\n    /* \"#utility.yul\":2893:2899   */\n  dup5\n    /* \"#utility.yul\":2887:2891   */\n  dup5\n    /* \"#utility.yul\":2843:2908   */\n  tag_27\n  jump\t// in\ntag_75:\n    /* \"#utility.yul\":2778:2914   */\n  pop\n    /* \"#utility.yul\":2725:2914   */\n  pop\n  pop\n  jump\t// out\n    /* \"#utility.yul\":2920:3106   */\ntag_30:\n    /* \"#utility.yul\":2980:3100   */\ntag_77:\n    /* \"#utility.yul\":2997:3000   */\n  dup2\n    /* \"#utility.yul\":2990:2995   */\n  dup2\n    /* \"#utility.yul\":2987:3001   */\n  lt\n    /* \"#utility.yul\":2980:3100   */\n  iszero\n  tag_79\n  jumpi\n    /* \"#utility.yul\":3051:3090   */\n  tag_80\n    /* \"#utility.yul\":3088:3089   */\n  0x00\n    /* \"#utility.yul\":3081:3086   */\n  dup3\n    /* \"#utility.yul\":3051:3090   */\n  tag_29\n  jump\t// in\ntag_80:\n    /* \"#utility.yul\":3024:3025   */\n  0x01\n    /* \"#utility.yul\":3017:3022   */\n  dup2\n    /* \"#utility.yul\":3013:3026   */\n  add\n    /* \"#utility.yul\":3004:3026   */\n  swap1\n  pop\n    /* \"#utility.yul\":2980:3100   */\n  jump(tag_77)\ntag_79:\n    /* \"#utility.yul\":2920:3106   */\n  pop\n  pop\n  jump\t// out\n    /* \"#utility.yul\":3112:3655   */\ntag_31:\n    /* \"#utility.yul\":3213:3215   */\n  0x1f\n    /* \"#utility.yul\":3208:3211   */\n  dup3\n    /* \"#utility.yul\":3205:3216   */\n  gt\n    /* \"#utility.yul\":3202:3648   */\n  iszero\n  tag_82\n  jumpi\n    /* \"#utility.yul\":3247:3285   */\n  tag_83\n    /* \"#utility.yul\":3279:3284   */\n  dup2\n    /* \"#utility.yul\":3247:3285   */\n  tag_20\n  jump\t// in\ntag_83:\n    /* \"#utility.yul\":3331:3360   */\n  tag_84\n    /* \"#utility.yul\":3349:3359   */\n  dup5\n    /* \"#utility.yul\":3331:3360   */\n  tag_21\n  jump\t// in\ntag_84:\n    /* \"#utility.yul\":3321:3329   */\n  dup2\n    /* \"#utility.yul\":3317:3361   */\n  add\n    /* \"#utility.yul\":3514:3516   */\n  0x20\n    /* \"#utility.yul\":3502:3512   */\n  dup6\n    /* \"#utility.yul\":3499:3517   */\n  lt\n    /* \"#utility.yul\":3496:3545   */\n  iszero\n  tag_85\n  jumpi\n    /* \"#utility.yul\":3535:3543   */\n  dup2\n    /* \"#utility.yul\":3520:3543   */\n  swap1\n  pop\n    /* \"#utility.yul\":3496:3545   */\ntag_85:\n    /* \"#utility.yul\":3558:3638   */\n  tag_86\n    /* \"#utility.yul\":3614:3636   */\n  tag_87\n    /* \"#utility.yul\":3632:3635   */\n  dup6\n    /* \"#utility.yul\":3614:3636   */\n  tag_21\n  jump\t// in\ntag_87:\n    /* \"#utility.yul\":3604:3612   */\n  dup4\n    /* \"#utility.yul\":3600:3637   */\n  add\n    /* \"#utility.yul\":3587:3598   */\n  dup3\n    /* \"#utility.yul\":3558:3638   */\n  tag_30\n  jump\t// in\ntag_86:\n    /* \"#utility.yul\":3217:3648   */\n  pop\n  pop\n    /* \"#utility.yul\":3202:3648   */\ntag_82:\n    /* \"#utility.yul\":3112:3655   */\n  pop\n  pop\n  pop\n  jump\t// out\n    /* \"#utility.yul\":3661:3778   */\ntag_32:\n    /* \"#utility.yul\":3715:3723   */\n  0x00\n    /* \"#utility.yul\":3765:3770   */\n  dup3\n    /* \"#utility.yul\":3759:3763   */\n  dup3\n    /* \"#utility.yul\":3755:3771   */\n  shr\n    /* \"#utility.yul\":3734:3771   */\n  swap1\n  pop\n    /* \"#utility.yul\":3661:3778   */\n  swap3\n  swap2\n  pop\n  pop\n  jump\t// out\n    /* \"#utility.yul\":3784:3953   */\ntag_33:\n    /* \"#utility.yul\":3828:3834   */\n  0x00\n    /* \"#utility.yul\":3861:3912   */\n  tag_90\n    /* \"#utility.yul\":3909:3910   */\n  0x00\n    /* \"#utility.yul\":3905:3911   */\n  not\n    /* \"#utility.yul\":3897:3902   */\n  dup5\n    /* \"#utility.yul\":3894:3895   */\n  0x08\n    /* \"#utility.yul\":3890:3903   */\n  mul\n    /* \"#utility.yul\":3861:3912   */\n  tag_32\n  jump\t// in\ntag_90:\n    /* \"#utility.yul\":3857:3913   */\n  not\n    /* \"#utility.yul\":3942:3946   */\n  dup1\n    /* \"#utility.yul\":3936:3940   */\n  dup4\n    /* \"#utility.yul\":3932:3947   */\n  and\n    /* \"#utility.yul\":3922:3947   */\n  swap2\n  pop\n    /* \"#utility.yul\":3835:3953   */\n  pop\n    /* \"#utility.yul\":3784:3953   */\n  swap3\n  swap2\n  pop\n  pop\n  jump\t// out\n    /* \"#utility.yul\":3958:4253   */\ntag_34:\n    /* \"#utility.yul\":4034:4038   */\n  0x00\n    /* \"#utility.yul\":4180:4209   */\n  tag_92\n    /* \"#utility.yul\":4205:4208   */\n  dup4\n    /* \"#utility.yul\":4199:4203   */\n  dup4\n    /* \"#utility.yul\":4180:4209   */\n  tag_33\n  jump\t// in\ntag_92:\n    /* \"#utility.yul\":4172:4209   */\n  swap2\n  pop\n    /* \"#utility.yul\":4242:4245   */\n  dup3\n    /* \"#utility.yul\":4239:4240   */\n  0x02\n    /* \"#utility.yul\":4235:4246   */\n  mul\n    /* \"#utility.yul\":4229:4233   */\n  dup3\n    /* \"#utility.yul\":4226:4247   */\n  or\n    /* \"#utility.yul\":4218:4247   */\n  swap1\n  pop\n    /* \"#utility.yul\":3958:4253   */\n  swap3\n  swap2\n  pop\n  pop\n  jump\t// out\n    /* \"#utility.yul\":4258:5653   */\ntag_11:\n    /* \"#utility.yul\":4375:4412   */\n  tag_94\n    /* \"#utility.yul\":4408:4411   */\n  dup3\n    /* \"#utility.yul\":4375:4412   */\n  tag_16\n  jump\t// in\ntag_94:\n    /* \"#utility.yul\":4477:4495   */\n  0xffffffffffffffff\n    /* \"#utility.yul\":4469:4475   */\n  dup2\n    /* \"#utility.yul\":4466:4496   */\n  gt\n    /* \"#utility.yul\":4463:4519   */\n  iszero\n  tag_95\n  jumpi\n    /* \"#utility.yul\":4499:4517   */\n  tag_96\n  tag_17\n  jump\t// in\ntag_96:\n    /* \"#utility.yul\":4463:4519   */\ntag_95:\n    /* \"#utility.yul\":4543:4581   */\n  tag_97\n    /* \"#utility.yul\":4575:4579   */\n  dup3\n    /* \"#utility.yul\":4569:4580   */\n  sload\n    /* \"#utility.yul\":4543:4581   */\n  tag_19\n  jump\t// in\ntag_97:\n    /* \"#utility.yul\":4628:4695   */\n  tag_98\n    /* \"#utility.yul\":4688:4694   */\n  dup3\n    /* \"#utility.yul\":4680:4686   */\n  dup3\n    /* \"#utility.yul\":4674:4678   */\n  dup6\n    /* \"#utility.yul\":4628:4695   */\n  tag_31\n  jump\t// in\ntag_98:\n    /* \"#utility.yul\":4722:4723   */\n  0x00\n    /* \"#utility.yul\":4746:4750   */\n  0x20\n    /* \"#utility.yul\":4733:4750   */\n  swap1\n  pop\n    /* \"#utility.yul\":4778:4780   */\n  0x1f\n    /* \"#utility.yul\":4770:4776   */\n  dup4\n    /* \"#utility.yul\":4767:4781   */\n  gt\n    /* \"#utility.yul\":4795:4796   */\n  0x01\n    /* \"#utility.yul\":4790:5408   */\n  dup2\n  eq\n  tag_100\n  jumpi\n    /* \"#utility.yul\":5452:5453   */\n  0x00\n    /* \"#utility.yul\":5469:5475   */\n  dup5\n    /* \"#utility.yul\":5466:5543   */\n  iszero\n  tag_101\n  jumpi\n    /* \"#utility.yul\":5518:5527   */\n  dup3\n    /* \"#utility.yul\":5513:5516   */\n  dup8\n    /* \"#utility.yul\":5509:5528   */\n  add\n    /* \"#utility.yul\":5503:5529   */\n  mload\n    /* \"#utility.yul\":5494:5529   */\n  swap1\n  pop\n    /* \"#utility.yul\":5466:5543   */\ntag_101:\n    /* \"#utility.yul\":5569:5636   */\n  tag_102\n    /* \"#utility.yul\":5629:5635   */\n  dup6\n    /* \"#utility.yul\":5622:5627   */\n  dup3\n    /* \"#utility.yul\":5569:5636   */\n  tag_34\n  jump\t// in\ntag_102:\n    /* \"#utility.yul\":5563:5567   */\n  dup7\n    /* \"#utility.yul\":5556:5637   */\n  sstore\n    /* \"#utility.yul\":5425:5647   */\n  pop\n    /* \"#utility.yul\":4760:5647   */\n  jump(tag_99)\n    /* \"#utility.yul\":4790:5408   */\ntag_100:\n    /* \"#utility.yul\":4842:4846   */\n  0x1f\n    /* \"#utility.yul\":4838:4847   */\n  not\n    /* \"#utility.yul\":4830:4836   */\n  dup5\n    /* \"#utility.yul\":4826:4848   */\n  and\n    /* \"#utility.yul\":4876:4913   */\n  tag_103\n    /* \"#utility.yul\":4908:4912   */\n  dup7\n    /* \"#utility.yul\":4876:4913   */\n  tag_20\n  jump\t// in\ntag_103:\n    /* \"#utility.yul\":4935:4936   */\n  0x00\n    /* \"#utility.yul\":4949:5157   */\ntag_104:\n    /* \"#utility.yul\":4963:4970   */\n  dup3\n    /* \"#utility.yul\":4960:4961   */\n  dup2\n    /* \"#utility.yul\":4957:4971   */\n  lt\n    /* \"#utility.yul\":4949:5157   */\n  iszero\n  tag_106\n  jumpi\n    /* \"#utility.yul\":5042:5051   */\n  dup5\n    /* \"#utility.yul\":5037:5040   */\n  dup10\n    /* \"#utility.yul\":5033:5052   */\n  add\n    /* \"#utility.yul\":5027:5053   */\n  mload\n    /* \"#utility.yul\":5019:5025   */\n  dup3\n    /* \"#utility.yul\":5012:5054   */\n  sstore\n    /* \"#utility.yul\":5093:5094   */\n  0x01\n    /* \"#utility.yul\":5085:5091   */\n  dup3\n    /* \"#utility.yul\":5081:5095   */\n  add\n    /* \"#utility.yul\":5071:5095   */\n  swap2\n  pop\n    /* \"#utility.yul\":5140:5142   */\n  0x20\n    /* \"#utility.yul\":5129:5138   */\n  dup6\n    /* \"#utility.yul\":5125:5143   */\n  add\n    /* \"#utility.yul\":5112:5143   */\n  swap5\n  pop\n    /* \"#utility.yul\":4986:4990   */\n  0x20\n    /* \"#utility.yul\":4983:4984   */\n  dup2\n    /* \"#utility.yul\":4979:4991   */\n  add\n    /* \"#utility.yul\":4974:4991   */\n  swap1\n  pop\n    /* \"#utility.yul\":4949:5157   */\n  jump(tag_104)\ntag_106:\n    /* \"#utility.yul\":5185:5191   */\n  dup7\n    /* \"#utility.yul\":5176:5183   */\n  dup4\n    /* \"#utility.yul\":5173:5192   */\n  lt\n    /* \"#utility.yul\":5170:5349   */\n  iszero\n  tag_107\n  jumpi\n    /* \"#utility.yul\":5243:5252   */\n  dup5\n    /* \"#utility.yul\":5238:5241   */\n  dup10\n    /* \"#utility.yul\":5234:5253   */\n  add\n    /* \"#utility.yul\":5228:5254   */\n  mload\n    /* \"#utility.yul\":5286:5334   */\n  tag_108\n    /* \"#utility.yul\":5328:5332   */\n  0x1f\n    /* \"#utility.yul\":5320:5326   */\n  dup10\n    /* \"#utility.yul\":5316:5333   */\n  and\n    /* \"#utility.yul\":5305:5314   */\n  dup3\n    /* \"#utility.yul\":5286:5334   */\n  tag_33\n  jump\t// in\ntag_108:\n    /* \"#utility.yul\":5278:5284   */\n  dup4\n    /* \"#utility.yul\":5271:5335   */\n  sstore\n    /* \"#utility.yul\":5193:5349   */\n  pop\n    /* \"#utility.yul\":5170:5349   */\ntag_107:\n    /* \"#utility.yul\":5395:5396   */\n  0x01\n    /* \"#utility.yul\":5391:5392   */\n  0x02\n    /* \"#utility.yul\":5383:5389   */\n  dup9\n    /* \"#utility.yul\":5379:5393   */\n  mul\n    /* \"#utility.yul\":5375:5397   */\n  add\n    /* \"#utility.yul\":5369:5373   */\n  dup9\n    /* \"#utility.yul\":5362:5398   */\n  sstore\n    /* \"#utility.yul\":4797:5408   */\n  pop\n  pop\n  pop\n    /* \"#utility.yul\":4760:5647   */\ntag_99:\n  pop\n    /* \"#utility.yul\":4350:5653   */\n  pop\n  pop\n  pop\n    /* \"#utility.yul\":4258:5653   */\n  pop\n  pop\n  jump\t// out\n    /* \"#utility.yul\":5659:5777   */\ntag_35:\n    /* \"#utility.yul\":5746:5770   */\n  tag_110\n    /* \"#utility.yul\":5764:5769   */\n  dup2\n    /* \"#utility.yul\":5746:5770   */\n  tag_15\n  jump\t// in\ntag_110:\n    /* \"#utility.yul\":5741:5744   */\n  dup3\n    /* \"#utility.yul\":5734:5771   */\n  mstore\n    /* \"#utility.yul\":5659:5777   */\n  pop\n  pop\n  jump\t// out\n    /* \"#utility.yul\":5783:5952   */\ntag_36:\n    /* \"#utility.yul\":5867:5878   */\n  0x00\n    /* \"#utility.yul\":5901:5907   */\n  dup3\n    /* \"#utility.yul\":5896:5899   */\n  dup3\n    /* \"#utility.yul\":5889:5908   */\n  mstore\n    /* \"#utility.yul\":5941:5945   */\n  0x20\n    /* \"#utility.yul\":5936:5939   */\n  dup3\n    /* \"#utility.yul\":5932:5946   */\n  add\n    /* \"#utility.yul\":5917:5946   */\n  swap1\n  pop\n    /* \"#utility.yul\":5783:5952   */\n  swap3\n  swap2\n  pop\n  pop\n  jump\t// out\n    /* \"#utility.yul\":5958:6097   */\ntag_37:\n    /* \"#utility.yul\":6047:6053   */\n  dup3\n    /* \"#utility.yul\":6042:6045   */\n  dup2\n    /* \"#utility.yul\":6037:6040   */\n  dup4\n    /* \"#utility.yul\":6031:6054   */\n  mcopy\n    /* \"#utility.yul\":6088:6089   */\n  0x00\n    /* \"#utility.yul\":6079:6085   */\n  dup4\n    /* \"#utility.yul\":6074:6077   */\n  dup4\n    /* \"#utility.yul\":6070:6086   */\n  add\n    /* \"#utility.yul\":6063:6090   */\n  mstore\n    /* \"#utility.yul\":5958:6097   */\n  pop\n  pop\n  pop\n  jump\t// out\n    /* \"#utility.yul\":6103:6205   */\ntag_38:\n    /* \"#utility.yul\":6144:6150   */\n  0x00\n    /* \"#utility.yul\":6195:6197   */\n  0x1f\n    /* \"#utility.yul\":6191:6198   */\n  not\n    /* \"#utility.yul\":6186:6188   */\n  0x1f\n    /* \"#utility.yul\":6179:6184   */\n  dup4\n    /* \"#utility.yul\":6175:6189   */\n  add\n    /* \"#utility.yul\":6171:6199   */\n  and\n    /* \"#utility.yul\":6161:6199   */\n  swap1\n  pop\n    /* \"#utility.yul\":6103:6205   */\n  swap2\n  swap1\n  pop\n  jump\t// out\n    /* \"#utility.yul\":6211:6588   */\ntag_39:\n    /* \"#utility.yul\":6299:6302   */\n  0x00\n    /* \"#utility.yul\":6327:6366   */\n  tag_115\n    /* \"#utility.yul\":6360:6365   */\n  dup3\n    /* \"#utility.yul\":6327:6366   */\n  tag_16\n  jump\t// in\ntag_115:\n    /* \"#utility.yul\":6382:6453   */\n  tag_116\n    /* \"#utility.yul\":6446:6452   */\n  dup2\n    /* \"#utility.yul\":6441:6444   */\n  dup6\n    /* \"#utility.yul\":6382:6453   */\n  tag_36\n  jump\t// in\ntag_116:\n    /* \"#utility.yul\":6375:6453   */\n  swap4\n  pop\n    /* \"#utility.yul\":6462:6527   */\n  tag_117\n    /* \"#utility.yul\":6520:6526   */\n  dup2\n    /* \"#utility.yul\":6515:6518   */\n  dup6\n    /* \"#utility.yul\":6508:6512   */\n  0x20\n    /* \"#utility.yul\":6501:6506   */\n  dup7\n    /* \"#utility.yul\":6497:6513   */\n  add\n    /* \"#utility.yul\":6462:6527   */\n  tag_37\n  jump\t// in\ntag_117:\n    /* \"#utility.yul\":6552:6581   */\n  tag_118\n    /* \"#utility.yul\":6574:6580   */\n  dup2\n    /* \"#utility.yul\":6552:6581   */\n  tag_38\n  jump\t// in\ntag_118:\n    /* \"#utility.yul\":6547:6550   */\n  dup5\n    /* \"#utility.yul\":6543:6582   */\n  add\n    /* \"#utility.yul\":6536:6582   */\n  swap2\n  pop\n    /* \"#utility.yul\":6303:6588   */\n  pop\n    /* \"#utility.yul\":6211:6588   */\n  swap3\n  swap2\n  pop\n  pop\n  jump\t// out\n    /* \"#utility.yul\":6594:6684   */\ntag_40:\n    /* \"#utility.yul\":6628:6635   */\n  0x00\n    /* \"#utility.yul\":6671:6676   */\n  dup2\n    /* \"#utility.yul\":6664:6677   */\n  iszero\n    /* \"#utility.yul\":6657:6678   */\n  iszero\n    /* \"#utility.yul\":6646:6678   */\n  swap1\n  pop\n    /* \"#utility.yul\":6594:6684   */\n  swap2\n  swap1\n  pop\n  jump\t// out\n    /* \"#utility.yul\":6690:6799   */\ntag_41:\n    /* \"#utility.yul\":6771:6792   */\n  tag_121\n    /* \"#utility.yul\":6786:6791   */\n  dup2\n    /* \"#utility.yul\":6771:6792   */\n  tag_40\n  jump\t// in\ntag_121:\n    /* \"#utility.yul\":6766:6769   */\n  dup3\n    /* \"#utility.yul\":6759:6793   */\n  mstore\n    /* \"#utility.yul\":6690:6799   */\n  pop\n  pop\n  jump\t// out\n    /* \"#utility.yul\":6805:7326   */\ntag_13:\n    /* \"#utility.yul\":6968:6972   */\n  0x00\n    /* \"#utility.yul\":7006:7008   */\n  0x60\n    /* \"#utility.yul\":6995:7004   */\n  dup3\n    /* \"#utility.yul\":6991:7009   */\n  add\n    /* \"#utility.yul\":6983:7009   */\n  swap1\n  pop\n    /* \"#utility.yul\":7019:7090   */\n  tag_123\n    /* \"#utility.yul\":7087:7088   */\n  0x00\n    /* \"#utility.yul\":7076:7085   */\n  dup4\n    /* \"#utility.yul\":7072:7089   */\n  add\n    /* \"#utility.yul\":7063:7069   */\n  dup7\n    /* \"#utility.yul\":7019:7090   */\n  tag_35\n  jump\t// in\ntag_123:\n    /* \"#utility.yul\":7137:7146   */\n  dup2\n    /* \"#utility.yul\":7131:7135   */\n  dup2\n    /* \"#utility.yul\":7127:7147   */\n  sub\n    /* \"#utility.yul\":7122:7124   */\n  0x20\n    /* \"#utility.yul\":7111:7120   */\n  dup4\n    /* \"#utility.yul\":7107:7125   */\n  add\n    /* \"#utility.yul\":7100:7148   */\n  mstore\n    /* \"#utility.yul\":7165:7243   */\n  tag_124\n    /* \"#utility.yul\":7238:7242   */\n  dup2\n    /* \"#utility.yul\":7229:7235   */\n  dup6\n    /* \"#utility.yul\":7165:7243   */\n  tag_39\n  jump\t// in\ntag_124:\n    /* \"#utility.yul\":7157:7243   */\n  swap1\n  pop\n    /* \"#utility.yul\":7253:7319   */\n  tag_125\n    /* \"#utility.yul\":7315:7317   */\n  0x40\n    /* \"#utility.yul\":7304:7313   */\n  dup4\n    /* \"#utility.yul\":7300:7318   */\n  add\n    /* \"#utility.yul\":7291:7297   */\n  dup5\n    /* \"#utility.yul\":7253:7319   */\n  tag_41\n  jump\t// in\ntag_125:\n    /* \"#utility.yul\":6805:7326   */\n  swap5\n  swap4\n  pop\n  pop\n  pop\n  pop\n  jump\t// out\n    /* \"ToDoList/main.sol\":61:872  contract ToDoList {... */\ntag_6:\n  dataSize(sub_0)\n  dup1\n  dataOffset(sub_0)\n  0x00\n  codecopy\n  0x00\n  return\nstop\n\nsub_0: assembly {\n        /* \"ToDoList/main.sol\":61:872  contract ToDoList {... */\n      mstore(0x40, 0x80)\n      callvalue\n      dup1\n      iszero\n      tag_1\n      jumpi\n      revert(0x00, 0x00)\n    tag_1:\n      pop\n      jumpi(tag_2, lt(calldatasize, 0x04))\n      shr(0xe0, calldataload(0x00))\n      dup1\n      0x111002aa\n      eq\n      tag_3\n      jumpi\n      dup1\n      0x8d977672\n      eq\n      tag_4\n      jumpi\n      dup1\n      0xa9bda587\n      eq\n      tag_5\n      jumpi\n      dup1\n      0xb6cb58a5\n      eq\n      tag_6\n      jumpi\n    tag_2:\n      revert(0x00, 0x00)\n        /* \"ToDoList/main.sol\":442:640  function createTask(string memory _content) public {... */\n    tag_3:\n      tag_7\n      0x04\n      dup1\n      calldatasize\n      sub\n      dup2\n      add\n      swap1\n      tag_8\n      swap2\n      swap1\n      tag_9\n      jump\t// in\n    tag_8:\n      tag_10\n      jump\t// in\n    tag_7:\n      stop\n        /* \"ToDoList/main.sol\":182:216  mapping(uint => Task) public tasks */\n    tag_4:\n      tag_11\n      0x04\n      dup1\n      calldatasize\n      sub\n      dup2\n      add\n      swap1\n      tag_12\n      swap2\n      swap1\n      tag_13\n      jump\t// in\n    tag_12:\n      tag_14\n      jump\t// in\n    tag_11:\n      mload(0x40)\n      tag_15\n      swap4\n      swap3\n      swap2\n      swap1\n      tag_16\n      jump\t// in\n    tag_15:\n      mload(0x40)\n      dup1\n      swap2\n      sub\n      swap1\n      return\n        /* \"ToDoList/main.sol\":648:869  function toggleTaskCompletion(uint _id) public {... */\n    tag_5:\n      tag_17\n      0x04\n      dup1\n      calldatasize\n      sub\n      dup2\n      add\n      swap1\n      tag_18\n      swap2\n      swap1\n      tag_13\n      jump\t// in\n    tag_18:\n      tag_19\n      jump\t// in\n    tag_17:\n      stop\n        /* \"ToDoList/main.sol\":223:248  uint public taskCount = 0 */\n    tag_6:\n      tag_20\n      tag_21\n      jump\t// in\n    tag_20:\n      mload(0x40)\n      tag_22\n      swap2\n      swap1\n      tag_23\n      jump\t// in\n    tag_22:\n      mload(0x40)\n      dup1\n      swap2\n      sub\n      swap1\n      return\n        /* \"ToDoList/main.sol\":442:640  function createTask(string memory _content) public {... */\n    tag_10:\n        /* \"ToDoList/main.sol\":504:513  taskCount */\n      0x01\n      0x00\n        /* \"ToDoList/main.sol\":504:515  taskCount++ */\n      dup2\n      sload\n      dup1\n      swap3\n      swap2\n      swap1\n      tag_25\n      swap1\n      tag_26\n      jump\t// in\n    tag_25:\n      swap2\n      swap1\n      pop\n      sstore\n      pop\n        /* \"ToDoList/main.sol\":545:577  Task(taskCount, _content, false) */\n      mload(0x40)\n      dup1\n      0x60\n      add\n      0x40\n      mstore\n      dup1\n        /* \"ToDoList/main.sol\":550:559  taskCount */\n      sload(0x01)\n        /* \"ToDoList/main.sol\":545:577  Task(taskCount, _content, false) */\n      dup2\n      mstore\n      0x20\n      add\n        /* \"ToDoList/main.sol\":561:569  _content */\n      dup3\n        /* \"ToDoList/main.sol\":545:577  Task(taskCount, _content, false) */\n      dup2\n      mstore\n      0x20\n      add\n        /* \"ToDoList/main.sol\":571:576  false */\n      0x00\n        /* \"ToDoList/main.sol\":545:577  Task(taskCount, _content, false) */\n      iszero\n      iszero\n      dup2\n      mstore\n      pop\n        /* \"ToDoList/main.sol\":526:531  tasks */\n      0x00\n        /* \"ToDoList/main.sol\":526:542  tasks[taskCount] */\n      0x00\n        /* \"ToDoList/main.sol\":532:541  taskCount */\n      sload(0x01)\n        /* \"ToDoList/main.sol\":526:542  tasks[taskCount] */\n      dup2\n      mstore\n      0x20\n      add\n      swap1\n      dup2\n      mstore\n      0x20\n      add\n      0x00\n      keccak256\n        /* \"ToDoList/main.sol\":526:577  tasks[taskCount] = Task(taskCount, _content, false) */\n      0x00\n      dup3\n      add\n      mload\n      dup2\n      0x00\n      add\n      sstore\n      0x20\n      dup3\n      add\n      mload\n      dup2\n      0x01\n      add\n      swap1\n      dup2\n      tag_27\n      swap2\n      swap1\n      tag_28\n      jump\t// in\n    tag_27:\n      pop\n      0x40\n      dup3\n      add\n      mload\n      dup2\n      0x02\n      add\n      exp(0x0100, 0x00)\n      dup2\n      sload\n      dup2\n      0xff\n      mul\n      not\n      and\n      swap1\n      dup4\n      iszero\n      iszero\n      mul\n      or\n      swap1\n      sstore\n      pop\n      swap1\n      pop\n      pop\n        /* \"ToDoList/main.sol\":593:632  TaskCreated(taskCount, _content, false) */\n      0x05d0fb833127fc08168556d0e7ca9554fc3f6bc843b3b7d2bf1c35aea6bab660\n        /* \"ToDoList/main.sol\":605:614  taskCount */\n      sload(0x01)\n        /* \"ToDoList/main.sol\":616:624  _content */\n      dup3\n        /* \"ToDoList/main.sol\":626:631  false */\n      0x00\n        /* \"ToDoList/main.sol\":593:632  TaskCreated(taskCount, _content, false) */\n      mload(0x40)\n      tag_29\n      swap4\n      swap3\n      swap2\n      swap1\n      tag_16\n      jump\t// in\n    tag_29:\n      mload(0x40)\n      dup1\n      swap2\n      sub\n      swap1\n      log1\n        /* \"ToDoList/main.sol\":442:640  function createTask(string memory _content) public {... */\n      pop\n      jump\t// out\n        /* \"ToDoList/main.sol\":182:216  mapping(uint => Task) public tasks */\n    tag_14:\n      mstore(0x20, 0x00)\n      dup1\n      0x00\n      mstore\n      keccak256(0x00, 0x40)\n      0x00\n      swap2\n      pop\n      swap1\n      pop\n      dup1\n      0x00\n      add\n      sload\n      swap1\n      dup1\n      0x01\n      add\n      dup1\n      sload\n      tag_30\n      swap1\n      tag_31\n      jump\t// in\n    tag_30:\n      dup1\n      0x1f\n      add\n      0x20\n      dup1\n      swap2\n      div\n      mul\n      0x20\n      add\n      mload(0x40)\n      swap1\n      dup2\n      add\n      0x40\n      mstore\n      dup1\n      swap3\n      swap2\n      swap1\n      dup2\n      dup2\n      mstore\n      0x20\n      add\n      dup3\n      dup1\n      sload\n      tag_32\n      swap1\n      tag_31\n      jump\t// in\n    tag_32:\n      dup1\n      iszero\n      tag_33\n      jumpi\n      dup1\n      0x1f\n      lt\n      tag_34\n      jumpi\n      0x0100\n      dup1\n      dup4\n      sload\n      div\n      mul\n      dup4\n      mstore\n      swap2\n      0x20\n      add\n      swap2\n      jump(tag_33)\n    tag_34:\n      dup3\n      add\n      swap2\n      swap1\n      0x00\n      mstore\n      keccak256(0x00, 0x20)\n      swap1\n    tag_35:\n      dup2\n      sload\n      dup2\n      mstore\n      swap1\n      0x01\n      add\n      swap1\n      0x20\n      add\n      dup1\n      dup4\n      gt\n      tag_35\n      jumpi\n      dup3\n      swap1\n      sub\n      0x1f\n      and\n      dup3\n      add\n      swap2\n    tag_33:\n      pop\n      pop\n      pop\n      pop\n      pop\n      swap1\n      dup1\n      0x02\n      add\n      0x00\n      swap1\n      sload\n      swap1\n      0x0100\n      exp\n      swap1\n      div\n      0xff\n      and\n      swap1\n      pop\n      dup4\n      jump\t// out\n        /* \"ToDoList/main.sol\":648:869  function toggleTaskCompletion(uint _id) public {... */\n    tag_19:\n        /* \"ToDoList/main.sol\":706:723  Task memory _task */\n      0x00\n        /* \"ToDoList/main.sol\":726:731  tasks */\n      0x00\n        /* \"ToDoList/main.sol\":726:736  tasks[_id] */\n      0x00\n        /* \"ToDoList/main.sol\":732:735  _id */\n      dup4\n        /* \"ToDoList/main.sol\":726:736  tasks[_id] */\n      dup2\n      mstore\n      0x20\n      add\n      swap1\n      dup2\n      mstore\n      0x20\n      add\n      0x00\n      keccak256\n        /* \"ToDoList/main.sol\":706:736  Task memory _task = tasks[_id] */\n      mload(0x40)\n      dup1\n      0x60\n      add\n      0x40\n      mstore\n      swap1\n      dup2\n      0x00\n      dup3\n      add\n      sload\n      dup2\n      mstore\n      0x20\n      add\n      0x01\n      dup3\n      add\n      dup1\n      sload\n      tag_37\n      swap1\n      tag_31\n      jump\t// in\n    tag_37:\n      dup1\n      0x1f\n      add\n      0x20\n      dup1\n      swap2\n      div\n      mul\n      0x20\n      add\n      mload(0x40)\n      swap1\n      dup2\n      add\n      0x40\n      mstore\n      dup1\n      swap3\n      swap2\n      swap1\n      dup2\n      dup2\n      mstore\n      0x20\n      add\n      dup3\n      dup1\n      sload\n      tag_38\n      swap1\n      tag_31\n      jump\t// in\n    tag_38:\n      dup1\n      iszero\n      tag_39\n      jumpi\n      dup1\n      0x1f\n      lt\n      tag_40\n      jumpi\n      0x0100\n      dup1\n      dup4\n      sload\n      div\n      mul\n      dup4\n      mstore\n      swap2\n      0x20\n      add\n      swap2\n      jump(tag_39)\n    tag_40:\n      dup3\n      add\n      swap2\n      swap1\n      0x00\n      mstore\n      keccak256(0x00, 0x20)\n      swap1\n    tag_41:\n      dup2\n      sload\n      dup2\n      mstore\n      swap1\n      0x01\n      add\n      swap1\n      0x20\n      add\n      dup1\n      dup4\n      gt\n      tag_41\n      jumpi\n      dup3\n      swap1\n      sub\n      0x1f\n      and\n      dup3\n      add\n      swap2\n    tag_39:\n      pop\n      pop\n      pop\n      pop\n      pop\n      dup2\n      mstore\n      0x20\n      add\n      0x02\n      dup3\n      add\n      0x00\n      swap1\n      sload\n      swap1\n      0x0100\n      exp\n      swap1\n      div\n      0xff\n      and\n      iszero\n      iszero\n      iszero\n      iszero\n      dup2\n      mstore\n      pop\n      pop\n      swap1\n      pop\n        /* \"ToDoList/main.sol\":766:771  _task */\n      dup1\n        /* \"ToDoList/main.sol\":766:781  _task.completed */\n      0x40\n      add\n      mload\n        /* \"ToDoList/main.sol\":765:781  !_task.completed */\n      iszero\n        /* \"ToDoList/main.sol\":747:752  _task */\n      dup2\n        /* \"ToDoList/main.sol\":747:762  _task.completed */\n      0x40\n      add\n        /* \"ToDoList/main.sol\":747:781  _task.completed = !_task.completed */\n      swap1\n      iszero\n      iszero\n      swap1\n      dup2\n      iszero\n      iszero\n      dup2\n      mstore\n      pop\n      pop\n        /* \"ToDoList/main.sol\":805:810  _task */\n      dup1\n        /* \"ToDoList/main.sol\":792:797  tasks */\n      0x00\n        /* \"ToDoList/main.sol\":792:802  tasks[_id] */\n      0x00\n        /* \"ToDoList/main.sol\":798:801  _id */\n      dup5\n        /* \"ToDoList/main.sol\":792:802  tasks[_id] */\n      dup2\n      mstore\n      0x20\n      add\n      swap1\n      dup2\n      mstore\n      0x20\n      add\n      0x00\n      keccak256\n        /* \"ToDoList/main.sol\":792:810  tasks[_id] = _task */\n      0x00\n      dup3\n      add\n      mload\n      dup2\n      0x00\n      add\n      sstore\n      0x20\n      dup3\n      add\n      mload\n      dup2\n      0x01\n      add\n      swap1\n      dup2\n      tag_42\n      swap2\n      swap1\n      tag_28\n      jump\t// in\n    tag_42:\n      pop\n      0x40\n      dup3\n      add\n      mload\n      dup2\n      0x02\n      add\n      exp(0x0100, 0x00)\n      dup2\n      sload\n      dup2\n      0xff\n      mul\n      not\n      and\n      swap1\n      dup4\n      iszero\n      iszero\n      mul\n      or\n      swap1\n      sstore\n      pop\n      swap1\n      pop\n      pop\n        /* \"ToDoList/main.sol\":826:861  TaskCompleted(_id, _task.completed) */\n      0xe21fa966ca5cd02748c0752352d18c48165e61cb55b4c29cccf924b5a95fcff1\n        /* \"ToDoList/main.sol\":840:843  _id */\n      dup3\n        /* \"ToDoList/main.sol\":845:850  _task */\n      dup3\n        /* \"ToDoList/main.sol\":845:860  _task.completed */\n      0x40\n      add\n      mload\n        /* \"ToDoList/main.sol\":826:861  TaskCompleted(_id, _task.completed) */\n      mload(0x40)\n      tag_43\n      swap3\n      swap2\n      swap1\n      tag_44\n      jump\t// in\n    tag_43:\n      mload(0x40)\n      dup1\n      swap2\n      sub\n      swap1\n      log1\n        /* \"ToDoList/main.sol\":695:869  {... */\n      pop\n        /* \"ToDoList/main.sol\":648:869  function toggleTaskCompletion(uint _id) public {... */\n      pop\n      jump\t// out\n        /* \"ToDoList/main.sol\":223:248  uint public taskCount = 0 */\n    tag_21:\n      sload(0x01)\n      dup2\n      jump\t// out\n        /* \"#utility.yul\":7:82   */\n    tag_45:\n        /* \"#utility.yul\":40:46   */\n      0x00\n        /* \"#utility.yul\":73:75   */\n      0x40\n        /* \"#utility.yul\":67:76   */\n      mload\n        /* \"#utility.yul\":57:76   */\n      swap1\n      pop\n        /* \"#utility.yul\":7:82   */\n      swap1\n      jump\t// out\n        /* \"#utility.yul\":88:205   */\n    tag_46:\n        /* \"#utility.yul\":197:198   */\n      0x00\n        /* \"#utility.yul\":194:195   */\n      0x00\n        /* \"#utility.yul\":187:199   */\n      revert\n        /* \"#utility.yul\":211:328   */\n    tag_47:\n        /* \"#utility.yul\":320:321   */\n      0x00\n        /* \"#utility.yul\":317:318   */\n      0x00\n        /* \"#utility.yul\":310:322   */\n      revert\n        /* \"#utility.yul\":334:451   */\n    tag_48:\n        /* \"#utility.yul\":443:444   */\n      0x00\n        /* \"#utility.yul\":440:441   */\n      0x00\n        /* \"#utility.yul\":433:445   */\n      revert\n        /* \"#utility.yul\":457:574   */\n    tag_49:\n        /* \"#utility.yul\":566:567   */\n      0x00\n        /* \"#utility.yul\":563:564   */\n      0x00\n        /* \"#utility.yul\":556:568   */\n      revert\n        /* \"#utility.yul\":580:682   */\n    tag_50:\n        /* \"#utility.yul\":621:627   */\n      0x00\n        /* \"#utility.yul\":672:674   */\n      0x1f\n        /* \"#utility.yul\":668:675   */\n      not\n        /* \"#utility.yul\":663:665   */\n      0x1f\n        /* \"#utility.yul\":656:661   */\n      dup4\n        /* \"#utility.yul\":652:666   */\n      add\n        /* \"#utility.yul\":648:676   */\n      and\n        /* \"#utility.yul\":638:676   */\n      swap1\n      pop\n        /* \"#utility.yul\":580:682   */\n      swap2\n      swap1\n      pop\n      jump\t// out\n        /* \"#utility.yul\":688:868   */\n    tag_51:\n        /* \"#utility.yul\":736:813   */\n      0x4e487b7100000000000000000000000000000000000000000000000000000000\n        /* \"#utility.yul\":733:734   */\n      0x00\n        /* \"#utility.yul\":726:814   */\n      mstore\n        /* \"#utility.yul\":833:837   */\n      0x41\n        /* \"#utility.yul\":830:831   */\n      0x04\n        /* \"#utility.yul\":823:838   */\n      mstore\n        /* \"#utility.yul\":857:861   */\n      0x24\n        /* \"#utility.yul\":854:855   */\n      0x00\n        /* \"#utility.yul\":847:862   */\n      revert\n        /* \"#utility.yul\":874:1155   */\n    tag_52:\n        /* \"#utility.yul\":957:984   */\n      tag_94\n        /* \"#utility.yul\":979:983   */\n      dup3\n        /* \"#utility.yul\":957:984   */\n      tag_50\n      jump\t// in\n    tag_94:\n        /* \"#utility.yul\":949:955   */\n      dup2\n        /* \"#utility.yul\":945:985   */\n      add\n        /* \"#utility.yul\":1087:1093   */\n      dup2\n        /* \"#utility.yul\":1075:1085   */\n      dup2\n        /* \"#utility.yul\":1072:1094   */\n      lt\n        /* \"#utility.yul\":1051:1069   */\n      0xffffffffffffffff\n        /* \"#utility.yul\":1039:1049   */\n      dup3\n        /* \"#utility.yul\":1036:1070   */\n      gt\n        /* \"#utility.yul\":1033:1095   */\n      or\n        /* \"#utility.yul\":1030:1118   */\n      iszero\n      tag_95\n      jumpi\n        /* \"#utility.yul\":1098:1116   */\n      tag_96\n      tag_51\n      jump\t// in\n    tag_96:\n        /* \"#utility.yul\":1030:1118   */\n    tag_95:\n        /* \"#utility.yul\":1138:1148   */\n      dup1\n        /* \"#utility.yul\":1134:1136   */\n      0x40\n        /* \"#utility.yul\":1127:1149   */\n      mstore\n        /* \"#utility.yul\":917:1155   */\n      pop\n        /* \"#utility.yul\":874:1155   */\n      pop\n      pop\n      jump\t// out\n        /* \"#utility.yul\":1161:1290   */\n    tag_53:\n        /* \"#utility.yul\":1195:1201   */\n      0x00\n        /* \"#utility.yul\":1222:1242   */\n      tag_98\n      tag_45\n      jump\t// in\n    tag_98:\n        /* \"#utility.yul\":1212:1242   */\n      swap1\n      pop\n        /* \"#utility.yul\":1251:1284   */\n      tag_99\n        /* \"#utility.yul\":1279:1283   */\n      dup3\n        /* \"#utility.yul\":1271:1277   */\n      dup3\n        /* \"#utility.yul\":1251:1284   */\n      tag_52\n      jump\t// in\n    tag_99:\n        /* \"#utility.yul\":1161:1290   */\n      swap2\n      swap1\n      pop\n      jump\t// out\n        /* \"#utility.yul\":1296:1604   */\n    tag_54:\n        /* \"#utility.yul\":1358:1362   */\n      0x00\n        /* \"#utility.yul\":1448:1466   */\n      0xffffffffffffffff\n        /* \"#utility.yul\":1440:1446   */\n      dup3\n        /* \"#utility.yul\":1437:1467   */\n      gt\n        /* \"#utility.yul\":1434:1490   */\n      iszero\n      tag_101\n      jumpi\n        /* \"#utility.yul\":1470:1488   */\n      tag_102\n      tag_51\n      jump\t// in\n    tag_102:\n        /* \"#utility.yul\":1434:1490   */\n    tag_101:\n        /* \"#utility.yul\":1508:1537   */\n      tag_103\n        /* \"#utility.yul\":1530:1536   */\n      dup3\n        /* \"#utility.yul\":1508:1537   */\n      tag_50\n      jump\t// in\n    tag_103:\n        /* \"#utility.yul\":1500:1537   */\n      swap1\n      pop\n        /* \"#utility.yul\":1592:1596   */\n      0x20\n        /* \"#utility.yul\":1586:1590   */\n      dup2\n        /* \"#utility.yul\":1582:1597   */\n      add\n        /* \"#utility.yul\":1574:1597   */\n      swap1\n      pop\n        /* \"#utility.yul\":1296:1604   */\n      swap2\n      swap1\n      pop\n      jump\t// out\n        /* \"#utility.yul\":1610:1758   */\n    tag_55:\n        /* \"#utility.yul\":1708:1714   */\n      dup3\n        /* \"#utility.yul\":1703:1706   */\n      dup2\n        /* \"#utility.yul\":1698:1701   */\n      dup4\n        /* \"#utility.yul\":1685:1715   */\n      calldatacopy\n        /* \"#utility.yul\":1749:1750   */\n      0x00\n        /* \"#utility.yul\":1740:1746   */\n      dup4\n        /* \"#utility.yul\":1735:1738   */\n      dup4\n        /* \"#utility.yul\":1731:1747   */\n      add\n        /* \"#utility.yul\":1724:1751   */\n      mstore\n        /* \"#utility.yul\":1610:1758   */\n      pop\n      pop\n      pop\n      jump\t// out\n        /* \"#utility.yul\":1764:2189   */\n    tag_56:\n        /* \"#utility.yul\":1842:1847   */\n      0x00\n        /* \"#utility.yul\":1867:1933   */\n      tag_106\n        /* \"#utility.yul\":1883:1932   */\n      tag_107\n        /* \"#utility.yul\":1925:1931   */\n      dup5\n        /* \"#utility.yul\":1883:1932   */\n      tag_54\n      jump\t// in\n    tag_107:\n        /* \"#utility.yul\":1867:1933   */\n      tag_53\n      jump\t// in\n    tag_106:\n        /* \"#utility.yul\":1858:1933   */\n      swap1\n      pop\n        /* \"#utility.yul\":1956:1962   */\n      dup3\n        /* \"#utility.yul\":1949:1954   */\n      dup2\n        /* \"#utility.yul\":1942:1963   */\n      mstore\n        /* \"#utility.yul\":1994:1998   */\n      0x20\n        /* \"#utility.yul\":1987:1992   */\n      dup2\n        /* \"#utility.yul\":1983:1999   */\n      add\n        /* \"#utility.yul\":2032:2035   */\n      dup5\n        /* \"#utility.yul\":2023:2029   */\n      dup5\n        /* \"#utility.yul\":2018:2021   */\n      dup5\n        /* \"#utility.yul\":2014:2030   */\n      add\n        /* \"#utility.yul\":2011:2036   */\n      gt\n        /* \"#utility.yul\":2008:2120   */\n      iszero\n      tag_108\n      jumpi\n        /* \"#utility.yul\":2039:2118   */\n      tag_109\n      tag_49\n      jump\t// in\n    tag_109:\n        /* \"#utility.yul\":2008:2120   */\n    tag_108:\n        /* \"#utility.yul\":2129:2183   */\n      tag_110\n        /* \"#utility.yul\":2176:2182   */\n      dup5\n        /* \"#utility.yul\":2171:2174   */\n      dup3\n        /* \"#utility.yul\":2166:2169   */\n      dup6\n        /* \"#utility.yul\":2129:2183   */\n      tag_55\n      jump\t// in\n    tag_110:\n        /* \"#utility.yul\":1848:2189   */\n      pop\n        /* \"#utility.yul\":1764:2189   */\n      swap4\n      swap3\n      pop\n      pop\n      pop\n      jump\t// out\n        /* \"#utility.yul\":2209:2549   */\n    tag_57:\n        /* \"#utility.yul\":2265:2270   */\n      0x00\n        /* \"#utility.yul\":2314:2317   */\n      dup3\n        /* \"#utility.yul\":2307:2311   */\n      0x1f\n        /* \"#utility.yul\":2299:2305   */\n      dup4\n        /* \"#utility.yul\":2295:2312   */\n      add\n        /* \"#utility.yul\":2291:2318   */\n      slt\n        /* \"#utility.yul\":2281:2403   */\n      tag_112\n      jumpi\n        /* \"#utility.yul\":2322:2401   */\n      tag_113\n      tag_48\n      jump\t// in\n    tag_113:\n        /* \"#utility.yul\":2281:2403   */\n    tag_112:\n        /* \"#utility.yul\":2439:2445   */\n      dup2\n        /* \"#utility.yul\":2426:2446   */\n      calldataload\n        /* \"#utility.yul\":2464:2543   */\n      tag_114\n        /* \"#utility.yul\":2539:2542   */\n      dup5\n        /* \"#utility.yul\":2531:2537   */\n      dup3\n        /* \"#utility.yul\":2524:2528   */\n      0x20\n        /* \"#utility.yul\":2516:2522   */\n      dup7\n        /* \"#utility.yul\":2512:2529   */\n      add\n        /* \"#utility.yul\":2464:2543   */\n      tag_56\n      jump\t// in\n    tag_114:\n        /* \"#utility.yul\":2455:2543   */\n      swap2\n      pop\n        /* \"#utility.yul\":2271:2549   */\n      pop\n        /* \"#utility.yul\":2209:2549   */\n      swap3\n      swap2\n      pop\n      pop\n      jump\t// out\n        /* \"#utility.yul\":2555:3064   */\n    tag_9:\n        /* \"#utility.yul\":2624:2630   */\n      0x00\n        /* \"#utility.yul\":2673:2675   */\n      0x20\n        /* \"#utility.yul\":2661:2670   */\n      dup3\n        /* \"#utility.yul\":2652:2659   */\n      dup5\n        /* \"#utility.yul\":2648:2671   */\n      sub\n        /* \"#utility.yul\":2644:2676   */\n      slt\n        /* \"#utility.yul\":2641:2760   */\n      iszero\n      tag_116\n      jumpi\n        /* \"#utility.yul\":2679:2758   */\n      tag_117\n      tag_46\n      jump\t// in\n    tag_117:\n        /* \"#utility.yul\":2641:2760   */\n    tag_116:\n        /* \"#utility.yul\":2827:2828   */\n      0x00\n        /* \"#utility.yul\":2816:2825   */\n      dup3\n        /* \"#utility.yul\":2812:2829   */\n      add\n        /* \"#utility.yul\":2799:2830   */\n      calldataload\n        /* \"#utility.yul\":2857:2875   */\n      0xffffffffffffffff\n        /* \"#utility.yul\":2849:2855   */\n      dup2\n        /* \"#utility.yul\":2846:2876   */\n      gt\n        /* \"#utility.yul\":2843:2960   */\n      iszero\n      tag_118\n      jumpi\n        /* \"#utility.yul\":2879:2958   */\n      tag_119\n      tag_47\n      jump\t// in\n    tag_119:\n        /* \"#utility.yul\":2843:2960   */\n    tag_118:\n        /* \"#utility.yul\":2984:3047   */\n      tag_120\n        /* \"#utility.yul\":3039:3046   */\n      dup5\n        /* \"#utility.yul\":3030:3036   */\n      dup3\n        /* \"#utility.yul\":3019:3028   */\n      dup6\n        /* \"#utility.yul\":3015:3037   */\n      add\n        /* \"#utility.yul\":2984:3047   */\n      tag_57\n      jump\t// in\n    tag_120:\n        /* \"#utility.yul\":2974:3047   */\n      swap2\n      pop\n        /* \"#utility.yul\":2770:3057   */\n      pop\n        /* \"#utility.yul\":2555:3064   */\n      swap3\n      swap2\n      pop\n      pop\n      jump\t// out\n        /* \"#utility.yul\":3070:3147   */\n    tag_58:\n        /* \"#utility.yul\":3107:3114   */\n      0x00\n        /* \"#utility.yul\":3136:3141   */\n      dup2\n        /* \"#utility.yul\":3125:3141   */\n      swap1\n      pop\n        /* \"#utility.yul\":3070:3147   */\n      swap2\n      swap1\n      pop\n      jump\t// out\n        /* \"#utility.yul\":3153:3275   */\n    tag_59:\n        /* \"#utility.yul\":3226:3250   */\n      tag_123\n        /* \"#utility.yul\":3244:3249   */\n      dup2\n        /* \"#utility.yul\":3226:3250   */\n      tag_58\n      jump\t// in\n    tag_123:\n        /* \"#utility.yul\":3219:3224   */\n      dup2\n        /* \"#utility.yul\":3216:3251   */\n      eq\n        /* \"#utility.yul\":3206:3269   */\n      tag_124\n      jumpi\n        /* \"#utility.yul\":3265:3266   */\n      0x00\n        /* \"#utility.yul\":3262:3263   */\n      0x00\n        /* \"#utility.yul\":3255:3267   */\n      revert\n        /* \"#utility.yul\":3206:3269   */\n    tag_124:\n        /* \"#utility.yul\":3153:3275   */\n      pop\n      jump\t// out\n        /* \"#utility.yul\":3281:3420   */\n    tag_60:\n        /* \"#utility.yul\":3327:3332   */\n      0x00\n        /* \"#utility.yul\":3365:3371   */\n      dup2\n        /* \"#utility.yul\":3352:3372   */\n      calldataload\n        /* \"#utility.yul\":3343:3372   */\n      swap1\n      pop\n        /* \"#utility.yul\":3381:3414   */\n      tag_126\n        /* \"#utility.yul\":3408:3413   */\n      dup2\n        /* \"#utility.yul\":3381:3414   */\n      tag_59\n      jump\t// in\n    tag_126:\n        /* \"#utility.yul\":3281:3420   */\n      swap3\n      swap2\n      pop\n      pop\n      jump\t// out\n        /* \"#utility.yul\":3426:3755   */\n    tag_13:\n        /* \"#utility.yul\":3485:3491   */\n      0x00\n        /* \"#utility.yul\":3534:3536   */\n      0x20\n        /* \"#utility.yul\":3522:3531   */\n      dup3\n        /* \"#utility.yul\":3513:3520   */\n      dup5\n        /* \"#utility.yul\":3509:3532   */\n      sub\n        /* \"#utility.yul\":3505:3537   */\n      slt\n        /* \"#utility.yul\":3502:3621   */\n      iszero\n      tag_128\n      jumpi\n        /* \"#utility.yul\":3540:3619   */\n      tag_129\n      tag_46\n      jump\t// in\n    tag_129:\n        /* \"#utility.yul\":3502:3621   */\n    tag_128:\n        /* \"#utility.yul\":3660:3661   */\n      0x00\n        /* \"#utility.yul\":3685:3738   */\n      tag_130\n        /* \"#utility.yul\":3730:3737   */\n      dup5\n        /* \"#utility.yul\":3721:3727   */\n      dup3\n        /* \"#utility.yul\":3710:3719   */\n      dup6\n        /* \"#utility.yul\":3706:3728   */\n      add\n        /* \"#utility.yul\":3685:3738   */\n      tag_60\n      jump\t// in\n    tag_130:\n        /* \"#utility.yul\":3675:3738   */\n      swap2\n      pop\n        /* \"#utility.yul\":3631:3748   */\n      pop\n        /* \"#utility.yul\":3426:3755   */\n      swap3\n      swap2\n      pop\n      pop\n      jump\t// out\n        /* \"#utility.yul\":3761:3879   */\n    tag_61:\n        /* \"#utility.yul\":3848:3872   */\n      tag_132\n        /* \"#utility.yul\":3866:3871   */\n      dup2\n        /* \"#utility.yul\":3848:3872   */\n      tag_58\n      jump\t// in\n    tag_132:\n        /* \"#utility.yul\":3843:3846   */\n      dup3\n        /* \"#utility.yul\":3836:3873   */\n      mstore\n        /* \"#utility.yul\":3761:3879   */\n      pop\n      pop\n      jump\t// out\n        /* \"#utility.yul\":3885:3984   */\n    tag_62:\n        /* \"#utility.yul\":3937:3943   */\n      0x00\n        /* \"#utility.yul\":3971:3976   */\n      dup2\n        /* \"#utility.yul\":3965:3977   */\n      mload\n        /* \"#utility.yul\":3955:3977   */\n      swap1\n      pop\n        /* \"#utility.yul\":3885:3984   */\n      swap2\n      swap1\n      pop\n      jump\t// out\n        /* \"#utility.yul\":3990:4159   */\n    tag_63:\n        /* \"#utility.yul\":4074:4085   */\n      0x00\n        /* \"#utility.yul\":4108:4114   */\n      dup3\n        /* \"#utility.yul\":4103:4106   */\n      dup3\n        /* \"#utility.yul\":4096:4115   */\n      mstore\n        /* \"#utility.yul\":4148:4152   */\n      0x20\n        /* \"#utility.yul\":4143:4146   */\n      dup3\n        /* \"#utility.yul\":4139:4153   */\n      add\n        /* \"#utility.yul\":4124:4153   */\n      swap1\n      pop\n        /* \"#utility.yul\":3990:4159   */\n      swap3\n      swap2\n      pop\n      pop\n      jump\t// out\n        /* \"#utility.yul\":4165:4304   */\n    tag_64:\n        /* \"#utility.yul\":4254:4260   */\n      dup3\n        /* \"#utility.yul\":4249:4252   */\n      dup2\n        /* \"#utility.yul\":4244:4247   */\n      dup4\n        /* \"#utility.yul\":4238:4261   */\n      mcopy\n        /* \"#utility.yul\":4295:4296   */\n      0x00\n        /* \"#utility.yul\":4286:4292   */\n      dup4\n        /* \"#utility.yul\":4281:4284   */\n      dup4\n        /* \"#utility.yul\":4277:4293   */\n      add\n        /* \"#utility.yul\":4270:4297   */\n      mstore\n        /* \"#utility.yul\":4165:4304   */\n      pop\n      pop\n      pop\n      jump\t// out\n        /* \"#utility.yul\":4310:4687   */\n    tag_65:\n        /* \"#utility.yul\":4398:4401   */\n      0x00\n        /* \"#utility.yul\":4426:4465   */\n      tag_137\n        /* \"#utility.yul\":4459:4464   */\n      dup3\n        /* \"#utility.yul\":4426:4465   */\n      tag_62\n      jump\t// in\n    tag_137:\n        /* \"#utility.yul\":4481:4552   */\n      tag_138\n        /* \"#utility.yul\":4545:4551   */\n      dup2\n        /* \"#utility.yul\":4540:4543   */\n      dup6\n        /* \"#utility.yul\":4481:4552   */\n      tag_63\n      jump\t// in\n    tag_138:\n        /* \"#utility.yul\":4474:4552   */\n      swap4\n      pop\n        /* \"#utility.yul\":4561:4626   */\n      tag_139\n        /* \"#utility.yul\":4619:4625   */\n      dup2\n        /* \"#utility.yul\":4614:4617   */\n      dup6\n        /* \"#utility.yul\":4607:4611   */\n      0x20\n        /* \"#utility.yul\":4600:4605   */\n      dup7\n        /* \"#utility.yul\":4596:4612   */\n      add\n        /* \"#utility.yul\":4561:4626   */\n      tag_64\n      jump\t// in\n    tag_139:\n        /* \"#utility.yul\":4651:4680   */\n      tag_140\n        /* \"#utility.yul\":4673:4679   */\n      dup2\n        /* \"#utility.yul\":4651:4680   */\n      tag_50\n      jump\t// in\n    tag_140:\n        /* \"#utility.yul\":4646:4649   */\n      dup5\n        /* \"#utility.yul\":4642:4681   */\n      add\n        /* \"#utility.yul\":4635:4681   */\n      swap2\n      pop\n        /* \"#utility.yul\":4402:4687   */\n      pop\n        /* \"#utility.yul\":4310:4687   */\n      swap3\n      swap2\n      pop\n      pop\n      jump\t// out\n        /* \"#utility.yul\":4693:4783   */\n    tag_66:\n        /* \"#utility.yul\":4727:4734   */\n      0x00\n        /* \"#utility.yul\":4770:4775   */\n      dup2\n        /* \"#utility.yul\":4763:4776   */\n      iszero\n        /* \"#utility.yul\":4756:4777   */\n      iszero\n        /* \"#utility.yul\":4745:4777   */\n      swap1\n      pop\n        /* \"#utility.yul\":4693:4783   */\n      swap2\n      swap1\n      pop\n      jump\t// out\n        /* \"#utility.yul\":4789:4898   */\n    tag_67:\n        /* \"#utility.yul\":4870:4891   */\n      tag_143\n        /* \"#utility.yul\":4885:4890   */\n      dup2\n        /* \"#utility.yul\":4870:4891   */\n      tag_66\n      jump\t// in\n    tag_143:\n        /* \"#utility.yul\":4865:4868   */\n      dup3\n        /* \"#utility.yul\":4858:4892   */\n      mstore\n        /* \"#utility.yul\":4789:4898   */\n      pop\n      pop\n      jump\t// out\n        /* \"#utility.yul\":4904:5425   */\n    tag_16:\n        /* \"#utility.yul\":5067:5071   */\n      0x00\n        /* \"#utility.yul\":5105:5107   */\n      0x60\n        /* \"#utility.yul\":5094:5103   */\n      dup3\n        /* \"#utility.yul\":5090:5108   */\n      add\n        /* \"#utility.yul\":5082:5108   */\n      swap1\n      pop\n        /* \"#utility.yul\":5118:5189   */\n      tag_145\n        /* \"#utility.yul\":5186:5187   */\n      0x00\n        /* \"#utility.yul\":5175:5184   */\n      dup4\n        /* \"#utility.yul\":5171:5188   */\n      add\n        /* \"#utility.yul\":5162:5168   */\n      dup7\n        /* \"#utility.yul\":5118:5189   */\n      tag_61\n      jump\t// in\n    tag_145:\n        /* \"#utility.yul\":5236:5245   */\n      dup2\n        /* \"#utility.yul\":5230:5234   */\n      dup2\n        /* \"#utility.yul\":5226:5246   */\n      sub\n        /* \"#utility.yul\":5221:5223   */\n      0x20\n        /* \"#utility.yul\":5210:5219   */\n      dup4\n        /* \"#utility.yul\":5206:5224   */\n      add\n        /* \"#utility.yul\":5199:5247   */\n      mstore\n        /* \"#utility.yul\":5264:5342   */\n      tag_146\n        /* \"#utility.yul\":5337:5341   */\n      dup2\n        /* \"#utility.yul\":5328:5334   */\n      dup6\n        /* \"#utility.yul\":5264:5342   */\n      tag_65\n      jump\t// in\n    tag_146:\n        /* \"#utility.yul\":5256:5342   */\n      swap1\n      pop\n        /* \"#utility.yul\":5352:5418   */\n      tag_147\n        /* \"#utility.yul\":5414:5416   */\n      0x40\n        /* \"#utility.yul\":5403:5412   */\n      dup4\n        /* \"#utility.yul\":5399:5417   */\n      add\n        /* \"#utility.yul\":5390:5396   */\n      dup5\n        /* \"#utility.yul\":5352:5418   */\n      tag_67\n      jump\t// in\n    tag_147:\n        /* \"#utility.yul\":4904:5425   */\n      swap5\n      swap4\n      pop\n      pop\n      pop\n      pop\n      jump\t// out\n        /* \"#utility.yul\":5431:5653   */\n    tag_23:\n        /* \"#utility.yul\":5524:5528   */\n      0x00\n        /* \"#utility.yul\":5562:5564   */\n      0x20\n        /* \"#utility.yul\":5551:5560   */\n      dup3\n        /* \"#utility.yul\":5547:5565   */\n      add\n        /* \"#utility.yul\":5539:5565   */\n      swap1\n      pop\n        /* \"#utility.yul\":5575:5646   */\n      tag_149\n        /* \"#utility.yul\":5643:5644   */\n      0x00\n        /* \"#utility.yul\":5632:5641   */\n      dup4\n        /* \"#utility.yul\":5628:5645   */\n      add\n        /* \"#utility.yul\":5619:5625   */\n      dup5\n        /* \"#utility.yul\":5575:5646   */\n      tag_61\n      jump\t// in\n    tag_149:\n        /* \"#utility.yul\":5431:5653   */\n      swap3\n      swap2\n      pop\n      pop\n      jump\t// out\n        /* \"#utility.yul\":5659:5839   */\n    tag_68:\n        /* \"#utility.yul\":5707:5784   */\n      0x4e487b7100000000000000000000000000000000000000000000000000000000\n        /* \"#utility.yul\":5704:5705   */\n      0x00\n        /* \"#utility.yul\":5697:5785   */\n      mstore\n        /* \"#utility.yul\":5804:5808   */\n      0x11\n        /* \"#utility.yul\":5801:5802   */\n      0x04\n        /* \"#utility.yul\":5794:5809   */\n      mstore\n        /* \"#utility.yul\":5828:5832   */\n      0x24\n        /* \"#utility.yul\":5825:5826   */\n      0x00\n        /* \"#utility.yul\":5818:5833   */\n      revert\n        /* \"#utility.yul\":5845:6078   */\n    tag_26:\n        /* \"#utility.yul\":5884:5887   */\n      0x00\n        /* \"#utility.yul\":5907:5931   */\n      tag_152\n        /* \"#utility.yul\":5925:5930   */\n      dup3\n        /* \"#utility.yul\":5907:5931   */\n      tag_58\n      jump\t// in\n    tag_152:\n        /* \"#utility.yul\":5898:5931   */\n      swap2\n      pop\n        /* \"#utility.yul\":5953:6019   */\n      0xffffffffffffffffffffffffffffffffffffffffffffffffffffffffffffffff\n        /* \"#utility.yul\":5946:5951   */\n      dup3\n        /* \"#utility.yul\":5943:6020   */\n      sub\n        /* \"#utility.yul\":5940:6043   */\n      tag_153\n      jumpi\n        /* \"#utility.yul\":6023:6041   */\n      tag_154\n      tag_68\n      jump\t// in\n    tag_154:\n        /* \"#utility.yul\":5940:6043   */\n    tag_153:\n        /* \"#utility.yul\":6070:6071   */\n      0x01\n        /* \"#utility.yul\":6063:6068   */\n      dup3\n        /* \"#utility.yul\":6059:6072   */\n      add\n        /* \"#utility.yul\":6052:6072   */\n      swap1\n      pop\n        /* \"#utility.yul\":5845:6078   */\n      swap2\n      swap1\n      pop\n      jump\t// out\n        /* \"#utility.yul\":6084:6264   */\n    tag_69:\n        /* \"#utility.yul\":6132:6209   */\n      0x4e487b7100000000000000000000000000000000000000000000000000000000\n        /* \"#utility.yul\":6129:6130   */\n      0x00\n        /* \"#utility.yul\":6122:6210   */\n      mstore\n        /* \"#utility.yul\":6229:6233   */\n      0x22\n        /* \"#utility.yul\":6226:6227   */\n      0x04\n        /* \"#utility.yul\":6219:6234   */\n      mstore\n        /* \"#utility.yul\":6253:6257   */\n      0x24\n        /* \"#utility.yul\":6250:6251   */\n      0x00\n        /* \"#utility.yul\":6243:6258   */\n      revert\n        /* \"#utility.yul\":6270:6590   */\n    tag_31:\n        /* \"#utility.yul\":6314:6320   */\n      0x00\n        /* \"#utility.yul\":6351:6352   */\n      0x02\n        /* \"#utility.yul\":6345:6349   */\n      dup3\n        /* \"#utility.yul\":6341:6353   */\n      div\n        /* \"#utility.yul\":6331:6353   */\n      swap1\n      pop\n        /* \"#utility.yul\":6398:6399   */\n      0x01\n        /* \"#utility.yul\":6392:6396   */\n      dup3\n        /* \"#utility.yul\":6388:6400   */\n      and\n        /* \"#utility.yul\":6419:6437   */\n      dup1\n        /* \"#utility.yul\":6409:6490   */\n      tag_157\n      jumpi\n        /* \"#utility.yul\":6475:6479   */\n      0x7f\n        /* \"#utility.yul\":6467:6473   */\n      dup3\n        /* \"#utility.yul\":6463:6480   */\n      and\n        /* \"#utility.yul\":6453:6480   */\n      swap2\n      pop\n        /* \"#utility.yul\":6409:6490   */\n    tag_157:\n        /* \"#utility.yul\":6537:6539   */\n      0x20\n        /* \"#utility.yul\":6529:6535   */\n      dup3\n        /* \"#utility.yul\":6526:6540   */\n      lt\n        /* \"#utility.yul\":6506:6524   */\n      dup2\n        /* \"#utility.yul\":6503:6541   */\n      sub\n        /* \"#utility.yul\":6500:6584   */\n      tag_158\n      jumpi\n        /* \"#utility.yul\":6556:6574   */\n      tag_159\n      tag_69\n      jump\t// in\n    tag_159:\n        /* \"#utility.yul\":6500:6584   */\n    tag_158:\n        /* \"#utility.yul\":6321:6590   */\n      pop\n        /* \"#utility.yul\":6270:6590   */\n      swap2\n      swap1\n      pop\n      jump\t// out\n        /* \"#utility.yul\":6596:6737   */\n    tag_70:\n        /* \"#utility.yul\":6645:6649   */\n      0x00\n        /* \"#utility.yul\":6668:6671   */\n      dup2\n        /* \"#utility.yul\":6660:6671   */\n      swap1\n      pop\n        /* \"#utility.yul\":6691:6694   */\n      dup2\n        /* \"#utility.yul\":6688:6689   */\n      0x00\n        /* \"#utility.yul\":6681:6695   */\n      mstore\n        /* \"#utility.yul\":6725:6729   */\n      0x20\n        /* \"#utility.yul\":6722:6723   */\n      0x00\n        /* \"#utility.yul\":6712:6730   */\n      keccak256\n        /* \"#utility.yul\":6704:6730   */\n      swap1\n      pop\n        /* \"#utility.yul\":6596:6737   */\n      swap2\n      swap1\n      pop\n      jump\t// out\n        /* \"#utility.yul\":6743:6836   */\n    tag_71:\n        /* \"#utility.yul\":6780:6786   */\n      0x00\n        /* \"#utility.yul\":6827:6829   */\n      0x20\n        /* \"#utility.yul\":6822:6824   */\n      0x1f\n        /* \"#utility.yul\":6815:6820   */\n      dup4\n        /* \"#utility.yul\":6811:6825   */\n      add\n        /* \"#utility.yul\":6807:6830   */\n      div\n        /* \"#utility.yul\":6797:6830   */\n      swap1\n      pop\n        /* \"#utility.yul\":6743:6836   */\n      swap2\n      swap1\n      pop\n      jump\t// out\n        /* \"#utility.yul\":6842:6949   */\n    tag_72:\n        /* \"#utility.yul\":6886:6894   */\n      0x00\n        /* \"#utility.yul\":6936:6941   */\n      dup3\n        /* \"#utility.yul\":6930:6934   */\n      dup3\n        /* \"#utility.yul\":6926:6942   */\n      shl\n        /* \"#utility.yul\":6905:6942   */\n      swap1\n      pop\n        /* \"#utility.yul\":6842:6949   */\n      swap3\n      swap2\n      pop\n      pop\n      jump\t// out\n        /* \"#utility.yul\":6955:7348   */\n    tag_73:\n        /* \"#utility.yul\":7024:7030   */\n      0x00\n        /* \"#utility.yul\":7074:7075   */\n      0x08\n        /* \"#utility.yul\":7062:7072   */\n      dup4\n        /* \"#utility.yul\":7058:7076   */\n      mul\n        /* \"#utility.yul\":7097:7194   */\n      tag_164\n        /* \"#utility.yul\":7127:7193   */\n      0xffffffffffffffffffffffffffffffffffffffffffffffffffffffffffffffff\n        /* \"#utility.yul\":7116:7125   */\n      dup3\n        /* \"#utility.yul\":7097:7194   */\n      tag_72\n      jump\t// in\n    tag_164:\n        /* \"#utility.yul\":7215:7254   */\n      tag_165\n        /* \"#utility.yul\":7245:7253   */\n      dup7\n        /* \"#utility.yul\":7234:7243   */\n      dup4\n        /* \"#utility.yul\":7215:7254   */\n      tag_72\n      jump\t// in\n    tag_165:\n        /* \"#utility.yul\":7203:7254   */\n      swap6\n      pop\n        /* \"#utility.yul\":7287:7291   */\n      dup1\n        /* \"#utility.yul\":7283:7292   */\n      not\n        /* \"#utility.yul\":7276:7281   */\n      dup5\n        /* \"#utility.yul\":7272:7293   */\n      and\n        /* \"#utility.yul\":7263:7293   */\n      swap4\n      pop\n        /* \"#utility.yul\":7336:7340   */\n      dup1\n        /* \"#utility.yul\":7326:7334   */\n      dup7\n        /* \"#utility.yul\":7322:7341   */\n      and\n        /* \"#utility.yul\":7315:7320   */\n      dup5\n        /* \"#utility.yul\":7312:7342   */\n      or\n        /* \"#utility.yul\":7302:7342   */\n      swap3\n      pop\n        /* \"#utility.yul\":7031:7348   */\n      pop\n      pop\n        /* \"#utility.yul\":6955:7348   */\n      swap4\n      swap3\n      pop\n      pop\n      pop\n      jump\t// out\n        /* \"#utility.yul\":7354:7414   */\n    tag_74:\n        /* \"#utility.yul\":7382:7385   */\n      0x00\n        /* \"#utility.yul\":7403:7408   */\n      dup2\n        /* \"#utility.yul\":7396:7408   */\n      swap1\n      pop\n        /* \"#utility.yul\":7354:7414   */\n      swap2\n      swap1\n      pop\n      jump\t// out\n        /* \"#utility.yul\":7420:7562   */\n    tag_75:\n        /* \"#utility.yul\":7470:7479   */\n      0x00\n        /* \"#utility.yul\":7503:7556   */\n      tag_168\n        /* \"#utility.yul\":7521:7555   */\n      tag_169\n        /* \"#utility.yul\":7530:7554   */\n      tag_170\n        /* \"#utility.yul\":7548:7553   */\n      dup5\n        /* \"#utility.yul\":7530:7554   */\n      tag_58\n      jump\t// in\n    tag_170:\n        /* \"#utility.yul\":7521:7555   */\n      tag_74\n      jump\t// in\n    tag_169:\n        /* \"#utility.yul\":7503:7556   */\n      tag_58\n      jump\t// in\n    tag_168:\n        /* \"#utility.yul\":7490:7556   */\n      swap1\n      pop\n        /* \"#utility.yul\":7420:7562   */\n      swap2\n      swap1\n      pop\n      jump\t// out\n        /* \"#utility.yul\":7568:7643   */\n    tag_76:\n        /* \"#utility.yul\":7611:7614   */\n      0x00\n        /* \"#utility.yul\":7632:7637   */\n      dup2\n        /* \"#utility.yul\":7625:7637   */\n      swap1\n      pop\n        /* \"#utility.yul\":7568:7643   */\n      swap2\n      swap1\n      pop\n      jump\t// out\n        /* \"#utility.yul\":7649:7918   */\n    tag_77:\n        /* \"#utility.yul\":7759:7798   */\n      tag_173\n        /* \"#utility.yul\":7790:7797   */\n      dup4\n        /* \"#utility.yul\":7759:7798   */\n      tag_75\n      jump\t// in\n    tag_173:\n        /* \"#utility.yul\":7820:7911   */\n      tag_174\n        /* \"#utility.yul\":7869:7910   */\n      tag_175\n        /* \"#utility.yul\":7893:7909   */\n      dup3\n        /* \"#utility.yul\":7869:7910   */\n      tag_76\n      jump\t// in\n    tag_175:\n        /* \"#utility.yul\":7861:7867   */\n      dup5\n        /* \"#utility.yul\":7854:7858   */\n      dup5\n        /* \"#utility.yul\":7848:7859   */\n      sload\n        /* \"#utility.yul\":7820:7911   */\n      tag_73\n      jump\t// in\n    tag_174:\n        /* \"#utility.yul\":7814:7818   */\n      dup3\n        /* \"#utility.yul\":7807:7912   */\n      sstore\n        /* \"#utility.yul\":7725:7918   */\n      pop\n        /* \"#utility.yul\":7649:7918   */\n      pop\n      pop\n      pop\n      jump\t// out\n        /* \"#utility.yul\":7924:7997   */\n    tag_78:\n        /* \"#utility.yul\":7969:7972   */\n      0x00\n        /* \"#utility.yul\":7990:7991   */\n      0x00\n        /* \"#utility.yul\":7983:7991   */\n      swap1\n      pop\n        /* \"#utility.yul\":7924:7997   */\n      swap1\n      jump\t// out\n        /* \"#utility.yul\":8003:8192   */\n    tag_79:\n        /* \"#utility.yul\":8080:8112   */\n      tag_178\n      tag_78\n      jump\t// in\n    tag_178:\n        /* \"#utility.yul\":8121:8186   */\n      tag_179\n        /* \"#utility.yul\":8179:8185   */\n      dup2\n        /* \"#utility.yul\":8171:8177   */\n      dup5\n        /* \"#utility.yul\":8165:8169   */\n      dup5\n        /* \"#utility.yul\":8121:8186   */\n      tag_77\n      jump\t// in\n    tag_179:\n        /* \"#utility.yul\":8056:8192   */\n      pop\n        /* \"#utility.yul\":8003:8192   */\n      pop\n      pop\n      jump\t// out\n        /* \"#utility.yul\":8198:8384   */\n    tag_80:\n        /* \"#utility.yul\":8258:8378   */\n    tag_181:\n        /* \"#utility.yul\":8275:8278   */\n      dup2\n        /* \"#utility.yul\":8268:8273   */\n      dup2\n        /* \"#utility.yul\":8265:8279   */\n      lt\n        /* \"#utility.yul\":8258:8378   */\n      iszero\n      tag_183\n      jumpi\n        /* \"#utility.yul\":8329:8368   */\n      tag_184\n        /* \"#utility.yul\":8366:8367   */\n      0x00\n        /* \"#utility.yul\":8359:8364   */\n      dup3\n        /* \"#utility.yul\":8329:8368   */\n      tag_79\n      jump\t// in\n    tag_184:\n        /* \"#utility.yul\":8302:8303   */\n      0x01\n        /* \"#utility.yul\":8295:8300   */\n      dup2\n        /* \"#utility.yul\":8291:8304   */\n      add\n        /* \"#utility.yul\":8282:8304   */\n      swap1\n      pop\n        /* \"#utility.yul\":8258:8378   */\n      jump(tag_181)\n    tag_183:\n        /* \"#utility.yul\":8198:8384   */\n      pop\n      pop\n      jump\t// out\n        /* \"#utility.yul\":8390:8933   */\n    tag_81:\n        /* \"#utility.yul\":8491:8493   */\n      0x1f\n        /* \"#utility.yul\":8486:8489   */\n      dup3\n        /* \"#utility.yul\":8483:8494   */\n      gt\n        /* \"#utility.yul\":8480:8926   */\n      iszero\n      tag_186\n      jumpi\n        /* \"#utility.yul\":8525:8563   */\n      tag_187\n        /* \"#utility.yul\":8557:8562   */\n      dup2\n        /* \"#utility.yul\":8525:8563   */\n      tag_70\n      jump\t// in\n    tag_187:\n        /* \"#utility.yul\":8609:8638   */\n      tag_188\n        /* \"#utility.yul\":8627:8637   */\n      dup5\n        /* \"#utility.yul\":8609:8638   */\n      tag_71\n      jump\t// in\n    tag_188:\n        /* \"#utility.yul\":8599:8607   */\n      dup2\n        /* \"#utility.yul\":8595:8639   */\n      add\n        /* \"#utility.yul\":8792:8794   */\n      0x20\n        /* \"#utility.yul\":8780:8790   */\n      dup6\n        /* \"#utility.yul\":8777:8795   */\n      lt\n        /* \"#utility.yul\":8774:8823   */\n      iszero\n      tag_189\n      jumpi\n        /* \"#utility.yul\":8813:8821   */\n      dup2\n        /* \"#utility.yul\":8798:8821   */\n      swap1\n      pop\n        /* \"#utility.yul\":8774:8823   */\n    tag_189:\n        /* \"#utility.yul\":8836:8916   */\n      tag_190\n        /* \"#utility.yul\":8892:8914   */\n      tag_191\n        /* \"#utility.yul\":8910:8913   */\n      dup6\n        /* \"#utility.yul\":8892:8914   */\n      tag_71\n      jump\t// in\n    tag_191:\n        /* \"#utility.yul\":8882:8890   */\n      dup4\n        /* \"#utility.yul\":8878:8915   */\n      add\n        /* \"#utility.yul\":8865:8876   */\n      dup3\n        /* \"#utility.yul\":8836:8916   */\n      tag_80\n      jump\t// in\n    tag_190:\n        /* \"#utility.yul\":8495:8926   */\n      pop\n      pop\n        /* \"#utility.yul\":8480:8926   */\n    tag_186:\n        /* \"#utility.yul\":8390:8933   */\n      pop\n      pop\n      pop\n      jump\t// out\n        /* \"#utility.yul\":8939:9056   */\n    tag_82:\n        /* \"#utility.yul\":8993:9001   */\n      0x00\n        /* \"#utility.yul\":9043:9048   */\n      dup3\n        /* \"#utility.yul\":9037:9041   */\n      dup3\n        /* \"#utility.yul\":9033:9049   */\n      shr\n        /* \"#utility.yul\":9012:9049   */\n      swap1\n      pop\n        /* \"#utility.yul\":8939:9056   */\n      swap3\n      swap2\n      pop\n      pop\n      jump\t// out\n        /* \"#utility.yul\":9062:9231   */\n    tag_83:\n        /* \"#utility.yul\":9106:9112   */\n      0x00\n        /* \"#utility.yul\":9139:9190   */\n      tag_194\n        /* \"#utility.yul\":9187:9188   */\n      0x00\n        /* \"#utility.yul\":9183:9189   */\n      not\n        /* \"#utility.yul\":9175:9180   */\n      dup5\n        /* \"#utility.yul\":9172:9173   */\n      0x08\n        /* \"#utility.yul\":9168:9181   */\n      mul\n        /* \"#utility.yul\":9139:9190   */\n      tag_82\n      jump\t// in\n    tag_194:\n        /* \"#utility.yul\":9135:9191   */\n      not\n        /* \"#utility.yul\":9220:9224   */\n      dup1\n        /* \"#utility.yul\":9214:9218   */\n      dup4\n        /* \"#utility.yul\":9210:9225   */\n      and\n        /* \"#utility.yul\":9200:9225   */\n      swap2\n      pop\n        /* \"#utility.yul\":9113:9231   */\n      pop\n        /* \"#utility.yul\":9062:9231   */\n      swap3\n      swap2\n      pop\n      pop\n      jump\t// out\n        /* \"#utility.yul\":9236:9531   */\n    tag_84:\n        /* \"#utility.yul\":9312:9316   */\n      0x00\n        /* \"#utility.yul\":9458:9487   */\n      tag_196\n        /* \"#utility.yul\":9483:9486   */\n      dup4\n        /* \"#utility.yul\":9477:9481   */\n      dup4\n        /* \"#utility.yul\":9458:9487   */\n      tag_83\n      jump\t// in\n    tag_196:\n        /* \"#utility.yul\":9450:9487   */\n      swap2\n      pop\n        /* \"#utility.yul\":9520:9523   */\n      dup3\n        /* \"#utility.yul\":9517:9518   */\n      0x02\n        /* \"#utility.yul\":9513:9524   */\n      mul\n        /* \"#utility.yul\":9507:9511   */\n      dup3\n        /* \"#utility.yul\":9504:9525   */\n      or\n        /* \"#utility.yul\":9496:9525   */\n      swap1\n      pop\n        /* \"#utility.yul\":9236:9531   */\n      swap3\n      swap2\n      pop\n      pop\n      jump\t// out\n        /* \"#utility.yul\":9536:10931   */\n    tag_28:\n        /* \"#utility.yul\":9653:9690   */\n      tag_198\n        /* \"#utility.yul\":9686:9689   */\n      dup3\n        /* \"#utility.yul\":9653:9690   */\n      tag_62\n      jump\t// in\n    tag_198:\n        /* \"#utility.yul\":9755:9773   */\n      0xffffffffffffffff\n        /* \"#utility.yul\":9747:9753   */\n      dup2\n        /* \"#utility.yul\":9744:9774   */\n      gt\n        /* \"#utility.yul\":9741:9797   */\n      iszero\n      tag_199\n      jumpi\n        /* \"#utility.yul\":9777:9795   */\n      tag_200\n      tag_51\n      jump\t// in\n    tag_200:\n        /* \"#utility.yul\":9741:9797   */\n    tag_199:\n        /* \"#utility.yul\":9821:9859   */\n      tag_201\n        /* \"#utility.yul\":9853:9857   */\n      dup3\n        /* \"#utility.yul\":9847:9858   */\n      sload\n        /* \"#utility.yul\":9821:9859   */\n      tag_31\n      jump\t// in\n    tag_201:\n        /* \"#utility.yul\":9906:9973   */\n      tag_202\n        /* \"#utility.yul\":9966:9972   */\n      dup3\n        /* \"#utility.yul\":9958:9964   */\n      dup3\n        /* \"#utility.yul\":9952:9956   */\n      dup6\n        /* \"#utility.yul\":9906:9973   */\n      tag_81\n      jump\t// in\n    tag_202:\n        /* \"#utility.yul\":10000:10001   */\n      0x00\n        /* \"#utility.yul\":10024:10028   */\n      0x20\n        /* \"#utility.yul\":10011:10028   */\n      swap1\n      pop\n        /* \"#utility.yul\":10056:10058   */\n      0x1f\n        /* \"#utility.yul\":10048:10054   */\n      dup4\n        /* \"#utility.yul\":10045:10059   */\n      gt\n        /* \"#utility.yul\":10073:10074   */\n      0x01\n        /* \"#utility.yul\":10068:10686   */\n      dup2\n      eq\n      tag_204\n      jumpi\n        /* \"#utility.yul\":10730:10731   */\n      0x00\n        /* \"#utility.yul\":10747:10753   */\n      dup5\n        /* \"#utility.yul\":10744:10821   */\n      iszero\n      tag_205\n      jumpi\n        /* \"#utility.yul\":10796:10805   */\n      dup3\n        /* \"#utility.yul\":10791:10794   */\n      dup8\n        /* \"#utility.yul\":10787:10806   */\n      add\n        /* \"#utility.yul\":10781:10807   */\n      mload\n        /* \"#utility.yul\":10772:10807   */\n      swap1\n      pop\n        /* \"#utility.yul\":10744:10821   */\n    tag_205:\n        /* \"#utility.yul\":10847:10914   */\n      tag_206\n        /* \"#utility.yul\":10907:10913   */\n      dup6\n        /* \"#utility.yul\":10900:10905   */\n      dup3\n        /* \"#utility.yul\":10847:10914   */\n      tag_84\n      jump\t// in\n    tag_206:\n        /* \"#utility.yul\":10841:10845   */\n      dup7\n        /* \"#utility.yul\":10834:10915   */\n      sstore\n        /* \"#utility.yul\":10703:10925   */\n      pop\n        /* \"#utility.yul\":10038:10925   */\n      jump(tag_203)\n        /* \"#utility.yul\":10068:10686   */\n    tag_204:\n        /* \"#utility.yul\":10120:10124   */\n      0x1f\n        /* \"#utility.yul\":10116:10125   */\n      not\n        /* \"#utility.yul\":10108:10114   */\n      dup5\n        /* \"#utility.yul\":10104:10126   */\n      and\n        /* \"#utility.yul\":10154:10191   */\n      tag_207\n        /* \"#utility.yul\":10186:10190   */\n      dup7\n        /* \"#utility.yul\":10154:10191   */\n      tag_70\n      jump\t// in\n    tag_207:\n        /* \"#utility.yul\":10213:10214   */\n      0x00\n        /* \"#utility.yul\":10227:10435   */\n    tag_208:\n        /* \"#utility.yul\":10241:10248   */\n      dup3\n        /* \"#utility.yul\":10238:10239   */\n      dup2\n        /* \"#utility.yul\":10235:10249   */\n      lt\n        /* \"#utility.yul\":10227:10435   */\n      iszero\n      tag_210\n      jumpi\n        /* \"#utility.yul\":10320:10329   */\n      dup5\n        /* \"#utility.yul\":10315:10318   */\n      dup10\n        /* \"#utility.yul\":10311:10330   */\n      add\n        /* \"#utility.yul\":10305:10331   */\n      mload\n        /* \"#utility.yul\":10297:10303   */\n      dup3\n        /* \"#utility.yul\":10290:10332   */\n      sstore\n        /* \"#utility.yul\":10371:10372   */\n      0x01\n        /* \"#utility.yul\":10363:10369   */\n      dup3\n        /* \"#utility.yul\":10359:10373   */\n      add\n        /* \"#utility.yul\":10349:10373   */\n      swap2\n      pop\n        /* \"#utility.yul\":10418:10420   */\n      0x20\n        /* \"#utility.yul\":10407:10416   */\n      dup6\n        /* \"#utility.yul\":10403:10421   */\n      add\n        /* \"#utility.yul\":10390:10421   */\n      swap5\n      pop\n        /* \"#utility.yul\":10264:10268   */\n      0x20\n        /* \"#utility.yul\":10261:10262   */\n      dup2\n        /* \"#utility.yul\":10257:10269   */\n      add\n        /* \"#utility.yul\":10252:10269   */\n      swap1\n      pop\n        /* \"#utility.yul\":10227:10435   */\n      jump(tag_208)\n    tag_210:\n        /* \"#utility.yul\":10463:10469   */\n      dup7\n        /* \"#utility.yul\":10454:10461   */\n      dup4\n        /* \"#utility.yul\":10451:10470   */\n      lt\n        /* \"#utility.yul\":10448:10627   */\n      iszero\n      tag_211\n      jumpi\n        /* \"#utility.yul\":10521:10530   */\n      dup5\n        /* \"#utility.yul\":10516:10519   */\n      dup10\n        /* \"#utility.yul\":10512:10531   */\n      add\n        /* \"#utility.yul\":10506:10532   */\n      mload\n        /* \"#utility.yul\":10564:10612   */\n      tag_212\n        /* \"#utility.yul\":10606:10610   */\n      0x1f\n        /* \"#utility.yul\":10598:10604   */\n      dup10\n        /* \"#utility.yul\":10594:10611   */\n      and\n        /* \"#utility.yul\":10583:10592   */\n      dup3\n        /* \"#utility.yul\":10564:10612   */\n      tag_83\n      jump\t// in\n    tag_212:\n        /* \"#utility.yul\":10556:10562   */\n      dup4\n        /* \"#utility.yul\":10549:10613   */\n      sstore\n        /* \"#utility.yul\":10471:10627   */\n      pop\n        /* \"#utility.yul\":10448:10627   */\n    tag_211:\n        /* \"#utility.yul\":10673:10674   */\n      0x01\n        /* \"#utility.yul\":10669:10670   */\n      0x02\n        /* \"#utility.yul\":10661:10667   */\n      dup9\n        /* \"#utility.yul\":10657:10671   */\n      mul\n        /* \"#utility.yul\":10653:10675   */\n      add\n        /* \"#utility.yul\":10647:10651   */\n      dup9\n        /* \"#utility.yul\":10640:10676   */\n      sstore\n        /* \"#utility.yul\":10075:10686   */\n      pop\n      pop\n      pop\n        /* \"#utility.yul\":10038:10925   */\n    tag_203:\n      pop\n        /* \"#utility.yul\":9628:10931   */\n      pop\n      pop\n      pop\n        /* \"#utility.yul\":9536:10931   */\n      pop\n      pop\n      jump\t// out\n        /* \"#utility.yul\":10937:11257   */\n    tag_44:\n        /* \"#utility.yul\":11052:11056   */\n      0x00\n        /* \"#utility.yul\":11090:11092   */\n      0x40\n        /* \"#utility.yul\":11079:11088   */\n      dup3\n        /* \"#utility.yul\":11075:11093   */\n      add\n        /* \"#utility.yul\":11067:11093   */\n      swap1\n      pop\n        /* \"#utility.yul\":11103:11174   */\n      tag_214\n        /* \"#utility.yul\":11171:11172   */\n      0x00\n        /* \"#utility.yul\":11160:11169   */\n      dup4\n        /* \"#utility.yul\":11156:11173   */\n      add\n        /* \"#utility.yul\":11147:11153   */\n      dup6\n        /* \"#utility.yul\":11103:11174   */\n      tag_61\n      jump\t// in\n    tag_214:\n        /* \"#utility.yul\":11184:11250   */\n      tag_215\n        /* \"#utility.yul\":11246:11248   */\n      0x20\n        /* \"#utility.yul\":11235:11244   */\n      dup4\n        /* \"#utility.yul\":11231:11249   */\n      add\n        /* \"#utility.yul\":11222:11228   */\n      dup5\n        /* \"#utility.yul\":11184:11250   */\n      tag_67\n      jump\t// in\n    tag_215:\n        /* \"#utility.yul\":10937:11257   */\n      swap4\n      swap3\n      pop\n      pop\n      pop\n      jump\t// out\n\n    auxdata: 0xa2646970667358221220a958b931356569851420c947ea709a6cbcaef43246dd53ca812d5f6853e91f2064736f6c634300081e0033\n}\n",
				"bytecode": {
					"linkReferences": {},
					"object": "60806040525f600155348015610013575f5ffd5b506100586040518060400160405280600c81526020017f496e697469616c205461736b000000000000000000000000000000000000000081525061005d60201b60201c565b610570565b60015f81548092919061006f9061015b565b9190505550604051806060016040528060015481526020018281526020015f15158152505f5f60015481526020019081526020015f205f820151815f015560208201518160010190816100c291906103d6565b506040820151816002015f6101000a81548160ff0219169083151502179055509050507f05d0fb833127fc08168556d0e7ca9554fc3f6bc843b3b7d2bf1c35aea6bab660600154825f60405161011a93929190610534565b60405180910390a150565b7f4e487b71000000000000000000000000000000000000000000000000000000005f52601160045260245ffd5b5f819050919050565b5f61016582610152565b91507fffffffffffffffffffffffffffffffffffffffffffffffffffffffffffffffff820361019757610196610125565b5b600182019050919050565b5f81519050919050565b7f4e487b71000000000000000000000000000000000000000000000000000000005f52604160045260245ffd5b7f4e487b71000000000000000000000000000000000000000000000000000000005f52602260045260245ffd5b5f600282049050600182168061021d57607f821691505b6020821081036102305761022f6101d9565b5b50919050565b5f819050815f5260205f209050919050565b5f6020601f8301049050919050565b5f82821b905092915050565b5f600883026102927fffffffffffffffffffffffffffffffffffffffffffffffffffffffffffffffff82610257565b61029c8683610257565b95508019841693508086168417925050509392505050565b5f819050919050565b5f6102d76102d26102cd84610152565b6102b4565b610152565b9050919050565b5f819050919050565b6102f0836102bd565b6103046102fc826102de565b848454610263565b825550505050565b5f5f905090565b61031b61030c565b6103268184846102e7565b505050565b5b818110156103495761033e5f82610313565b60018101905061032c565b5050565b601f82111561038e5761035f81610236565b61036884610248565b81016020851015610377578190505b61038b61038385610248565b83018261032b565b50505b505050565b5f82821c905092915050565b5f6103ae5f1984600802610393565b1980831691505092915050565b5f6103c6838361039f565b9150826002028217905092915050565b6103df826101a2565b67ffffffffffffffff8111156103f8576103f76101ac565b5b6104028254610206565b61040d82828561034d565b5f60209050601f83116001811461043e575f841561042c578287015190505b61043685826103bb565b86555061049d565b601f19841661044c86610236565b5f5b828110156104735784890151825560018201915060208501945060208101905061044e565b86831015610490578489015161048c601f89168261039f565b8355505b6001600288020188555050505b505050505050565b6104ae81610152565b82525050565b5f82825260208201905092915050565b8281835e5f83830152505050565b5f601f19601f8301169050919050565b5f6104ec826101a2565b6104f681856104b4565b93506105068185602086016104c4565b61050f816104d2565b840191505092915050565b5f8115159050919050565b61052e8161051a565b82525050565b5f6060820190506105475f8301866104a5565b818103602083015261055981856104e2565b90506105686040830184610525565b949350505050565b610a408061057d5f395ff3fe608060405234801561000f575f5ffd5b506004361061004a575f3560e01c8063111002aa1461004e5780638d9776721461006a578063a9bda5871461009c578063b6cb58a5146100b8575b5f5ffd5b61006860048036038101906100639190610520565b6100d6565b005b610084600480360381019061007f919061059a565b61019e565b6040516100939392919061064e565b60405180910390f35b6100b660048036038101906100b1919061059a565b610255565b005b6100c06103cd565b6040516100cd919061068a565b60405180910390f35b60015f8154809291906100e8906106d0565b9190505550604051806060016040528060015481526020018281526020015f15158152505f5f60015481526020019081526020015f205f820151815f0155602082015181600101908161013b9190610914565b506040820151816002015f6101000a81548160ff0219169083151502179055509050507f05d0fb833127fc08168556d0e7ca9554fc3f6bc843b3b7d2bf1c35aea6bab660600154825f6040516101939392919061064e565b60405180910390a150565b5f602052805f5260405f205f91509050805f0154908060010180546101c290610744565b80601f01602080910402602001604051908101604052809291908181526020018280546101ee90610744565b80156102395780601f1061021057610100808354040283529160200191610239565b820191905f5260205f20905b81548152906001019060200180831161021c57829003601f168201915b505050505090806002015f9054906101000a900460ff16905083565b5f5f5f8381526020019081526020015f206040518060600160405290815f820154815260200160018201805461028a90610744565b80601f01602080910402602001604051908101604052809291908181526020018280546102b690610744565b80156103015780601f106102d857610100808354040283529160200191610301565b820191905f5260205f20905b8154815290600101906020018083116102e457829003601f168201915b50505050508152602001600282015f9054906101000a900460ff1615151515815250509050806040015115816040019015159081151581525050805f5f8481526020019081526020015f205f820151815f015560208201518160010190816103699190610914565b506040820151816002015f6101000a81548160ff0219169083151502179055509050507fe21fa966ca5cd02748c0752352d18c48165e61cb55b4c29cccf924b5a95fcff18282604001516040516103c19291906109e3565b60405180910390a15050565b60015481565b5f604051905090565b5f5ffd5b5f5ffd5b5f5ffd5b5f5ffd5b5f601f19601f8301169050919050565b7f4e487b71000000000000000000000000000000000000000000000000000000005f52604160045260245ffd5b610432826103ec565b810181811067ffffffffffffffff82111715610451576104506103fc565b5b80604052505050565b5f6104636103d3565b905061046f8282610429565b919050565b5f67ffffffffffffffff82111561048e5761048d6103fc565b5b610497826103ec565b9050602081019050919050565b828183375f83830152505050565b5f6104c46104bf84610474565b61045a565b9050828152602081018484840111156104e0576104df6103e8565b5b6104eb8482856104a4565b509392505050565b5f82601f830112610507576105066103e4565b5b81356105178482602086016104b2565b91505092915050565b5f60208284031215610535576105346103dc565b5b5f82013567ffffffffffffffff811115610552576105516103e0565b5b61055e848285016104f3565b91505092915050565b5f819050919050565b61057981610567565b8114610583575f5ffd5b50565b5f8135905061059481610570565b92915050565b5f602082840312156105af576105ae6103dc565b5b5f6105bc84828501610586565b91505092915050565b6105ce81610567565b82525050565b5f81519050919050565b5f82825260208201905092915050565b8281835e5f83830152505050565b5f610606826105d4565b61061081856105de565b93506106208185602086016105ee565b610629816103ec565b840191505092915050565b5f8115159050919050565b61064881610634565b82525050565b5f6060820190506106615f8301866105c5565b818103602083015261067381856105fc565b9050610682604083018461063f565b949350505050565b5f60208201905061069d5f8301846105c5565b92915050565b7f4e487b71000000000000000000000000000000000000000000000000000000005f52601160045260245ffd5b5f6106da82610567565b91507fffffffffffffffffffffffffffffffffffffffffffffffffffffffffffffffff820361070c5761070b6106a3565b5b600182019050919050565b7f4e487b71000000000000000000000000000000000000000000000000000000005f52602260045260245ffd5b5f600282049050600182168061075b57607f821691505b60208210810361076e5761076d610717565b5b50919050565b5f819050815f5260205f209050919050565b5f6020601f8301049050919050565b5f82821b905092915050565b5f600883026107d07fffffffffffffffffffffffffffffffffffffffffffffffffffffffffffffffff82610795565b6107da8683610795565b95508019841693508086168417925050509392505050565b5f819050919050565b5f61081561081061080b84610567565b6107f2565b610567565b9050919050565b5f819050919050565b61082e836107fb565b61084261083a8261081c565b8484546107a1565b825550505050565b5f5f905090565b61085961084a565b610864818484610825565b505050565b5b818110156108875761087c5f82610851565b60018101905061086a565b5050565b601f8211156108cc5761089d81610774565b6108a684610786565b810160208510156108b5578190505b6108c96108c185610786565b830182610869565b50505b505050565b5f82821c905092915050565b5f6108ec5f19846008026108d1565b1980831691505092915050565b5f61090483836108dd565b9150826002028217905092915050565b61091d826105d4565b67ffffffffffffffff811115610936576109356103fc565b5b6109408254610744565b61094b82828561088b565b5f60209050601f83116001811461097c575f841561096a578287015190505b61097485826108f9565b8655506109db565b601f19841661098a86610774565b5f5b828110156109b15784890151825560018201915060208501945060208101905061098c565b868310156109ce57848901516109ca601f8916826108dd565b8355505b6001600288020188555050505b505050505050565b5f6040820190506109f65f8301856105c5565b610a03602083018461063f565b939250505056fea2646970667358221220a958b931356569851420c947ea709a6cbcaef43246dd53ca812d5f6853e91f2064736f6c634300081e0033",
					"opcodes": "PUSH1 0x80 PUSH1 0x40 MSTORE PUSH0 PUSH1 0x1 SSTORE CALLVALUE DUP1 ISZERO PUSH2 0x13 JUMPI PUSH0 PUSH0 REVERT JUMPDEST POP PUSH2 0x58 PUSH1 0x40 MLOAD DUP1 PUSH1 0x40 ADD PUSH1 0x40 MSTORE DUP1 PUSH1 0xC DUP2 MSTORE PUSH1 0x20 ADD PUSH32 0x496E697469616C205461736B0000000000000000000000000000000000000000 DUP2 MSTORE POP PUSH2 0x5D PUSH1 0x20 SHL PUSH1 0x20 SHR JUMP JUMPDEST PUSH2 0x570 JUMP JUMPDEST PUSH1 0x1 PUSH0 DUP2 SLOAD DUP1 SWAP3 SWAP2 SWAP1 PUSH2 0x6F SWAP1 PUSH2 0x15B JUMP JUMPDEST SWAP2 SWAP1 POP SSTORE POP PUSH1 0x40 MLOAD DUP1 PUSH1 0x60 ADD PUSH1 0x40 MSTORE DUP1 PUSH1 0x1 SLOAD DUP2 MSTORE PUSH1 0x20 ADD DUP3 DUP2 MSTORE PUSH1 0x20 ADD PUSH0 ISZERO ISZERO DUP2 MSTORE POP PUSH0 PUSH0 PUSH1 0x1 SLOAD DUP2 MSTORE PUSH1 0x20 ADD SWAP1 DUP2 MSTORE PUSH1 0x20 ADD PUSH0 KECCAK256 PUSH0 DUP3 ADD MLOAD DUP2 PUSH0 ADD SSTORE PUSH1 0x20 DUP3 ADD MLOAD DUP2 PUSH1 0x1 ADD SWAP1 DUP2 PUSH2 0xC2 SWAP2 SWAP1 PUSH2 0x3D6 JUMP JUMPDEST POP PUSH1 0x40 DUP3 ADD MLOAD DUP2 PUSH1 0x2 ADD PUSH0 PUSH2 0x100 EXP DUP2 SLOAD DUP2 PUSH1 0xFF MUL NOT AND SWAP1 DUP4 ISZERO ISZERO MUL OR SWAP1 SSTORE POP SWAP1 POP POP PUSH32 0x5D0FB833127FC08168556D0E7CA9554FC3F6BC843B3B7D2BF1C35AEA6BAB660 PUSH1 0x1 SLOAD DUP3 PUSH0 PUSH1 0x40 MLOAD PUSH2 0x11A SWAP4 SWAP3 SWAP2 SWAP1 PUSH2 0x534 JUMP JUMPDEST PUSH1 0x40 MLOAD DUP1 SWAP2 SUB SWAP1 LOG1 POP JUMP JUMPDEST PUSH32 0x4E487B7100000000000000000000000000000000000000000000000000000000 PUSH0 MSTORE PUSH1 0x11 PUSH1 0x4 MSTORE PUSH1 0x24 PUSH0 REVERT JUMPDEST PUSH0 DUP2 SWAP1 POP SWAP2 SWAP1 POP JUMP JUMPDEST PUSH0 PUSH2 0x165 DUP3 PUSH2 0x152 JUMP JUMPDEST SWAP2 POP PUSH32 0xFFFFFFFFFFFFFFFFFFFFFFFFFFFFFFFFFFFFFFFFFFFFFFFFFFFFFFFFFFFFFFFF DUP3 SUB PUSH2 0x197 JUMPI PUSH2 0x196 PUSH2 0x125 JUMP JUMPDEST JUMPDEST PUSH1 0x1 DUP3 ADD SWAP1 POP SWAP2 SWAP1 POP JUMP JUMPDEST PUSH0 DUP2 MLOAD SWAP1 POP SWAP2 SWAP1 POP JUMP JUMPDEST PUSH32 0x4E487B7100000000000000000000000000000000000000000000000000000000 PUSH0 MSTORE PUSH1 0x41 PUSH1 0x4 MSTORE PUSH1 0x24 PUSH0 REVERT JUMPDEST PUSH32 0x4E487B7100000000000000000000000000000000000000000000000000000000 PUSH0 MSTORE PUSH1 0x22 PUSH1 0x4 MSTORE PUSH1 0x24 PUSH0 REVERT JUMPDEST PUSH0 PUSH1 0x2 DUP3 DIV SWAP1 POP PUSH1 0x1 DUP3 AND DUP1 PUSH2 0x21D JUMPI PUSH1 0x7F DUP3 AND SWAP2 POP JUMPDEST PUSH1 0x20 DUP3 LT DUP2 SUB PUSH2 0x230 JUMPI PUSH2 0x22F PUSH2 0x1D9 JUMP JUMPDEST JUMPDEST POP SWAP2 SWAP1 POP JUMP JUMPDEST PUSH0 DUP2 SWAP1 POP DUP2 PUSH0 MSTORE PUSH1 0x20 PUSH0 KECCAK256 SWAP1 POP SWAP2 SWAP1 POP JUMP JUMPDEST PUSH0 PUSH1 0x20 PUSH1 0x1F DUP4 ADD DIV SWAP1 POP SWAP2 SWAP1 POP JUMP JUMPDEST PUSH0 DUP3 DUP3 SHL SWAP1 POP SWAP3 SWAP2 POP POP JUMP JUMPDEST PUSH0 PUSH1 0x8 DUP4 MUL PUSH2 0x292 PUSH32 0xFFFFFFFFFFFFFFFFFFFFFFFFFFFFFFFFFFFFFFFFFFFFFFFFFFFFFFFFFFFFFFFF DUP3 PUSH2 0x257 JUMP JUMPDEST PUSH2 0x29C DUP7 DUP4 PUSH2 0x257 JUMP JUMPDEST SWAP6 POP DUP1 NOT DUP5 AND SWAP4 POP DUP1 DUP7 AND DUP5 OR SWAP3 POP POP POP SWAP4 SWAP3 POP POP POP JUMP JUMPDEST PUSH0 DUP2 SWAP1 POP SWAP2 SWAP1 POP JUMP JUMPDEST PUSH0 PUSH2 0x2D7 PUSH2 0x2D2 PUSH2 0x2CD DUP5 PUSH2 0x152 JUMP JUMPDEST PUSH2 0x2B4 JUMP JUMPDEST PUSH2 0x152 JUMP JUMPDEST SWAP1 POP SWAP2 SWAP1 POP JUMP JUMPDEST PUSH0 DUP2 SWAP1 POP SWAP2 SWAP1 POP JUMP JUMPDEST PUSH2 0x2F0 DUP4 PUSH2 0x2BD JUMP JUMPDEST PUSH2 0x304 PUSH2 0x2FC DUP3 PUSH2 0x2DE JUMP JUMPDEST DUP5 DUP5 SLOAD PUSH2 0x263 JUMP JUMPDEST DUP3 SSTORE POP POP POP POP JUMP JUMPDEST PUSH0 PUSH0 SWAP1 POP SWAP1 JUMP JUMPDEST PUSH2 0x31B PUSH2 0x30C JUMP JUMPDEST PUSH2 0x326 DUP2 DUP5 DUP5 PUSH2 0x2E7 JUMP JUMPDEST POP POP POP JUMP JUMPDEST JUMPDEST DUP2 DUP2 LT ISZERO PUSH2 0x349 JUMPI PUSH2 0x33E PUSH0 DUP3 PUSH2 0x313 JUMP JUMPDEST PUSH1 0x1 DUP2 ADD SWAP1 POP PUSH2 0x32C JUMP JUMPDEST POP POP JUMP JUMPDEST PUSH1 0x1F DUP3 GT ISZERO PUSH2 0x38E JUMPI PUSH2 0x35F DUP2 PUSH2 0x236 JUMP JUMPDEST PUSH2 0x368 DUP5 PUSH2 0x248 JUMP JUMPDEST DUP2 ADD PUSH1 0x20 DUP6 LT ISZERO PUSH2 0x377 JUMPI DUP2 SWAP1 POP JUMPDEST PUSH2 0x38B PUSH2 0x383 DUP6 PUSH2 0x248 JUMP JUMPDEST DUP4 ADD DUP3 PUSH2 0x32B JUMP JUMPDEST POP POP JUMPDEST POP POP POP JUMP JUMPDEST PUSH0 DUP3 DUP3 SHR SWAP1 POP SWAP3 SWAP2 POP POP JUMP JUMPDEST PUSH0 PUSH2 0x3AE PUSH0 NOT DUP5 PUSH1 0x8 MUL PUSH2 0x393 JUMP JUMPDEST NOT DUP1 DUP4 AND SWAP2 POP POP SWAP3 SWAP2 POP POP JUMP JUMPDEST PUSH0 PUSH2 0x3C6 DUP4 DUP4 PUSH2 0x39F JUMP JUMPDEST SWAP2 POP DUP3 PUSH1 0x2 MUL DUP3 OR SWAP1 POP SWAP3 SWAP2 POP POP JUMP JUMPDEST PUSH2 0x3DF DUP3 PUSH2 0x1A2 JUMP JUMPDEST PUSH8 0xFFFFFFFFFFFFFFFF DUP2 GT ISZERO PUSH2 0x3F8 JUMPI PUSH2 0x3F7 PUSH2 0x1AC JUMP JUMPDEST JUMPDEST PUSH2 0x402 DUP3 SLOAD PUSH2 0x206 JUMP JUMPDEST PUSH2 0x40D DUP3 DUP3 DUP6 PUSH2 0x34D JUMP JUMPDEST PUSH0 PUSH1 0x20 SWAP1 POP PUSH1 0x1F DUP4 GT PUSH1 0x1 DUP2 EQ PUSH2 0x43E JUMPI PUSH0 DUP5 ISZERO PUSH2 0x42C JUMPI DUP3 DUP8 ADD MLOAD SWAP1 POP JUMPDEST PUSH2 0x436 DUP6 DUP3 PUSH2 0x3BB JUMP JUMPDEST DUP7 SSTORE POP PUSH2 0x49D JUMP JUMPDEST PUSH1 0x1F NOT DUP5 AND PUSH2 0x44C DUP7 PUSH2 0x236 JUMP JUMPDEST PUSH0 JUMPDEST DUP3 DUP2 LT ISZERO PUSH2 0x473 JUMPI DUP5 DUP10 ADD MLOAD DUP3 SSTORE PUSH1 0x1 DUP3 ADD SWAP2 POP PUSH1 0x20 DUP6 ADD SWAP5 POP PUSH1 0x20 DUP2 ADD SWAP1 POP PUSH2 0x44E JUMP JUMPDEST DUP7 DUP4 LT ISZERO PUSH2 0x490 JUMPI DUP5 DUP10 ADD MLOAD PUSH2 0x48C PUSH1 0x1F DUP10 AND DUP3 PUSH2 0x39F JUMP JUMPDEST DUP4 SSTORE POP JUMPDEST PUSH1 0x1 PUSH1 0x2 DUP9 MUL ADD DUP9 SSTORE POP POP POP JUMPDEST POP POP POP POP POP POP JUMP JUMPDEST PUSH2 0x4AE DUP2 PUSH2 0x152 JUMP JUMPDEST DUP3 MSTORE POP POP JUMP JUMPDEST PUSH0 DUP3 DUP3 MSTORE PUSH1 0x20 DUP3 ADD SWAP1 POP SWAP3 SWAP2 POP POP JUMP JUMPDEST DUP3 DUP2 DUP4 MCOPY PUSH0 DUP4 DUP4 ADD MSTORE POP POP POP JUMP JUMPDEST PUSH0 PUSH1 0x1F NOT PUSH1 0x1F DUP4 ADD AND SWAP1 POP SWAP2 SWAP1 POP JUMP JUMPDEST PUSH0 PUSH2 0x4EC DUP3 PUSH2 0x1A2 JUMP JUMPDEST PUSH2 0x4F6 DUP2 DUP6 PUSH2 0x4B4 JUMP JUMPDEST SWAP4 POP PUSH2 0x506 DUP2 DUP6 PUSH1 0x20 DUP7 ADD PUSH2 0x4C4 JUMP JUMPDEST PUSH2 0x50F DUP2 PUSH2 0x4D2 JUMP JUMPDEST DUP5 ADD SWAP2 POP POP SWAP3 SWAP2 POP POP JUMP JUMPDEST PUSH0 DUP2 ISZERO ISZERO SWAP1 POP SWAP2 SWAP1 POP JUMP JUMPDEST PUSH2 0x52E DUP2 PUSH2 0x51A JUMP JUMPDEST DUP3 MSTORE POP POP JUMP JUMPDEST PUSH0 PUSH1 0x60 DUP3 ADD SWAP1 POP PUSH2 0x547 PUSH0 DUP4 ADD DUP7 PUSH2 0x4A5 JUMP JUMPDEST DUP2 DUP2 SUB PUSH1 0x20 DUP4 ADD MSTORE PUSH2 0x559 DUP2 DUP6 PUSH2 0x4E2 JUMP JUMPDEST SWAP1 POP PUSH2 0x568 PUSH1 0x40 DUP4 ADD DUP5 PUSH2 0x525 JUMP JUMPDEST SWAP5 SWAP4 POP POP POP POP JUMP JUMPDEST PUSH2 0xA40 DUP1 PUSH2 0x57D PUSH0 CODECOPY PUSH0 RETURN INVALID PUSH1 0x80 PUSH1 0x40 MSTORE CALLVALUE DUP1 ISZERO PUSH2 0xF JUMPI PUSH0 PUSH0 REVERT JUMPDEST POP PUSH1 0x4 CALLDATASIZE LT PUSH2 0x4A JUMPI PUSH0 CALLDATALOAD PUSH1 0xE0 SHR DUP1 PUSH4 0x111002AA EQ PUSH2 0x4E JUMPI DUP1 PUSH4 0x8D977672 EQ PUSH2 0x6A JUMPI DUP1 PUSH4 0xA9BDA587 EQ PUSH2 0x9C JUMPI DUP1 PUSH4 0xB6CB58A5 EQ PUSH2 0xB8 JUMPI JUMPDEST PUSH0 PUSH0 REVERT JUMPDEST PUSH2 0x68 PUSH1 0x4 DUP1 CALLDATASIZE SUB DUP2 ADD SWAP1 PUSH2 0x63 SWAP2 SWAP1 PUSH2 0x520 JUMP JUMPDEST PUSH2 0xD6 JUMP JUMPDEST STOP JUMPDEST PUSH2 0x84 PUSH1 0x4 DUP1 CALLDATASIZE SUB DUP2 ADD SWAP1 PUSH2 0x7F SWAP2 SWAP1 PUSH2 0x59A JUMP JUMPDEST PUSH2 0x19E JUMP JUMPDEST PUSH1 0x40 MLOAD PUSH2 0x93 SWAP4 SWAP3 SWAP2 SWAP1 PUSH2 0x64E JUMP JUMPDEST PUSH1 0x40 MLOAD DUP1 SWAP2 SUB SWAP1 RETURN JUMPDEST PUSH2 0xB6 PUSH1 0x4 DUP1 CALLDATASIZE SUB DUP2 ADD SWAP1 PUSH2 0xB1 SWAP2 SWAP1 PUSH2 0x59A JUMP JUMPDEST PUSH2 0x255 JUMP JUMPDEST STOP JUMPDEST PUSH2 0xC0 PUSH2 0x3CD JUMP JUMPDEST PUSH1 0x40 MLOAD PUSH2 0xCD SWAP2 SWAP1 PUSH2 0x68A JUMP JUMPDEST PUSH1 0x40 MLOAD DUP1 SWAP2 SUB SWAP1 RETURN JUMPDEST PUSH1 0x1 PUSH0 DUP2 SLOAD DUP1 SWAP3 SWAP2 SWAP1 PUSH2 0xE8 SWAP1 PUSH2 0x6D0 JUMP JUMPDEST SWAP2 SWAP1 POP SSTORE POP PUSH1 0x40 MLOAD DUP1 PUSH1 0x60 ADD PUSH1 0x40 MSTORE DUP1 PUSH1 0x1 SLOAD DUP2 MSTORE PUSH1 0x20 ADD DUP3 DUP2 MSTORE PUSH1 0x20 ADD PUSH0 ISZERO ISZERO DUP2 MSTORE POP PUSH0 PUSH0 PUSH1 0x1 SLOAD DUP2 MSTORE PUSH1 0x20 ADD SWAP1 DUP2 MSTORE PUSH1 0x20 ADD PUSH0 KECCAK256 PUSH0 DUP3 ADD MLOAD DUP2 PUSH0 ADD SSTORE PUSH1 0x20 DUP3 ADD MLOAD DUP2 PUSH1 0x1 ADD SWAP1 DUP2 PUSH2 0x13B SWAP2 SWAP1 PUSH2 0x914 JUMP JUMPDEST POP PUSH1 0x40 DUP3 ADD MLOAD DUP2 PUSH1 0x2 ADD PUSH0 PUSH2 0x100 EXP DUP2 SLOAD DUP2 PUSH1 0xFF MUL NOT AND SWAP1 DUP4 ISZERO ISZERO MUL OR SWAP1 SSTORE POP SWAP1 POP POP PUSH32 0x5D0FB833127FC08168556D0E7CA9554FC3F6BC843B3B7D2BF1C35AEA6BAB660 PUSH1 0x1 SLOAD DUP3 PUSH0 PUSH1 0x40 MLOAD PUSH2 0x193 SWAP4 SWAP3 SWAP2 SWAP1 PUSH2 0x64E JUMP JUMPDEST PUSH1 0x40 MLOAD DUP1 SWAP2 SUB SWAP1 LOG1 POP JUMP JUMPDEST PUSH0 PUSH1 0x20 MSTORE DUP1 PUSH0 MSTORE PUSH1 0x40 PUSH0 KECCAK256 PUSH0 SWAP2 POP SWAP1 POP DUP1 PUSH0 ADD SLOAD SWAP1 DUP1 PUSH1 0x1 ADD DUP1 SLOAD PUSH2 0x1C2 SWAP1 PUSH2 0x744 JUMP JUMPDEST DUP1 PUSH1 0x1F ADD PUSH1 0x20 DUP1 SWAP2 DIV MUL PUSH1 0x20 ADD PUSH1 0x40 MLOAD SWAP1 DUP2 ADD PUSH1 0x40 MSTORE DUP1 SWAP3 SWAP2 SWAP1 DUP2 DUP2 MSTORE PUSH1 0x20 ADD DUP3 DUP1 SLOAD PUSH2 0x1EE SWAP1 PUSH2 0x744 JUMP JUMPDEST DUP1 ISZERO PUSH2 0x239 JUMPI DUP1 PUSH1 0x1F LT PUSH2 0x210 JUMPI PUSH2 0x100 DUP1 DUP4 SLOAD DIV MUL DUP4 MSTORE SWAP2 PUSH1 0x20 ADD SWAP2 PUSH2 0x239 JUMP JUMPDEST DUP3 ADD SWAP2 SWAP1 PUSH0 MSTORE PUSH1 0x20 PUSH0 KECCAK256 SWAP1 JUMPDEST DUP2 SLOAD DUP2 MSTORE SWAP1 PUSH1 0x1 ADD SWAP1 PUSH1 0x20 ADD DUP1 DUP4 GT PUSH2 0x21C JUMPI DUP3 SWAP1 SUB PUSH1 0x1F AND DUP3 ADD SWAP2 JUMPDEST POP POP POP POP POP SWAP1 DUP1 PUSH1 0x2 ADD PUSH0 SWAP1 SLOAD SWAP1 PUSH2 0x100 EXP SWAP1 DIV PUSH1 0xFF AND SWAP1 POP DUP4 JUMP JUMPDEST PUSH0 PUSH0 PUSH0 DUP4 DUP2 MSTORE PUSH1 0x20 ADD SWAP1 DUP2 MSTORE PUSH1 0x20 ADD PUSH0 KECCAK256 PUSH1 0x40 MLOAD DUP1 PUSH1 0x60 ADD PUSH1 0x40 MSTORE SWAP1 DUP2 PUSH0 DUP3 ADD SLOAD DUP2 MSTORE PUSH1 0x20 ADD PUSH1 0x1 DUP3 ADD DUP1 SLOAD PUSH2 0x28A SWAP1 PUSH2 0x744 JUMP JUMPDEST DUP1 PUSH1 0x1F ADD PUSH1 0x20 DUP1 SWAP2 DIV MUL PUSH1 0x20 ADD PUSH1 0x40 MLOAD SWAP1 DUP2 ADD PUSH1 0x40 MSTORE DUP1 SWAP3 SWAP2 SWAP1 DUP2 DUP2 MSTORE PUSH1 0x20 ADD DUP3 DUP1 SLOAD PUSH2 0x2B6 SWAP1 PUSH2 0x744 JUMP JUMPDEST DUP1 ISZERO PUSH2 0x301 JUMPI DUP1 PUSH1 0x1F LT PUSH2 0x2D8 JUMPI PUSH2 0x100 DUP1 DUP4 SLOAD DIV MUL DUP4 MSTORE SWAP2 PUSH1 0x20 ADD SWAP2 PUSH2 0x301 JUMP JUMPDEST DUP3 ADD SWAP2 SWAP1 PUSH0 MSTORE PUSH1 0x20 PUSH0 KECCAK256 SWAP1 JUMPDEST DUP2 SLOAD DUP2 MSTORE SWAP1 PUSH1 0x1 ADD SWAP1 PUSH1 0x20 ADD DUP1 DUP4 GT PUSH2 0x2E4 JUMPI DUP3 SWAP1 SUB PUSH1 0x1F AND DUP3 ADD SWAP2 JUMPDEST POP POP POP POP POP DUP2 MSTORE PUSH1 0x20 ADD PUSH1 0x2 DUP3 ADD PUSH0 SWAP1 SLOAD SWAP1 PUSH2 0x100 EXP SWAP1 DIV PUSH1 0xFF AND ISZERO ISZERO ISZERO ISZERO DUP2 MSTORE POP POP SWAP1 POP DUP1 PUSH1 0x40 ADD MLOAD ISZERO DUP2 PUSH1 0x40 ADD SWAP1 ISZERO ISZERO SWAP1 DUP2 ISZERO ISZERO DUP2 MSTORE POP POP DUP1 PUSH0 PUSH0 DUP5 DUP2 MSTORE PUSH1 0x20 ADD SWAP1 DUP2 MSTORE PUSH1 0x20 ADD PUSH0 KECCAK256 PUSH0 DUP3 ADD MLOAD DUP2 PUSH0 ADD SSTORE PUSH1 0x20 DUP3 ADD MLOAD DUP2 PUSH1 0x1 ADD SWAP1 DUP2 PUSH2 0x369 SWAP2 SWAP1 PUSH2 0x914 JUMP JUMPDEST POP PUSH1 0x40 DUP3 ADD MLOAD DUP2 PUSH1 0x2 ADD PUSH0 PUSH2 0x100 EXP DUP2 SLOAD DUP2 PUSH1 0xFF MUL NOT AND SWAP1 DUP4 ISZERO ISZERO MUL OR SWAP1 SSTORE POP SWAP1 POP POP PUSH32 0xE21FA966CA5CD02748C0752352D18C48165E61CB55B4C29CCCF924B5A95FCFF1 DUP3 DUP3 PUSH1 0x40 ADD MLOAD PUSH1 0x40 MLOAD PUSH2 0x3C1 SWAP3 SWAP2 SWAP1 PUSH2 0x9E3 JUMP JUMPDEST PUSH1 0x40 MLOAD DUP1 SWAP2 SUB SWAP1 LOG1 POP POP JUMP JUMPDEST PUSH1 0x1 SLOAD DUP2 JUMP JUMPDEST PUSH0 PUSH1 0x40 MLOAD SWAP1 POP SWAP1 JUMP JUMPDEST PUSH0 PUSH0 REVERT JUMPDEST PUSH0 PUSH0 REVERT JUMPDEST PUSH0 PUSH0 REVERT JUMPDEST PUSH0 PUSH0 REVERT JUMPDEST PUSH0 PUSH1 0x1F NOT PUSH1 0x1F DUP4 ADD AND SWAP1 POP SWAP2 SWAP1 POP JUMP JUMPDEST PUSH32 0x4E487B7100000000000000000000000000000000000000000000000000000000 PUSH0 MSTORE PUSH1 0x41 PUSH1 0x4 MSTORE PUSH1 0x24 PUSH0 REVERT JUMPDEST PUSH2 0x432 DUP3 PUSH2 0x3EC JUMP JUMPDEST DUP2 ADD DUP2 DUP2 LT PUSH8 0xFFFFFFFFFFFFFFFF DUP3 GT OR ISZERO PUSH2 0x451 JUMPI PUSH2 0x450 PUSH2 0x3FC JUMP JUMPDEST JUMPDEST DUP1 PUSH1 0x40 MSTORE POP POP POP JUMP JUMPDEST PUSH0 PUSH2 0x463 PUSH2 0x3D3 JUMP JUMPDEST SWAP1 POP PUSH2 0x46F DUP3 DUP3 PUSH2 0x429 JUMP JUMPDEST SWAP2 SWAP1 POP JUMP JUMPDEST PUSH0 PUSH8 0xFFFFFFFFFFFFFFFF DUP3 GT ISZERO PUSH2 0x48E JUMPI PUSH2 0x48D PUSH2 0x3FC JUMP JUMPDEST JUMPDEST PUSH2 0x497 DUP3 PUSH2 0x3EC JUMP JUMPDEST SWAP1 POP PUSH1 0x20 DUP2 ADD SWAP1 POP SWAP2 SWAP1 POP JUMP JUMPDEST DUP3 DUP2 DUP4 CALLDATACOPY PUSH0 DUP4 DUP4 ADD MSTORE POP POP POP JUMP JUMPDEST PUSH0 PUSH2 0x4C4 PUSH2 0x4BF DUP5 PUSH2 0x474 JUMP JUMPDEST PUSH2 0x45A JUMP JUMPDEST SWAP1 POP DUP3 DUP2 MSTORE PUSH1 0x20 DUP2 ADD DUP5 DUP5 DUP5 ADD GT ISZERO PUSH2 0x4E0 JUMPI PUSH2 0x4DF PUSH2 0x3E8 JUMP JUMPDEST JUMPDEST PUSH2 0x4EB DUP5 DUP3 DUP6 PUSH2 0x4A4 JUMP JUMPDEST POP SWAP4 SWAP3 POP POP POP JUMP JUMPDEST PUSH0 DUP3 PUSH1 0x1F DUP4 ADD SLT PUSH2 0x507 JUMPI PUSH2 0x506 PUSH2 0x3E4 JUMP JUMPDEST JUMPDEST DUP2 CALLDATALOAD PUSH2 0x517 DUP5 DUP3 PUSH1 0x20 DUP7 ADD PUSH2 0x4B2 JUMP JUMPDEST SWAP2 POP POP SWAP3 SWAP2 POP POP JUMP JUMPDEST PUSH0 PUSH1 0x20 DUP3 DUP5 SUB SLT ISZERO PUSH2 0x535 JUMPI PUSH2 0x534 PUSH2 0x3DC JUMP JUMPDEST JUMPDEST PUSH0 DUP3 ADD CALLDATALOAD PUSH8 0xFFFFFFFFFFFFFFFF DUP2 GT ISZERO PUSH2 0x552 JUMPI PUSH2 0x551 PUSH2 0x3E0 JUMP JUMPDEST JUMPDEST PUSH2 0x55E DUP5 DUP3 DUP6 ADD PUSH2 0x4F3 JUMP JUMPDEST SWAP2 POP POP SWAP3 SWAP2 POP POP JUMP JUMPDEST PUSH0 DUP2 SWAP1 POP SWAP2 SWAP1 POP JUMP JUMPDEST PUSH2 0x579 DUP2 PUSH2 0x567 JUMP JUMPDEST DUP2 EQ PUSH2 0x583 JUMPI PUSH0 PUSH0 REVERT JUMPDEST POP JUMP JUMPDEST PUSH0 DUP2 CALLDATALOAD SWAP1 POP PUSH2 0x594 DUP2 PUSH2 0x570 JUMP JUMPDEST SWAP3 SWAP2 POP POP JUMP JUMPDEST PUSH0 PUSH1 0x20 DUP3 DUP5 SUB SLT ISZERO PUSH2 0x5AF JUMPI PUSH2 0x5AE PUSH2 0x3DC JUMP JUMPDEST JUMPDEST PUSH0 PUSH2 0x5BC DUP5 DUP3 DUP6 ADD PUSH2 0x586 JUMP JUMPDEST SWAP2 POP POP SWAP3 SWAP2 POP POP JUMP JUMPDEST PUSH2 0x5CE DUP2 PUSH2 0x567 JUMP JUMPDEST DUP3 MSTORE POP POP JUMP JUMPDEST PUSH0 DUP2 MLOAD SWAP1 POP SWAP2 SWAP1 POP JUMP JUMPDEST PUSH0 DUP3 DUP3 MSTORE PUSH1 0x20 DUP3 ADD SWAP1 POP SWAP3 SWAP2 POP POP JUMP JUMPDEST DUP3 DUP2 DUP4 MCOPY PUSH0 DUP4 DUP4 ADD MSTORE POP POP POP JUMP JUMPDEST PUSH0 PUSH2 0x606 DUP3 PUSH2 0x5D4 JUMP JUMPDEST PUSH2 0x610 DUP2 DUP6 PUSH2 0x5DE JUMP JUMPDEST SWAP4 POP PUSH2 0x620 DUP2 DUP6 PUSH1 0x20 DUP7 ADD PUSH2 0x5EE JUMP JUMPDEST PUSH2 0x629 DUP2 PUSH2 0x3EC JUMP JUMPDEST DUP5 ADD SWAP2 POP POP SWAP3 SWAP2 POP POP JUMP JUMPDEST PUSH0 DUP2 ISZERO ISZERO SWAP1 POP SWAP2 SWAP1 POP JUMP JUMPDEST PUSH2 0x648 DUP2 PUSH2 0x634 JUMP JUMPDEST DUP3 MSTORE POP POP JUMP JUMPDEST PUSH0 PUSH1 0x60 DUP3 ADD SWAP1 POP PUSH2 0x661 PUSH0 DUP4 ADD DUP7 PUSH2 0x5C5 JUMP JUMPDEST DUP2 DUP2 SUB PUSH1 0x20 DUP4 ADD MSTORE PUSH2 0x673 DUP2 DUP6 PUSH2 0x5FC JUMP JUMPDEST SWAP1 POP PUSH2 0x682 PUSH1 0x40 DUP4 ADD DUP5 PUSH2 0x63F JUMP JUMPDEST SWAP5 SWAP4 POP POP POP POP JUMP JUMPDEST PUSH0 PUSH1 0x20 DUP3 ADD SWAP1 POP PUSH2 0x69D PUSH0 DUP4 ADD DUP5 PUSH2 0x5C5 JUMP JUMPDEST SWAP3 SWAP2 POP POP JUMP JUMPDEST PUSH32 0x4E487B7100000000000000000000000000000000000000000000000000000000 PUSH0 MSTORE PUSH1 0x11 PUSH1 0x4 MSTORE PUSH1 0x24 PUSH0 REVERT JUMPDEST PUSH0 PUSH2 0x6DA DUP3 PUSH2 0x567 JUMP JUMPDEST SWAP2 POP PUSH32 0xFFFFFFFFFFFFFFFFFFFFFFFFFFFFFFFFFFFFFFFFFFFFFFFFFFFFFFFFFFFFFFFF DUP3 SUB PUSH2 0x70C JUMPI PUSH2 0x70B PUSH2 0x6A3 JUMP JUMPDEST JUMPDEST PUSH1 0x1 DUP3 ADD SWAP1 POP SWAP2 SWAP1 POP JUMP JUMPDEST PUSH32 0x4E487B7100000000000000000000000000000000000000000000000000000000 PUSH0 MSTORE PUSH1 0x22 PUSH1 0x4 MSTORE PUSH1 0x24 PUSH0 REVERT JUMPDEST PUSH0 PUSH1 0x2 DUP3 DIV SWAP1 POP PUSH1 0x1 DUP3 AND DUP1 PUSH2 0x75B JUMPI PUSH1 0x7F DUP3 AND SWAP2 POP JUMPDEST PUSH1 0x20 DUP3 LT DUP2 SUB PUSH2 0x76E JUMPI PUSH2 0x76D PUSH2 0x717 JUMP JUMPDEST JUMPDEST POP SWAP2 SWAP1 POP JUMP JUMPDEST PUSH0 DUP2 SWAP1 POP DUP2 PUSH0 MSTORE PUSH1 0x20 PUSH0 KECCAK256 SWAP1 POP SWAP2 SWAP1 POP JUMP JUMPDEST PUSH0 PUSH1 0x20 PUSH1 0x1F DUP4 ADD DIV SWAP1 POP SWAP2 SWAP1 POP JUMP JUMPDEST PUSH0 DUP3 DUP3 SHL SWAP1 POP SWAP3 SWAP2 POP POP JUMP JUMPDEST PUSH0 PUSH1 0x8 DUP4 MUL PUSH2 0x7D0 PUSH32 0xFFFFFFFFFFFFFFFFFFFFFFFFFFFFFFFFFFFFFFFFFFFFFFFFFFFFFFFFFFFFFFFF DUP3 PUSH2 0x795 JUMP JUMPDEST PUSH2 0x7DA DUP7 DUP4 PUSH2 0x795 JUMP JUMPDEST SWAP6 POP DUP1 NOT DUP5 AND SWAP4 POP DUP1 DUP7 AND DUP5 OR SWAP3 POP POP POP SWAP4 SWAP3 POP POP POP JUMP JUMPDEST PUSH0 DUP2 SWAP1 POP SWAP2 SWAP1 POP JUMP JUMPDEST PUSH0 PUSH2 0x815 PUSH2 0x810 PUSH2 0x80B DUP5 PUSH2 0x567 JUMP JUMPDEST PUSH2 0x7F2 JUMP JUMPDEST PUSH2 0x567 JUMP JUMPDEST SWAP1 POP SWAP2 SWAP1 POP JUMP JUMPDEST PUSH0 DUP2 SWAP1 POP SWAP2 SWAP1 POP JUMP JUMPDEST PUSH2 0x82E DUP4 PUSH2 0x7FB JUMP JUMPDEST PUSH2 0x842 PUSH2 0x83A DUP3 PUSH2 0x81C JUMP JUMPDEST DUP5 DUP5 SLOAD PUSH2 0x7A1 JUMP JUMPDEST DUP3 SSTORE POP POP POP POP JUMP JUMPDEST PUSH0 PUSH0 SWAP1 POP SWAP1 JUMP JUMPDEST PUSH2 0x859 PUSH2 0x84A JUMP JUMPDEST PUSH2 0x864 DUP2 DUP5 DUP5 PUSH2 0x825 JUMP JUMPDEST POP POP POP JUMP JUMPDEST JUMPDEST DUP2 DUP2 LT ISZERO PUSH2 0x887 JUMPI PUSH2 0x87C PUSH0 DUP3 PUSH2 0x851 JUMP JUMPDEST PUSH1 0x1 DUP2 ADD SWAP1 POP PUSH2 0x86A JUMP JUMPDEST POP POP JUMP JUMPDEST PUSH1 0x1F DUP3 GT ISZERO PUSH2 0x8CC JUMPI PUSH2 0x89D DUP2 PUSH2 0x774 JUMP JUMPDEST PUSH2 0x8A6 DUP5 PUSH2 0x786 JUMP JUMPDEST DUP2 ADD PUSH1 0x20 DUP6 LT ISZERO PUSH2 0x8B5 JUMPI DUP2 SWAP1 POP JUMPDEST PUSH2 0x8C9 PUSH2 0x8C1 DUP6 PUSH2 0x786 JUMP JUMPDEST DUP4 ADD DUP3 PUSH2 0x869 JUMP JUMPDEST POP POP JUMPDEST POP POP POP JUMP JUMPDEST PUSH0 DUP3 DUP3 SHR SWAP1 POP SWAP3 SWAP2 POP POP JUMP JUMPDEST PUSH0 PUSH2 0x8EC PUSH0 NOT DUP5 PUSH1 0x8 MUL PUSH2 0x8D1 JUMP JUMPDEST NOT DUP1 DUP4 AND SWAP2 POP POP SWAP3 SWAP2 POP POP JUMP JUMPDEST PUSH0 PUSH2 0x904 DUP4 DUP4 PUSH2 0x8DD JUMP JUMPDEST SWAP2 POP DUP3 PUSH1 0x2 MUL DUP3 OR SWAP1 POP SWAP3 SWAP2 POP POP JUMP JUMPDEST PUSH2 0x91D DUP3 PUSH2 0x5D4 JUMP JUMPDEST PUSH8 0xFFFFFFFFFFFFFFFF DUP2 GT ISZERO PUSH2 0x936 JUMPI PUSH2 0x935 PUSH2 0x3FC JUMP JUMPDEST JUMPDEST PUSH2 0x940 DUP3 SLOAD PUSH2 0x744 JUMP JUMPDEST PUSH2 0x94B DUP3 DUP3 DUP6 PUSH2 0x88B JUMP JUMPDEST PUSH0 PUSH1 0x20 SWAP1 POP PUSH1 0x1F DUP4 GT PUSH1 0x1 DUP2 EQ PUSH2 0x97C JUMPI PUSH0 DUP5 ISZERO PUSH2 0x96A JUMPI DUP3 DUP8 ADD MLOAD SWAP1 POP JUMPDEST PUSH2 0x974 DUP6 DUP3 PUSH2 0x8F9 JUMP JUMPDEST DUP7 SSTORE POP PUSH2 0x9DB JUMP JUMPDEST PUSH1 0x1F NOT DUP5 AND PUSH2 0x98A DUP7 PUSH2 0x774 JUMP JUMPDEST PUSH0 JUMPDEST DUP3 DUP2 LT ISZERO PUSH2 0x9B1 JUMPI DUP5 DUP10 ADD MLOAD DUP3 SSTORE PUSH1 0x1 DUP3 ADD SWAP2 POP PUSH1 0x20 DUP6 ADD SWAP5 POP PUSH1 0x20 DUP2 ADD SWAP1 POP PUSH2 0x98C JUMP JUMPDEST DUP7 DUP4 LT ISZERO PUSH2 0x9CE JUMPI DUP5 DUP10 ADD MLOAD PUSH2 0x9CA PUSH1 0x1F DUP10 AND DUP3 PUSH2 0x8DD JUMP JUMPDEST DUP4 SSTORE POP JUMPDEST PUSH1 0x1 PUSH1 0x2 DUP9 MUL ADD DUP9 SSTORE POP POP POP JUMPDEST POP POP POP POP POP POP JUMP JUMPDEST PUSH0 PUSH1 0x40 DUP3 ADD SWAP1 POP PUSH2 0x9F6 PUSH0 DUP4 ADD DUP6 PUSH2 0x5C5 JUMP JUMPDEST PUSH2 0xA03 PUSH1 0x20 DUP4 ADD DUP5 PUSH2 0x63F JUMP JUMPDEST SWAP4 SWAP3 POP POP POP JUMP INVALID LOG2 PUSH5 0x6970667358 0x22 SLT KECCAK256 0xA9 PC 0xB9 BALANCE CALLDATALOAD PUSH6 0x69851420C947 0xEA PUSH17 0x9A6CBCAEF43246DD53CA812D5F6853E91F KECCAK256 PUSH5 0x736F6C6343 STOP ADDMOD 0x1E STOP CALLER "
				},
				"gasEstimates": {
					"creation": {
						"codeDepositCost": "524800",
						"executionCost": "infinite",
						"totalCost": "infinite"
					},
					"external": {
						"createTask(string)": "infinite",
						"taskCount()": "2469",
						"tasks(uint256)": "infinite",
						"toggleTaskCompletion(uint256)": "infinite"
					}
				},
				"methodIdentifiers": {
					"createTask(string)": "111002aa",
					"taskCount()": "b6cb58a5",
					"tasks(uint256)": "8d977672",
					"toggleTaskCompletion(uint256)": "a9bda587"
				}
			},
			"storageLayout": {
				"storage": [
					{
						"astId": 13,
						"contract": "ToDoList/main.sol:ToDoList",
						"label": "tasks",
						"offset": 0,
						"slot": "0",
						"type": "t_mapping(t_uint256,t_struct(Task)8_storage)"
					},
					{
						"astId": 16,
						"contract": "ToDoList/main.sol:ToDoList",
						"label": "taskCount",
						"offset": 0,
						"slot": "1",
						"type": "t_uint256"
					}
				],
				"types": {
					"t_bool": {
						"encoding": "inplace",
						"label": "bool",
						"numberOfBytes": "1"
					},
					"t_mapping(t_uint256,t_struct(Task)8_storage)": {
						"encoding": "mapping",
						"key": "t_uint256",
						"label": "mapping(uint256 => struct ToDoList.Task)",
						"numberOfBytes": "32",
						"value": "t_struct(Task)8_storage"
					},
					"t_string_storage": {
						"encoding": "bytes",
						"label": "string",
						"numberOfBytes": "32"
					},
					"t_struct(Task)8_storage": {
						"encoding": "inplace",
						"label": "struct ToDoList.Task",
						"members": [
							{
								"astId": 3,
								"contract": "ToDoList/main.sol:ToDoList",
								"label": "id",
								"offset": 0,
								"slot": "0",
								"type": "t_uint256"
							},
							{
								"astId": 5,
								"contract": "ToDoList/main.sol:ToDoList",
								"label": "content",
								"offset": 0,
								"slot": "1",
								"type": "t_string_storage"
							},
							{
								"astId": 7,
								"contract": "ToDoList/main.sol:ToDoList",
								"label": "completed",
								"offset": 0,
								"slot": "2",
								"type": "t_bool"
							}
						],
						"numberOfBytes": "96"
					},
					"t_uint256": {
						"encoding": "inplace",
						"label": "uint256",
						"numberOfBytes": "32"
					}
				}
			},
			"userdoc": {
				"kind": "user",
				"methods": {},
				"version": 1
			}
		}
	}
}